{
	"contracts/thecrowd.sol": {
		"MegaCrowd": {
			"abi": [
				{
					"inputs": [
						{
							"internalType": "address",
							"name": "_token",
							"type": "address"
						}
					],
					"stateMutability": "nonpayable",
					"type": "constructor"
				},
				{
					"anonymous": false,
					"inputs": [
						{
							"indexed": false,
							"internalType": "uint256",
							"name": "id",
							"type": "uint256"
						}
					],
					"name": "Cancel",
					"type": "event"
				},
				{
					"anonymous": false,
					"inputs": [
						{
							"indexed": false,
							"internalType": "uint256",
							"name": "id",
							"type": "uint256"
						}
					],
					"name": "Claim",
					"type": "event"
				},
				{
					"anonymous": false,
					"inputs": [
						{
							"indexed": false,
							"internalType": "uint256",
							"name": "id",
							"type": "uint256"
						},
						{
							"indexed": true,
							"internalType": "address",
							"name": "creator",
							"type": "address"
						},
						{
							"indexed": false,
							"internalType": "uint256",
							"name": "goal",
							"type": "uint256"
						},
						{
							"indexed": false,
							"internalType": "uint32",
							"name": "startAt",
							"type": "uint32"
						},
						{
							"indexed": false,
							"internalType": "uint32",
							"name": "endAt",
							"type": "uint32"
						}
					],
					"name": "Launch",
					"type": "event"
				},
				{
					"anonymous": false,
					"inputs": [
						{
							"indexed": true,
							"internalType": "uint256",
							"name": "id",
							"type": "uint256"
						},
						{
							"indexed": true,
							"internalType": "address",
							"name": "caller",
							"type": "address"
						},
						{
							"indexed": false,
							"internalType": "uint256",
							"name": "amount",
							"type": "uint256"
						}
					],
					"name": "Pledge",
					"type": "event"
				},
				{
					"anonymous": false,
					"inputs": [
						{
							"indexed": false,
							"internalType": "uint256",
							"name": "id",
							"type": "uint256"
						},
						{
							"indexed": true,
							"internalType": "address",
							"name": "caller",
							"type": "address"
						},
						{
							"indexed": false,
							"internalType": "uint256",
							"name": "amount",
							"type": "uint256"
						}
					],
					"name": "Refund",
					"type": "event"
				},
				{
					"anonymous": false,
					"inputs": [
						{
							"indexed": true,
							"internalType": "uint256",
							"name": "id",
							"type": "uint256"
						},
						{
							"indexed": true,
							"internalType": "address",
							"name": "caller",
							"type": "address"
						},
						{
							"indexed": false,
							"internalType": "uint256",
							"name": "amount",
							"type": "uint256"
						}
					],
					"name": "Unpledge",
					"type": "event"
				},
				{
					"inputs": [
						{
							"internalType": "uint256",
							"name": "",
							"type": "uint256"
						}
					],
					"name": "campaigns",
					"outputs": [
						{
							"internalType": "address",
							"name": "creator",
							"type": "address"
						},
						{
							"internalType": "uint256",
							"name": "goal",
							"type": "uint256"
						},
						{
							"internalType": "uint256",
							"name": "pledged",
							"type": "uint256"
						},
						{
							"internalType": "uint32",
							"name": "startAt",
							"type": "uint32"
						},
						{
							"internalType": "uint32",
							"name": "endAt",
							"type": "uint32"
						},
						{
							"internalType": "bool",
							"name": "claimed",
							"type": "bool"
						}
					],
					"stateMutability": "view",
					"type": "function"
				},
				{
					"inputs": [
						{
							"internalType": "uint256",
							"name": "_id",
							"type": "uint256"
						}
					],
					"name": "cancel",
					"outputs": [],
					"stateMutability": "nonpayable",
					"type": "function"
				},
				{
					"inputs": [
						{
							"internalType": "uint256",
							"name": "_id",
							"type": "uint256"
						}
					],
					"name": "claim",
					"outputs": [],
					"stateMutability": "nonpayable",
					"type": "function"
				},
				{
					"inputs": [],
					"name": "count",
					"outputs": [
						{
							"internalType": "uint256",
							"name": "",
							"type": "uint256"
						}
					],
					"stateMutability": "view",
					"type": "function"
				},
				{
					"inputs": [
						{
							"internalType": "uint256",
							"name": "_goal",
							"type": "uint256"
						},
						{
							"internalType": "uint32",
							"name": "_startAt",
							"type": "uint32"
						},
						{
							"internalType": "uint32",
							"name": "_endAt",
							"type": "uint32"
						}
					],
					"name": "launch",
					"outputs": [],
					"stateMutability": "nonpayable",
					"type": "function"
				},
				{
					"inputs": [
						{
							"internalType": "uint256",
							"name": "_id",
							"type": "uint256"
						},
						{
							"internalType": "uint256",
							"name": "_amount",
							"type": "uint256"
						}
					],
					"name": "pledge",
					"outputs": [],
					"stateMutability": "nonpayable",
					"type": "function"
				},
				{
					"inputs": [
						{
							"internalType": "uint256",
							"name": "",
							"type": "uint256"
						},
						{
							"internalType": "address",
							"name": "",
							"type": "address"
						}
					],
					"name": "pledgedAmount",
					"outputs": [
						{
							"internalType": "uint256",
							"name": "",
							"type": "uint256"
						}
					],
					"stateMutability": "view",
					"type": "function"
				},
				{
					"inputs": [
						{
							"internalType": "uint256",
							"name": "_id",
							"type": "uint256"
						}
					],
					"name": "refund",
					"outputs": [],
					"stateMutability": "nonpayable",
					"type": "function"
				},
				{
					"inputs": [],
					"name": "token",
					"outputs": [
						{
							"internalType": "contract IERC20",
							"name": "",
							"type": "address"
						}
					],
					"stateMutability": "view",
					"type": "function"
				},
				{
					"inputs": [
						{
							"internalType": "uint256",
							"name": "_id",
							"type": "uint256"
						},
						{
							"internalType": "uint256",
							"name": "_amount",
							"type": "uint256"
						}
					],
					"name": "unpledge",
					"outputs": [],
					"stateMutability": "nonpayable",
					"type": "function"
				}
			],
			"devdoc": {
				"kind": "dev",
				"methods": {},
				"version": 1
			},
			"evm": {
				"assembly": "    /* \"contracts/thecrowd.sol\":251:4121  contract MegaCrowd {... */\n  mstore(0x40, 0xa0)\n    /* \"contracts/thecrowd.sol\":1466:1533  constructor(address _token) {... */\n  callvalue\n  dup1\n  iszero\n  tag_1\n  jumpi\n  0x00\n  dup1\n  revert\ntag_1:\n  pop\n  mload(0x40)\n  sub(codesize, bytecodeSize)\n  dup1\n  bytecodeSize\n  dup4\n  codecopy\n  dup2\n  dup2\n  add\n  0x40\n  mstore\n  dup2\n  add\n  swap1\n  tag_2\n  swap2\n  swap1\n  tag_3\n  jump\t// in\ntag_2:\n    /* \"contracts/thecrowd.sol\":1519:1525  _token */\n  dup1\n    /* \"contracts/thecrowd.sol\":1504:1526  token = IERC20(_token) */\n  0xffffffffffffffffffffffffffffffffffffffff\n  and\n  0x80\n  dup2\n  0xffffffffffffffffffffffffffffffffffffffff\n  and\n  0x60\n  shl\n  dup2\n  mstore\n  pop\n  pop\n    /* \"contracts/thecrowd.sol\":1466:1533  constructor(address _token) {... */\n  pop\n    /* \"contracts/thecrowd.sol\":251:4121  contract MegaCrowd {... */\n  jump(tag_6)\n    /* \"#utility.yul\":7:150   */\ntag_8:\n  0x00\n    /* \"#utility.yul\":95:101   */\n  dup2\n    /* \"#utility.yul\":89:102   */\n  mload\n    /* \"#utility.yul\":80:102   */\n  swap1\n  pop\n    /* \"#utility.yul\":111:144   */\n  tag_10\n    /* \"#utility.yul\":138:143   */\n  dup2\n    /* \"#utility.yul\":111:144   */\n  tag_11\n  jump\t// in\ntag_10:\n    /* \"#utility.yul\":70:150   */\n  swap3\n  swap2\n  pop\n  pop\n  jump\t// out\n    /* \"#utility.yul\":156:440   */\ntag_3:\n  0x00\n    /* \"#utility.yul\":275:277   */\n  0x20\n    /* \"#utility.yul\":263:272   */\n  dup3\n    /* \"#utility.yul\":254:261   */\n  dup5\n    /* \"#utility.yul\":250:273   */\n  sub\n    /* \"#utility.yul\":246:278   */\n  slt\n    /* \"#utility.yul\":243:245   */\n  iszero\n  tag_13\n  jumpi\n    /* \"#utility.yul\":291:292   */\n  0x00\n    /* \"#utility.yul\":288:289   */\n  dup1\n    /* \"#utility.yul\":281:293   */\n  revert\n    /* \"#utility.yul\":243:245   */\ntag_13:\n    /* \"#utility.yul\":334:335   */\n  0x00\n    /* \"#utility.yul\":359:423   */\n  tag_14\n    /* \"#utility.yul\":415:422   */\n  dup5\n    /* \"#utility.yul\":406:412   */\n  dup3\n    /* \"#utility.yul\":395:404   */\n  dup6\n    /* \"#utility.yul\":391:413   */\n  add\n    /* \"#utility.yul\":359:423   */\n  tag_8\n  jump\t// in\ntag_14:\n    /* \"#utility.yul\":349:423   */\n  swap2\n  pop\n    /* \"#utility.yul\":305:433   */\n  pop\n    /* \"#utility.yul\":233:440   */\n  swap3\n  swap2\n  pop\n  pop\n  jump\t// out\n    /* \"#utility.yul\":446:542   */\ntag_15:\n  0x00\n    /* \"#utility.yul\":512:536   */\n  tag_17\n    /* \"#utility.yul\":530:535   */\n  dup3\n    /* \"#utility.yul\":512:536   */\n  tag_18\n  jump\t// in\ntag_17:\n    /* \"#utility.yul\":501:536   */\n  swap1\n  pop\n    /* \"#utility.yul\":491:542   */\n  swap2\n  swap1\n  pop\n  jump\t// out\n    /* \"#utility.yul\":548:674   */\ntag_18:\n  0x00\n    /* \"#utility.yul\":625:667   */\n  0xffffffffffffffffffffffffffffffffffffffff\n    /* \"#utility.yul\":618:623   */\n  dup3\n    /* \"#utility.yul\":614:668   */\n  and\n    /* \"#utility.yul\":603:668   */\n  swap1\n  pop\n    /* \"#utility.yul\":593:674   */\n  swap2\n  swap1\n  pop\n  jump\t// out\n    /* \"#utility.yul\":680:802   */\ntag_11:\n    /* \"#utility.yul\":753:777   */\n  tag_21\n    /* \"#utility.yul\":771:776   */\n  dup2\n    /* \"#utility.yul\":753:777   */\n  tag_15\n  jump\t// in\ntag_21:\n    /* \"#utility.yul\":746:751   */\n  dup2\n    /* \"#utility.yul\":743:778   */\n  eq\n    /* \"#utility.yul\":733:735   */\n  tag_22\n  jumpi\n    /* \"#utility.yul\":792:793   */\n  0x00\n    /* \"#utility.yul\":789:790   */\n  dup1\n    /* \"#utility.yul\":782:794   */\n  revert\n    /* \"#utility.yul\":733:735   */\ntag_22:\n    /* \"#utility.yul\":723:802   */\n  pop\n  jump\t// out\n    /* \"contracts/thecrowd.sol\":251:4121  contract MegaCrowd {... */\ntag_6:\n  shr(0x60, mload(0x80))\n  codecopy(0x00, dataOffset(sub_0), dataSize(sub_0))\n  0x00\n  assignImmutable(\"0x5392f7a671cdf89487ccf8e3646ea8f7570009490584962db6fa064c6e4ad499\")\n  return(0x00, dataSize(sub_0))\nstop\n\nsub_0: assembly {\n        /* \"contracts/thecrowd.sol\":251:4121  contract MegaCrowd {... */\n      mstore(0x40, 0x80)\n      callvalue\n      dup1\n      iszero\n      tag_1\n      jumpi\n      0x00\n      dup1\n      revert\n    tag_1:\n      pop\n      jumpi(tag_2, lt(calldatasize, 0x04))\n      shr(0xe0, calldataload(0x00))\n      dup1\n      0x40e58ee5\n      gt\n      tag_13\n      jumpi\n      dup1\n      0x40e58ee5\n      eq\n      tag_8\n      jumpi\n      dup1\n      0x711853ab\n      eq\n      tag_9\n      jumpi\n      dup1\n      0xaa4fb63a\n      eq\n      tag_10\n      jumpi\n      dup1\n      0xfc0c546a\n      eq\n      tag_11\n      jumpi\n      dup1\n      0xfde327be\n      eq\n      tag_12\n      jumpi\n      jump(tag_2)\n    tag_13:\n      dup1\n      0x06661abd\n      eq\n      tag_3\n      jumpi\n      dup1\n      0x141961bc\n      eq\n      tag_4\n      jumpi\n      dup1\n      0x278ecde1\n      eq\n      tag_5\n      jumpi\n      dup1\n      0x2c63f146\n      eq\n      tag_6\n      jumpi\n      dup1\n      0x379607f5\n      eq\n      tag_7\n      jumpi\n    tag_2:\n      0x00\n      dup1\n      revert\n        /* \"contracts/thecrowd.sol\":1230:1247  uint public count */\n    tag_3:\n      tag_14\n      tag_15\n      jump\t// in\n    tag_14:\n      mload(0x40)\n      tag_16\n      swap2\n      swap1\n      tag_17\n      jump\t// in\n    tag_16:\n      mload(0x40)\n      dup1\n      swap2\n      sub\n      swap1\n      return\n        /* \"contracts/thecrowd.sol\":1288:1330  mapping(uint => Campaign) public campaigns */\n    tag_4:\n      tag_18\n      0x04\n      dup1\n      calldatasize\n      sub\n      dup2\n      add\n      swap1\n      tag_19\n      swap2\n      swap1\n      tag_20\n      jump\t// in\n    tag_19:\n      tag_21\n      jump\t// in\n    tag_18:\n      mload(0x40)\n      tag_22\n      swap7\n      swap6\n      swap5\n      swap4\n      swap3\n      swap2\n      swap1\n      tag_23\n      jump\t// in\n    tag_22:\n      mload(0x40)\n      dup1\n      swap2\n      sub\n      swap1\n      return\n        /* \"contracts/thecrowd.sol\":3711:4119  function refund(uint _id) external {... */\n    tag_5:\n      tag_24\n      0x04\n      dup1\n      calldatasize\n      sub\n      dup2\n      add\n      swap1\n      tag_25\n      swap2\n      swap1\n      tag_20\n      jump\t// in\n    tag_25:\n      tag_26\n      jump\t// in\n    tag_24:\n      stop\n        /* \"contracts/thecrowd.sol\":1539:2150  function launch(... */\n    tag_6:\n      tag_27\n      0x04\n      dup1\n      calldatasize\n      sub\n      dup2\n      add\n      swap1\n      tag_28\n      swap2\n      swap1\n      tag_29\n      jump\t// in\n    tag_28:\n      tag_30\n      jump\t// in\n    tag_27:\n      stop\n        /* \"contracts/thecrowd.sol\":3247:3705  function claim(uint _id) external {... */\n    tag_7:\n      tag_31\n      0x04\n      dup1\n      calldatasize\n      sub\n      dup2\n      add\n      swap1\n      tag_32\n      swap2\n      swap1\n      tag_20\n      jump\t// in\n    tag_32:\n      tag_33\n      jump\t// in\n    tag_31:\n      stop\n        /* \"contracts/thecrowd.sol\":2156:2435  function cancel(uint _id) external {... */\n    tag_8:\n      tag_34\n      0x04\n      dup1\n      calldatasize\n      sub\n      dup2\n      add\n      swap1\n      tag_35\n      swap2\n      swap1\n      tag_20\n      jump\t// in\n    tag_35:\n      tag_36\n      jump\t// in\n    tag_34:\n      stop\n        /* \"contracts/thecrowd.sol\":2886:3241  function unpledge(uint _id, uint _amount) external {... */\n    tag_9:\n      tag_37\n      0x04\n      dup1\n      calldatasize\n      sub\n      dup2\n      add\n      swap1\n      tag_38\n      swap2\n      swap1\n      tag_39\n      jump\t// in\n    tag_38:\n      tag_40\n      jump\t// in\n    tag_37:\n      stop\n        /* \"contracts/thecrowd.sol\":1397:1459  mapping(uint => mapping(address => uint)) public pledgedAmount */\n    tag_10:\n      tag_41\n      0x04\n      dup1\n      calldatasize\n      sub\n      dup2\n      add\n      swap1\n      tag_42\n      swap2\n      swap1\n      tag_43\n      jump\t// in\n    tag_42:\n      tag_44\n      jump\t// in\n    tag_41:\n      mload(0x40)\n      tag_45\n      swap2\n      swap1\n      tag_17\n      jump\t// in\n    tag_45:\n      mload(0x40)\n      dup1\n      swap2\n      sub\n      swap1\n      return\n        /* \"contracts/thecrowd.sol\":1097:1126  IERC20 public immutable token */\n    tag_11:\n      tag_46\n      tag_47\n      jump\t// in\n    tag_46:\n      mload(0x40)\n      tag_48\n      swap2\n      swap1\n      tag_49\n      jump\t// in\n    tag_48:\n      mload(0x40)\n      dup1\n      swap2\n      sub\n      swap1\n      return\n        /* \"contracts/thecrowd.sol\":2441:2880  function pledge(uint _id, uint _amount) external {... */\n    tag_12:\n      tag_50\n      0x04\n      dup1\n      calldatasize\n      sub\n      dup2\n      add\n      swap1\n      tag_51\n      swap2\n      swap1\n      tag_39\n      jump\t// in\n    tag_51:\n      tag_52\n      jump\t// in\n    tag_50:\n      stop\n        /* \"contracts/thecrowd.sol\":1230:1247  uint public count */\n    tag_15:\n      sload(0x00)\n      dup2\n      jump\t// out\n        /* \"contracts/thecrowd.sol\":1288:1330  mapping(uint => Campaign) public campaigns */\n    tag_21:\n      mstore(0x20, 0x01)\n      dup1\n      0x00\n      mstore\n      keccak256(0x00, 0x40)\n      0x00\n      swap2\n      pop\n      swap1\n      pop\n      dup1\n      0x00\n      add\n      0x00\n      swap1\n      sload\n      swap1\n      0x0100\n      exp\n      swap1\n      div\n      0xffffffffffffffffffffffffffffffffffffffff\n      and\n      swap1\n      dup1\n      0x01\n      add\n      sload\n      swap1\n      dup1\n      0x02\n      add\n      sload\n      swap1\n      dup1\n      0x03\n      add\n      0x00\n      swap1\n      sload\n      swap1\n      0x0100\n      exp\n      swap1\n      div\n      0xffffffff\n      and\n      swap1\n      dup1\n      0x03\n      add\n      0x04\n      swap1\n      sload\n      swap1\n      0x0100\n      exp\n      swap1\n      div\n      0xffffffff\n      and\n      swap1\n      dup1\n      0x03\n      add\n      0x08\n      swap1\n      sload\n      swap1\n      0x0100\n      exp\n      swap1\n      div\n      0xff\n      and\n      swap1\n      pop\n      dup7\n      jump\t// out\n        /* \"contracts/thecrowd.sol\":3711:4119  function refund(uint _id) external {... */\n    tag_26:\n        /* \"contracts/thecrowd.sol\":3756:3780  Campaign memory campaign */\n      0x00\n        /* \"contracts/thecrowd.sol\":3783:3792  campaigns */\n      0x01\n        /* \"contracts/thecrowd.sol\":3783:3797  campaigns[_id] */\n      0x00\n        /* \"contracts/thecrowd.sol\":3793:3796  _id */\n      dup4\n        /* \"contracts/thecrowd.sol\":3783:3797  campaigns[_id] */\n      dup2\n      mstore\n      0x20\n      add\n      swap1\n      dup2\n      mstore\n      0x20\n      add\n      0x00\n      keccak256\n        /* \"contracts/thecrowd.sol\":3756:3797  Campaign memory campaign = campaigns[_id] */\n      mload(0x40)\n      dup1\n      0xc0\n      add\n      0x40\n      mstore\n      swap1\n      dup2\n      0x00\n      dup3\n      add\n      0x00\n      swap1\n      sload\n      swap1\n      0x0100\n      exp\n      swap1\n      div\n      0xffffffffffffffffffffffffffffffffffffffff\n      and\n      0xffffffffffffffffffffffffffffffffffffffff\n      and\n      0xffffffffffffffffffffffffffffffffffffffff\n      and\n      dup2\n      mstore\n      0x20\n      add\n      0x01\n      dup3\n      add\n      sload\n      dup2\n      mstore\n      0x20\n      add\n      0x02\n      dup3\n      add\n      sload\n      dup2\n      mstore\n      0x20\n      add\n      0x03\n      dup3\n      add\n      0x00\n      swap1\n      sload\n      swap1\n      0x0100\n      exp\n      swap1\n      div\n      0xffffffff\n      and\n      0xffffffff\n      and\n      0xffffffff\n      and\n      dup2\n      mstore\n      0x20\n      add\n      0x03\n      dup3\n      add\n      0x04\n      swap1\n      sload\n      swap1\n      0x0100\n      exp\n      swap1\n      div\n      0xffffffff\n      and\n      0xffffffff\n      and\n      0xffffffff\n      and\n      dup2\n      mstore\n      0x20\n      add\n      0x03\n      dup3\n      add\n      0x08\n      swap1\n      sload\n      swap1\n      0x0100\n      exp\n      swap1\n      div\n      0xff\n      and\n      iszero\n      iszero\n      iszero\n      iszero\n      dup2\n      mstore\n      pop\n      pop\n      swap1\n      pop\n        /* \"contracts/thecrowd.sol\":3833:3841  campaign */\n      dup1\n        /* \"contracts/thecrowd.sol\":3833:3847  campaign.endAt */\n      0x80\n      add\n      mload\n        /* \"contracts/thecrowd.sol\":3815:3847  block.timestamp > campaign.endAt */\n      0xffffffff\n      and\n        /* \"contracts/thecrowd.sol\":3815:3830  block.timestamp */\n      timestamp\n        /* \"contracts/thecrowd.sol\":3815:3847  block.timestamp > campaign.endAt */\n      gt\n        /* \"contracts/thecrowd.sol\":3807:3861  require(block.timestamp > campaign.endAt, \"not ended\") */\n      tag_54\n      jumpi\n      mload(0x40)\n      0x08c379a000000000000000000000000000000000000000000000000000000000\n      dup2\n      mstore\n      0x04\n      add\n      tag_55\n      swap1\n      tag_56\n      jump\t// in\n    tag_55:\n      mload(0x40)\n      dup1\n      swap2\n      sub\n      swap1\n      revert\n    tag_54:\n        /* \"contracts/thecrowd.sol\":3898:3906  campaign */\n      dup1\n        /* \"contracts/thecrowd.sol\":3898:3911  campaign.goal */\n      0x20\n      add\n      mload\n        /* \"contracts/thecrowd.sol\":3879:3887  campaign */\n      dup2\n        /* \"contracts/thecrowd.sol\":3879:3895  campaign.pledged */\n      0x40\n      add\n      mload\n        /* \"contracts/thecrowd.sol\":3879:3911  campaign.pledged < campaign.goal */\n      lt\n        /* \"contracts/thecrowd.sol\":3871:3931  require(campaign.pledged < campaign.goal, \"pledged >= goal\") */\n      tag_57\n      jumpi\n      mload(0x40)\n      0x08c379a000000000000000000000000000000000000000000000000000000000\n      dup2\n      mstore\n      0x04\n      add\n      tag_58\n      swap1\n      tag_59\n      jump\t// in\n    tag_58:\n      mload(0x40)\n      dup1\n      swap2\n      sub\n      swap1\n      revert\n    tag_57:\n        /* \"contracts/thecrowd.sol\":3942:3950  uint bal */\n      0x00\n        /* \"contracts/thecrowd.sol\":3953:3966  pledgedAmount */\n      0x02\n        /* \"contracts/thecrowd.sol\":3953:3971  pledgedAmount[_id] */\n      0x00\n        /* \"contracts/thecrowd.sol\":3967:3970  _id */\n      dup5\n        /* \"contracts/thecrowd.sol\":3953:3971  pledgedAmount[_id] */\n      dup2\n      mstore\n      0x20\n      add\n      swap1\n      dup2\n      mstore\n      0x20\n      add\n      0x00\n      keccak256\n        /* \"contracts/thecrowd.sol\":3953:3983  pledgedAmount[_id][msg.sender] */\n      0x00\n        /* \"contracts/thecrowd.sol\":3972:3982  msg.sender */\n      caller\n        /* \"contracts/thecrowd.sol\":3953:3983  pledgedAmount[_id][msg.sender] */\n      0xffffffffffffffffffffffffffffffffffffffff\n      and\n      0xffffffffffffffffffffffffffffffffffffffff\n      and\n      dup2\n      mstore\n      0x20\n      add\n      swap1\n      dup2\n      mstore\n      0x20\n      add\n      0x00\n      keccak256\n      sload\n        /* \"contracts/thecrowd.sol\":3942:3983  uint bal = pledgedAmount[_id][msg.sender] */\n      swap1\n      pop\n        /* \"contracts/thecrowd.sol\":4026:4027  0 */\n      0x00\n        /* \"contracts/thecrowd.sol\":3993:4006  pledgedAmount */\n      0x02\n        /* \"contracts/thecrowd.sol\":3993:4011  pledgedAmount[_id] */\n      0x00\n        /* \"contracts/thecrowd.sol\":4007:4010  _id */\n      dup6\n        /* \"contracts/thecrowd.sol\":3993:4011  pledgedAmount[_id] */\n      dup2\n      mstore\n      0x20\n      add\n      swap1\n      dup2\n      mstore\n      0x20\n      add\n      0x00\n      keccak256\n        /* \"contracts/thecrowd.sol\":3993:4023  pledgedAmount[_id][msg.sender] */\n      0x00\n        /* \"contracts/thecrowd.sol\":4012:4022  msg.sender */\n      caller\n        /* \"contracts/thecrowd.sol\":3993:4023  pledgedAmount[_id][msg.sender] */\n      0xffffffffffffffffffffffffffffffffffffffff\n      and\n      0xffffffffffffffffffffffffffffffffffffffff\n      and\n      dup2\n      mstore\n      0x20\n      add\n      swap1\n      dup2\n      mstore\n      0x20\n      add\n      0x00\n      keccak256\n        /* \"contracts/thecrowd.sol\":3993:4027  pledgedAmount[_id][msg.sender] = 0 */\n      dup2\n      swap1\n      sstore\n      pop\n        /* \"contracts/thecrowd.sol\":4037:4042  token */\n      immutable(\"0x5392f7a671cdf89487ccf8e3646ea8f7570009490584962db6fa064c6e4ad499\")\n        /* \"contracts/thecrowd.sol\":4037:4051  token.transfer */\n      0xffffffffffffffffffffffffffffffffffffffff\n      and\n      0xa9059cbb\n        /* \"contracts/thecrowd.sol\":4052:4062  msg.sender */\n      caller\n        /* \"contracts/thecrowd.sol\":4064:4067  bal */\n      dup4\n        /* \"contracts/thecrowd.sol\":4037:4068  token.transfer(msg.sender, bal) */\n      mload(0x40)\n      dup4\n      0xffffffff\n      and\n      0xe0\n      shl\n      dup2\n      mstore\n      0x04\n      add\n      tag_60\n      swap3\n      swap2\n      swap1\n      tag_61\n      jump\t// in\n    tag_60:\n      0x20\n      mload(0x40)\n      dup1\n      dup4\n      sub\n      dup2\n      0x00\n      dup8\n      dup1\n      extcodesize\n      iszero\n      dup1\n      iszero\n      tag_62\n      jumpi\n      0x00\n      dup1\n      revert\n    tag_62:\n      pop\n      gas\n      call\n      iszero\n      dup1\n      iszero\n      tag_64\n      jumpi\n      returndatasize\n      0x00\n      dup1\n      returndatacopy\n      revert(0x00, returndatasize)\n    tag_64:\n      pop\n      pop\n      pop\n      pop\n      mload(0x40)\n      returndatasize\n      not(0x1f)\n      0x1f\n      dup3\n      add\n      and\n      dup3\n      add\n      dup1\n      0x40\n      mstore\n      pop\n      dup2\n      add\n      swap1\n      tag_65\n      swap2\n      swap1\n      tag_66\n      jump\t// in\n    tag_65:\n      pop\n        /* \"contracts/thecrowd.sol\":4096:4106  msg.sender */\n      caller\n        /* \"contracts/thecrowd.sol\":4084:4112  Refund(_id, msg.sender, bal) */\n      0xffffffffffffffffffffffffffffffffffffffff\n      and\n      0x21e12a7cad0da5928167e1084ea4d5fdf8d9af66657a2543a9ac76a0ca081477\n        /* \"contracts/thecrowd.sol\":4091:4094  _id */\n      dup5\n        /* \"contracts/thecrowd.sol\":4108:4111  bal */\n      dup4\n        /* \"contracts/thecrowd.sol\":4084:4112  Refund(_id, msg.sender, bal) */\n      mload(0x40)\n      tag_67\n      swap3\n      swap2\n      swap1\n      tag_68\n      jump\t// in\n    tag_67:\n      mload(0x40)\n      dup1\n      swap2\n      sub\n      swap1\n      log2\n        /* \"contracts/thecrowd.sol\":3711:4119  function refund(uint _id) external {... */\n      pop\n      pop\n      pop\n      jump\t// out\n        /* \"contracts/thecrowd.sol\":1539:2150  function launch(... */\n    tag_30:\n        /* \"contracts/thecrowd.sol\":1668:1683  block.timestamp */\n      timestamp\n        /* \"contracts/thecrowd.sol\":1656:1664  _startAt */\n      dup3\n        /* \"contracts/thecrowd.sol\":1656:1683  _startAt >= block.timestamp */\n      0xffffffff\n      and\n      lt\n      iszero\n        /* \"contracts/thecrowd.sol\":1648:1702  require(_startAt >= block.timestamp, \"start at < now\") */\n      tag_70\n      jumpi\n      mload(0x40)\n      0x08c379a000000000000000000000000000000000000000000000000000000000\n      dup2\n      mstore\n      0x04\n      add\n      tag_71\n      swap1\n      tag_72\n      jump\t// in\n    tag_71:\n      mload(0x40)\n      dup1\n      swap2\n      sub\n      swap1\n      revert\n    tag_70:\n        /* \"contracts/thecrowd.sol\":1730:1738  _startAt */\n      dup2\n        /* \"contracts/thecrowd.sol\":1720:1738  _endAt >= _startAt */\n      0xffffffff\n      and\n        /* \"contracts/thecrowd.sol\":1720:1726  _endAt */\n      dup2\n        /* \"contracts/thecrowd.sol\":1720:1738  _endAt >= _startAt */\n      0xffffffff\n      and\n      lt\n      iszero\n        /* \"contracts/thecrowd.sol\":1712:1760  require(_endAt >= _startAt, \"end at < start at\") */\n      tag_73\n      jumpi\n      mload(0x40)\n      0x08c379a000000000000000000000000000000000000000000000000000000000\n      dup2\n      mstore\n      0x04\n      add\n      tag_74\n      swap1\n      tag_75\n      jump\t// in\n    tag_74:\n      mload(0x40)\n      dup1\n      swap2\n      sub\n      swap1\n      revert\n    tag_73:\n        /* \"contracts/thecrowd.sol\":1806:1813  90 days */\n      0x76a700\n        /* \"contracts/thecrowd.sol\":1788:1803  block.timestamp */\n      timestamp\n        /* \"contracts/thecrowd.sol\":1788:1813  block.timestamp + 90 days */\n      tag_76\n      swap2\n      swap1\n      tag_77\n      jump\t// in\n    tag_76:\n        /* \"contracts/thecrowd.sol\":1778:1784  _endAt */\n      dup2\n        /* \"contracts/thecrowd.sol\":1778:1813  _endAt <= block.timestamp + 90 days */\n      0xffffffff\n      and\n      gt\n      iszero\n        /* \"contracts/thecrowd.sol\":1770:1839  require(_endAt <= block.timestamp + 90 days, \"end at > max duration\") */\n      tag_78\n      jumpi\n      mload(0x40)\n      0x08c379a000000000000000000000000000000000000000000000000000000000\n      dup2\n      mstore\n      0x04\n      add\n      tag_79\n      swap1\n      tag_80\n      jump\t// in\n    tag_79:\n      mload(0x40)\n      dup1\n      swap2\n      sub\n      swap1\n      revert\n    tag_78:\n        /* \"contracts/thecrowd.sol\":1859:1860  1 */\n      0x01\n        /* \"contracts/thecrowd.sol\":1850:1855  count */\n      0x00\n      dup1\n        /* \"contracts/thecrowd.sol\":1850:1860  count += 1 */\n      dup3\n      dup3\n      sload\n      tag_81\n      swap2\n      swap1\n      tag_77\n      jump\t// in\n    tag_81:\n      swap3\n      pop\n      pop\n      dup2\n      swap1\n      sstore\n      pop\n        /* \"contracts/thecrowd.sol\":1889:2077  Campaign({... */\n      mload(0x40)\n      dup1\n      0xc0\n      add\n      0x40\n      mstore\n      dup1\n        /* \"contracts/thecrowd.sol\":1921:1931  msg.sender */\n      caller\n        /* \"contracts/thecrowd.sol\":1889:2077  Campaign({... */\n      0xffffffffffffffffffffffffffffffffffffffff\n      and\n      dup2\n      mstore\n      0x20\n      add\n        /* \"contracts/thecrowd.sol\":1951:1956  _goal */\n      dup5\n        /* \"contracts/thecrowd.sol\":1889:2077  Campaign({... */\n      dup2\n      mstore\n      0x20\n      add\n        /* \"contracts/thecrowd.sol\":1979:1980  0 */\n      0x00\n        /* \"contracts/thecrowd.sol\":1889:2077  Campaign({... */\n      dup2\n      mstore\n      0x20\n      add\n        /* \"contracts/thecrowd.sol\":2003:2011  _startAt */\n      dup4\n        /* \"contracts/thecrowd.sol\":1889:2077  Campaign({... */\n      0xffffffff\n      and\n      dup2\n      mstore\n      0x20\n      add\n        /* \"contracts/thecrowd.sol\":2032:2038  _endAt */\n      dup3\n        /* \"contracts/thecrowd.sol\":1889:2077  Campaign({... */\n      0xffffffff\n      and\n      dup2\n      mstore\n      0x20\n      add\n        /* \"contracts/thecrowd.sol\":2061:2066  false */\n      0x00\n        /* \"contracts/thecrowd.sol\":1889:2077  Campaign({... */\n      iszero\n      iszero\n      dup2\n      mstore\n      pop\n        /* \"contracts/thecrowd.sol\":1870:1879  campaigns */\n      0x01\n        /* \"contracts/thecrowd.sol\":1870:1886  campaigns[count] */\n      0x00\n        /* \"contracts/thecrowd.sol\":1880:1885  count */\n      dup1\n      sload\n        /* \"contracts/thecrowd.sol\":1870:1886  campaigns[count] */\n      dup2\n      mstore\n      0x20\n      add\n      swap1\n      dup2\n      mstore\n      0x20\n      add\n      0x00\n      keccak256\n        /* \"contracts/thecrowd.sol\":1870:2077  campaigns[count] = Campaign({... */\n      0x00\n      dup3\n      add\n      mload\n      dup2\n      0x00\n      add\n      exp(0x0100, 0x00)\n      dup2\n      sload\n      dup2\n      0xffffffffffffffffffffffffffffffffffffffff\n      mul\n      not\n      and\n      swap1\n      dup4\n      0xffffffffffffffffffffffffffffffffffffffff\n      and\n      mul\n      or\n      swap1\n      sstore\n      pop\n      0x20\n      dup3\n      add\n      mload\n      dup2\n      0x01\n      add\n      sstore\n      0x40\n      dup3\n      add\n      mload\n      dup2\n      0x02\n      add\n      sstore\n      0x60\n      dup3\n      add\n      mload\n      dup2\n      0x03\n      add\n      exp(0x0100, 0x00)\n      dup2\n      sload\n      dup2\n      0xffffffff\n      mul\n      not\n      and\n      swap1\n      dup4\n      0xffffffff\n      and\n      mul\n      or\n      swap1\n      sstore\n      pop\n      0x80\n      dup3\n      add\n      mload\n      dup2\n      0x03\n      add\n      exp(0x0100, 0x04)\n      dup2\n      sload\n      dup2\n      0xffffffff\n      mul\n      not\n      and\n      swap1\n      dup4\n      0xffffffff\n      and\n      mul\n      or\n      swap1\n      sstore\n      pop\n      0xa0\n      dup3\n      add\n      mload\n      dup2\n      0x03\n      add\n      exp(0x0100, 0x08)\n      dup2\n      sload\n      dup2\n      0xff\n      mul\n      not\n      and\n      swap1\n      dup4\n      iszero\n      iszero\n      mul\n      or\n      swap1\n      sstore\n      pop\n      swap1\n      pop\n      pop\n        /* \"contracts/thecrowd.sol\":2107:2117  msg.sender */\n      caller\n        /* \"contracts/thecrowd.sol\":2093:2143  Launch(count, msg.sender, _goal, _startAt, _endAt) */\n      0xffffffffffffffffffffffffffffffffffffffff\n      and\n      0x0601cd0d650b473037e838a2696d41e654433d065b3f56b28d1d3302e44a304f\n        /* \"contracts/thecrowd.sol\":2100:2105  count */\n      sload(0x00)\n        /* \"contracts/thecrowd.sol\":2119:2124  _goal */\n      dup6\n        /* \"contracts/thecrowd.sol\":2126:2134  _startAt */\n      dup6\n        /* \"contracts/thecrowd.sol\":2136:2142  _endAt */\n      dup6\n        /* \"contracts/thecrowd.sol\":2093:2143  Launch(count, msg.sender, _goal, _startAt, _endAt) */\n      mload(0x40)\n      tag_82\n      swap5\n      swap4\n      swap3\n      swap2\n      swap1\n      tag_83\n      jump\t// in\n    tag_82:\n      mload(0x40)\n      dup1\n      swap2\n      sub\n      swap1\n      log2\n        /* \"contracts/thecrowd.sol\":1539:2150  function launch(... */\n      pop\n      pop\n      pop\n      jump\t// out\n        /* \"contracts/thecrowd.sol\":3247:3705  function claim(uint _id) external {... */\n    tag_33:\n        /* \"contracts/thecrowd.sol\":3291:3316  Campaign storage campaign */\n      0x00\n        /* \"contracts/thecrowd.sol\":3319:3328  campaigns */\n      0x01\n        /* \"contracts/thecrowd.sol\":3319:3333  campaigns[_id] */\n      0x00\n        /* \"contracts/thecrowd.sol\":3329:3332  _id */\n      dup4\n        /* \"contracts/thecrowd.sol\":3319:3333  campaigns[_id] */\n      dup2\n      mstore\n      0x20\n      add\n      swap1\n      dup2\n      mstore\n      0x20\n      add\n      0x00\n      keccak256\n        /* \"contracts/thecrowd.sol\":3291:3333  Campaign storage campaign = campaigns[_id] */\n      swap1\n      pop\n        /* \"contracts/thecrowd.sol\":3371:3381  msg.sender */\n      caller\n        /* \"contracts/thecrowd.sol\":3351:3381  campaign.creator == msg.sender */\n      0xffffffffffffffffffffffffffffffffffffffff\n      and\n        /* \"contracts/thecrowd.sol\":3351:3359  campaign */\n      dup2\n        /* \"contracts/thecrowd.sol\":3351:3367  campaign.creator */\n      0x00\n      add\n      0x00\n      swap1\n      sload\n      swap1\n      0x0100\n      exp\n      swap1\n      div\n      0xffffffffffffffffffffffffffffffffffffffff\n      and\n        /* \"contracts/thecrowd.sol\":3351:3381  campaign.creator == msg.sender */\n      0xffffffffffffffffffffffffffffffffffffffff\n      and\n      eq\n        /* \"contracts/thecrowd.sol\":3343:3397  require(campaign.creator == msg.sender, \"not creator\") */\n      tag_85\n      jumpi\n      mload(0x40)\n      0x08c379a000000000000000000000000000000000000000000000000000000000\n      dup2\n      mstore\n      0x04\n      add\n      tag_86\n      swap1\n      tag_87\n      jump\t// in\n    tag_86:\n      mload(0x40)\n      dup1\n      swap2\n      sub\n      swap1\n      revert\n    tag_85:\n        /* \"contracts/thecrowd.sol\":3433:3441  campaign */\n      dup1\n        /* \"contracts/thecrowd.sol\":3433:3447  campaign.endAt */\n      0x03\n      add\n      0x04\n      swap1\n      sload\n      swap1\n      0x0100\n      exp\n      swap1\n      div\n      0xffffffff\n      and\n        /* \"contracts/thecrowd.sol\":3415:3447  block.timestamp > campaign.endAt */\n      0xffffffff\n      and\n        /* \"contracts/thecrowd.sol\":3415:3430  block.timestamp */\n      timestamp\n        /* \"contracts/thecrowd.sol\":3415:3447  block.timestamp > campaign.endAt */\n      gt\n        /* \"contracts/thecrowd.sol\":3407:3461  require(block.timestamp > campaign.endAt, \"not ended\") */\n      tag_88\n      jumpi\n      mload(0x40)\n      0x08c379a000000000000000000000000000000000000000000000000000000000\n      dup2\n      mstore\n      0x04\n      add\n      tag_89\n      swap1\n      tag_56\n      jump\t// in\n    tag_89:\n      mload(0x40)\n      dup1\n      swap2\n      sub\n      swap1\n      revert\n    tag_88:\n        /* \"contracts/thecrowd.sol\":3499:3507  campaign */\n      dup1\n        /* \"contracts/thecrowd.sol\":3499:3512  campaign.goal */\n      0x01\n      add\n      sload\n        /* \"contracts/thecrowd.sol\":3479:3487  campaign */\n      dup2\n        /* \"contracts/thecrowd.sol\":3479:3495  campaign.pledged */\n      0x02\n      add\n      sload\n        /* \"contracts/thecrowd.sol\":3479:3512  campaign.pledged >= campaign.goal */\n      lt\n      iszero\n        /* \"contracts/thecrowd.sol\":3471:3531  require(campaign.pledged >= campaign.goal, \"pledged < goal\") */\n      tag_90\n      jumpi\n      mload(0x40)\n      0x08c379a000000000000000000000000000000000000000000000000000000000\n      dup2\n      mstore\n      0x04\n      add\n      tag_91\n      swap1\n      tag_92\n      jump\t// in\n    tag_91:\n      mload(0x40)\n      dup1\n      swap2\n      sub\n      swap1\n      revert\n    tag_90:\n        /* \"contracts/thecrowd.sol\":3550:3558  campaign */\n      dup1\n        /* \"contracts/thecrowd.sol\":3550:3566  campaign.claimed */\n      0x03\n      add\n      0x08\n      swap1\n      sload\n      swap1\n      0x0100\n      exp\n      swap1\n      div\n      0xff\n      and\n        /* \"contracts/thecrowd.sol\":3549:3566  !campaign.claimed */\n      iszero\n        /* \"contracts/thecrowd.sol\":3541:3578  require(!campaign.claimed, \"claimed\") */\n      tag_93\n      jumpi\n      mload(0x40)\n      0x08c379a000000000000000000000000000000000000000000000000000000000\n      dup2\n      mstore\n      0x04\n      add\n      tag_94\n      swap1\n      tag_95\n      jump\t// in\n    tag_94:\n      mload(0x40)\n      dup1\n      swap2\n      sub\n      swap1\n      revert\n    tag_93:\n        /* \"contracts/thecrowd.sol\":3608:3612  true */\n      0x01\n        /* \"contracts/thecrowd.sol\":3589:3597  campaign */\n      dup2\n        /* \"contracts/thecrowd.sol\":3589:3605  campaign.claimed */\n      0x03\n      add\n      0x08\n        /* \"contracts/thecrowd.sol\":3589:3612  campaign.claimed = true */\n      0x0100\n      exp\n      dup2\n      sload\n      dup2\n      0xff\n      mul\n      not\n      and\n      swap1\n      dup4\n      iszero\n      iszero\n      mul\n      or\n      swap1\n      sstore\n      pop\n        /* \"contracts/thecrowd.sol\":3622:3627  token */\n      immutable(\"0x5392f7a671cdf89487ccf8e3646ea8f7570009490584962db6fa064c6e4ad499\")\n        /* \"contracts/thecrowd.sol\":3622:3636  token.transfer */\n      0xffffffffffffffffffffffffffffffffffffffff\n      and\n      0xa9059cbb\n        /* \"contracts/thecrowd.sol\":3637:3645  campaign */\n      dup3\n        /* \"contracts/thecrowd.sol\":3637:3653  campaign.creator */\n      0x00\n      add\n      0x00\n      swap1\n      sload\n      swap1\n      0x0100\n      exp\n      swap1\n      div\n      0xffffffffffffffffffffffffffffffffffffffff\n      and\n        /* \"contracts/thecrowd.sol\":3655:3663  campaign */\n      dup4\n        /* \"contracts/thecrowd.sol\":3655:3671  campaign.pledged */\n      0x02\n      add\n      sload\n        /* \"contracts/thecrowd.sol\":3622:3672  token.transfer(campaign.creator, campaign.pledged) */\n      mload(0x40)\n      dup4\n      0xffffffff\n      and\n      0xe0\n      shl\n      dup2\n      mstore\n      0x04\n      add\n      tag_96\n      swap3\n      swap2\n      swap1\n      tag_61\n      jump\t// in\n    tag_96:\n      0x20\n      mload(0x40)\n      dup1\n      dup4\n      sub\n      dup2\n      0x00\n      dup8\n      dup1\n      extcodesize\n      iszero\n      dup1\n      iszero\n      tag_97\n      jumpi\n      0x00\n      dup1\n      revert\n    tag_97:\n      pop\n      gas\n      call\n      iszero\n      dup1\n      iszero\n      tag_99\n      jumpi\n      returndatasize\n      0x00\n      dup1\n      returndatacopy\n      revert(0x00, returndatasize)\n    tag_99:\n      pop\n      pop\n      pop\n      pop\n      mload(0x40)\n      returndatasize\n      not(0x1f)\n      0x1f\n      dup3\n      add\n      and\n      dup3\n      add\n      dup1\n      0x40\n      mstore\n      pop\n      dup2\n      add\n      swap1\n      tag_100\n      swap2\n      swap1\n      tag_66\n      jump\t// in\n    tag_100:\n      pop\n        /* \"contracts/thecrowd.sol\":3688:3698  Claim(_id) */\n      0x7bb2b3c10797baccb6f8c4791f1edd6ca2f0d028ee0eda64b01a9a57e3a653f7\n        /* \"contracts/thecrowd.sol\":3694:3697  _id */\n      dup3\n        /* \"contracts/thecrowd.sol\":3688:3698  Claim(_id) */\n      mload(0x40)\n      tag_101\n      swap2\n      swap1\n      tag_17\n      jump\t// in\n    tag_101:\n      mload(0x40)\n      dup1\n      swap2\n      sub\n      swap1\n      log1\n        /* \"contracts/thecrowd.sol\":3247:3705  function claim(uint _id) external {... */\n      pop\n      pop\n      jump\t// out\n        /* \"contracts/thecrowd.sol\":2156:2435  function cancel(uint _id) external {... */\n    tag_36:\n        /* \"contracts/thecrowd.sol\":2201:2225  Campaign memory campaign */\n      0x00\n        /* \"contracts/thecrowd.sol\":2228:2237  campaigns */\n      0x01\n        /* \"contracts/thecrowd.sol\":2228:2242  campaigns[_id] */\n      0x00\n        /* \"contracts/thecrowd.sol\":2238:2241  _id */\n      dup4\n        /* \"contracts/thecrowd.sol\":2228:2242  campaigns[_id] */\n      dup2\n      mstore\n      0x20\n      add\n      swap1\n      dup2\n      mstore\n      0x20\n      add\n      0x00\n      keccak256\n        /* \"contracts/thecrowd.sol\":2201:2242  Campaign memory campaign = campaigns[_id] */\n      mload(0x40)\n      dup1\n      0xc0\n      add\n      0x40\n      mstore\n      swap1\n      dup2\n      0x00\n      dup3\n      add\n      0x00\n      swap1\n      sload\n      swap1\n      0x0100\n      exp\n      swap1\n      div\n      0xffffffffffffffffffffffffffffffffffffffff\n      and\n      0xffffffffffffffffffffffffffffffffffffffff\n      and\n      0xffffffffffffffffffffffffffffffffffffffff\n      and\n      dup2\n      mstore\n      0x20\n      add\n      0x01\n      dup3\n      add\n      sload\n      dup2\n      mstore\n      0x20\n      add\n      0x02\n      dup3\n      add\n      sload\n      dup2\n      mstore\n      0x20\n      add\n      0x03\n      dup3\n      add\n      0x00\n      swap1\n      sload\n      swap1\n      0x0100\n      exp\n      swap1\n      div\n      0xffffffff\n      and\n      0xffffffff\n      and\n      0xffffffff\n      and\n      dup2\n      mstore\n      0x20\n      add\n      0x03\n      dup3\n      add\n      0x04\n      swap1\n      sload\n      swap1\n      0x0100\n      exp\n      swap1\n      div\n      0xffffffff\n      and\n      0xffffffff\n      and\n      0xffffffff\n      and\n      dup2\n      mstore\n      0x20\n      add\n      0x03\n      dup3\n      add\n      0x08\n      swap1\n      sload\n      swap1\n      0x0100\n      exp\n      swap1\n      div\n      0xff\n      and\n      iszero\n      iszero\n      iszero\n      iszero\n      dup2\n      mstore\n      pop\n      pop\n      swap1\n      pop\n        /* \"contracts/thecrowd.sol\":2280:2290  msg.sender */\n      caller\n        /* \"contracts/thecrowd.sol\":2260:2290  campaign.creator == msg.sender */\n      0xffffffffffffffffffffffffffffffffffffffff\n      and\n        /* \"contracts/thecrowd.sol\":2260:2268  campaign */\n      dup2\n        /* \"contracts/thecrowd.sol\":2260:2276  campaign.creator */\n      0x00\n      add\n      mload\n        /* \"contracts/thecrowd.sol\":2260:2290  campaign.creator == msg.sender */\n      0xffffffffffffffffffffffffffffffffffffffff\n      and\n      eq\n        /* \"contracts/thecrowd.sol\":2252:2306  require(campaign.creator == msg.sender, \"not creator\") */\n      tag_103\n      jumpi\n      mload(0x40)\n      0x08c379a000000000000000000000000000000000000000000000000000000000\n      dup2\n      mstore\n      0x04\n      add\n      tag_104\n      swap1\n      tag_87\n      jump\t// in\n    tag_104:\n      mload(0x40)\n      dup1\n      swap2\n      sub\n      swap1\n      revert\n    tag_103:\n        /* \"contracts/thecrowd.sol\":2342:2350  campaign */\n      dup1\n        /* \"contracts/thecrowd.sol\":2342:2358  campaign.startAt */\n      0x60\n      add\n      mload\n        /* \"contracts/thecrowd.sol\":2324:2358  block.timestamp < campaign.startAt */\n      0xffffffff\n      and\n        /* \"contracts/thecrowd.sol\":2324:2339  block.timestamp */\n      timestamp\n        /* \"contracts/thecrowd.sol\":2324:2358  block.timestamp < campaign.startAt */\n      lt\n        /* \"contracts/thecrowd.sol\":2316:2370  require(block.timestamp < campaign.startAt, \"started\") */\n      tag_105\n      jumpi\n      mload(0x40)\n      0x08c379a000000000000000000000000000000000000000000000000000000000\n      dup2\n      mstore\n      0x04\n      add\n      tag_106\n      swap1\n      tag_107\n      jump\t// in\n    tag_106:\n      mload(0x40)\n      dup1\n      swap2\n      sub\n      swap1\n      revert\n    tag_105:\n        /* \"contracts/thecrowd.sol\":2388:2397  campaigns */\n      0x01\n        /* \"contracts/thecrowd.sol\":2388:2402  campaigns[_id] */\n      0x00\n        /* \"contracts/thecrowd.sol\":2398:2401  _id */\n      dup4\n        /* \"contracts/thecrowd.sol\":2388:2402  campaigns[_id] */\n      dup2\n      mstore\n      0x20\n      add\n      swap1\n      dup2\n      mstore\n      0x20\n      add\n      0x00\n      keccak256\n      0x00\n        /* \"contracts/thecrowd.sol\":2381:2402  delete campaigns[_id] */\n      dup1\n      dup3\n      add\n      exp(0x0100, 0x00)\n      dup2\n      sload\n      swap1\n      0xffffffffffffffffffffffffffffffffffffffff\n      mul\n      not\n      and\n      swap1\n      sstore\n      0x01\n      dup3\n      add\n      0x00\n      swap1\n      sstore\n      0x02\n      dup3\n      add\n      0x00\n      swap1\n      sstore\n      0x03\n      dup3\n      add\n      exp(0x0100, 0x00)\n      dup2\n      sload\n      swap1\n      0xffffffff\n      mul\n      not\n      and\n      swap1\n      sstore\n      0x03\n      dup3\n      add\n      exp(0x0100, 0x04)\n      dup2\n      sload\n      swap1\n      0xffffffff\n      mul\n      not\n      and\n      swap1\n      sstore\n      0x03\n      dup3\n      add\n      exp(0x0100, 0x08)\n      dup2\n      sload\n      swap1\n      0xff\n      mul\n      not\n      and\n      swap1\n      sstore\n      pop\n      pop\n        /* \"contracts/thecrowd.sol\":2417:2428  Cancel(_id) */\n      0x8bf30e7ff26833413be5f69e1d373744864d600b664204b4a2f9844a8eedb9ed\n        /* \"contracts/thecrowd.sol\":2424:2427  _id */\n      dup3\n        /* \"contracts/thecrowd.sol\":2417:2428  Cancel(_id) */\n      mload(0x40)\n      tag_108\n      swap2\n      swap1\n      tag_17\n      jump\t// in\n    tag_108:\n      mload(0x40)\n      dup1\n      swap2\n      sub\n      swap1\n      log1\n        /* \"contracts/thecrowd.sol\":2156:2435  function cancel(uint _id) external {... */\n      pop\n      pop\n      jump\t// out\n        /* \"contracts/thecrowd.sol\":2886:3241  function unpledge(uint _id, uint _amount) external {... */\n    tag_40:\n        /* \"contracts/thecrowd.sol\":2947:2972  Campaign storage campaign */\n      0x00\n        /* \"contracts/thecrowd.sol\":2975:2984  campaigns */\n      0x01\n        /* \"contracts/thecrowd.sol\":2975:2989  campaigns[_id] */\n      0x00\n        /* \"contracts/thecrowd.sol\":2985:2988  _id */\n      dup5\n        /* \"contracts/thecrowd.sol\":2975:2989  campaigns[_id] */\n      dup2\n      mstore\n      0x20\n      add\n      swap1\n      dup2\n      mstore\n      0x20\n      add\n      0x00\n      keccak256\n        /* \"contracts/thecrowd.sol\":2947:2989  Campaign storage campaign = campaigns[_id] */\n      swap1\n      pop\n        /* \"contracts/thecrowd.sol\":3026:3034  campaign */\n      dup1\n        /* \"contracts/thecrowd.sol\":3026:3040  campaign.endAt */\n      0x03\n      add\n      0x04\n      swap1\n      sload\n      swap1\n      0x0100\n      exp\n      swap1\n      div\n      0xffffffff\n      and\n        /* \"contracts/thecrowd.sol\":3007:3040  block.timestamp <= campaign.endAt */\n      0xffffffff\n      and\n        /* \"contracts/thecrowd.sol\":3007:3022  block.timestamp */\n      timestamp\n        /* \"contracts/thecrowd.sol\":3007:3040  block.timestamp <= campaign.endAt */\n      gt\n      iszero\n        /* \"contracts/thecrowd.sol\":2999:3050  require(block.timestamp <= campaign.endAt, \"ended\") */\n      tag_110\n      jumpi\n      mload(0x40)\n      0x08c379a000000000000000000000000000000000000000000000000000000000\n      dup2\n      mstore\n      0x04\n      add\n      tag_111\n      swap1\n      tag_112\n      jump\t// in\n    tag_111:\n      mload(0x40)\n      dup1\n      swap2\n      sub\n      swap1\n      revert\n    tag_110:\n        /* \"contracts/thecrowd.sol\":3081:3088  _amount */\n      dup2\n        /* \"contracts/thecrowd.sol\":3061:3069  campaign */\n      dup2\n        /* \"contracts/thecrowd.sol\":3061:3077  campaign.pledged */\n      0x02\n      add\n      0x00\n        /* \"contracts/thecrowd.sol\":3061:3088  campaign.pledged -= _amount */\n      dup3\n      dup3\n      sload\n      tag_113\n      swap2\n      swap1\n      tag_114\n      jump\t// in\n    tag_113:\n      swap3\n      pop\n      pop\n      dup2\n      swap1\n      sstore\n      pop\n        /* \"contracts/thecrowd.sol\":3132:3139  _amount */\n      dup2\n        /* \"contracts/thecrowd.sol\":3098:3111  pledgedAmount */\n      0x02\n        /* \"contracts/thecrowd.sol\":3098:3116  pledgedAmount[_id] */\n      0x00\n        /* \"contracts/thecrowd.sol\":3112:3115  _id */\n      dup6\n        /* \"contracts/thecrowd.sol\":3098:3116  pledgedAmount[_id] */\n      dup2\n      mstore\n      0x20\n      add\n      swap1\n      dup2\n      mstore\n      0x20\n      add\n      0x00\n      keccak256\n        /* \"contracts/thecrowd.sol\":3098:3128  pledgedAmount[_id][msg.sender] */\n      0x00\n        /* \"contracts/thecrowd.sol\":3117:3127  msg.sender */\n      caller\n        /* \"contracts/thecrowd.sol\":3098:3128  pledgedAmount[_id][msg.sender] */\n      0xffffffffffffffffffffffffffffffffffffffff\n      and\n      0xffffffffffffffffffffffffffffffffffffffff\n      and\n      dup2\n      mstore\n      0x20\n      add\n      swap1\n      dup2\n      mstore\n      0x20\n      add\n      0x00\n      keccak256\n      0x00\n        /* \"contracts/thecrowd.sol\":3098:3139  pledgedAmount[_id][msg.sender] -= _amount */\n      dup3\n      dup3\n      sload\n      tag_115\n      swap2\n      swap1\n      tag_114\n      jump\t// in\n    tag_115:\n      swap3\n      pop\n      pop\n      dup2\n      swap1\n      sstore\n      pop\n        /* \"contracts/thecrowd.sol\":3149:3154  token */\n      immutable(\"0x5392f7a671cdf89487ccf8e3646ea8f7570009490584962db6fa064c6e4ad499\")\n        /* \"contracts/thecrowd.sol\":3149:3163  token.transfer */\n      0xffffffffffffffffffffffffffffffffffffffff\n      and\n      0xa9059cbb\n        /* \"contracts/thecrowd.sol\":3164:3174  msg.sender */\n      caller\n        /* \"contracts/thecrowd.sol\":3176:3183  _amount */\n      dup5\n        /* \"contracts/thecrowd.sol\":3149:3184  token.transfer(msg.sender, _amount) */\n      mload(0x40)\n      dup4\n      0xffffffff\n      and\n      0xe0\n      shl\n      dup2\n      mstore\n      0x04\n      add\n      tag_116\n      swap3\n      swap2\n      swap1\n      tag_61\n      jump\t// in\n    tag_116:\n      0x20\n      mload(0x40)\n      dup1\n      dup4\n      sub\n      dup2\n      0x00\n      dup8\n      dup1\n      extcodesize\n      iszero\n      dup1\n      iszero\n      tag_117\n      jumpi\n      0x00\n      dup1\n      revert\n    tag_117:\n      pop\n      gas\n      call\n      iszero\n      dup1\n      iszero\n      tag_119\n      jumpi\n      returndatasize\n      0x00\n      dup1\n      returndatacopy\n      revert(0x00, returndatasize)\n    tag_119:\n      pop\n      pop\n      pop\n      pop\n      mload(0x40)\n      returndatasize\n      not(0x1f)\n      0x1f\n      dup3\n      add\n      and\n      dup3\n      add\n      dup1\n      0x40\n      mstore\n      pop\n      dup2\n      add\n      swap1\n      tag_120\n      swap2\n      swap1\n      tag_66\n      jump\t// in\n    tag_120:\n      pop\n        /* \"contracts/thecrowd.sol\":3214:3224  msg.sender */\n      caller\n        /* \"contracts/thecrowd.sol\":3200:3234  Unpledge(_id, msg.sender, _amount) */\n      0xffffffffffffffffffffffffffffffffffffffff\n      and\n        /* \"contracts/thecrowd.sol\":3209:3212  _id */\n      dup4\n        /* \"contracts/thecrowd.sol\":3200:3234  Unpledge(_id, msg.sender, _amount) */\n      0x2eeeab891b26a214d1b25749f88a406bdea852bd8c9bfda977e0ef8114c180ba\n        /* \"contracts/thecrowd.sol\":3226:3233  _amount */\n      dup5\n        /* \"contracts/thecrowd.sol\":3200:3234  Unpledge(_id, msg.sender, _amount) */\n      mload(0x40)\n      tag_121\n      swap2\n      swap1\n      tag_17\n      jump\t// in\n    tag_121:\n      mload(0x40)\n      dup1\n      swap2\n      sub\n      swap1\n      log3\n        /* \"contracts/thecrowd.sol\":2886:3241  function unpledge(uint _id, uint _amount) external {... */\n      pop\n      pop\n      pop\n      jump\t// out\n        /* \"contracts/thecrowd.sol\":1397:1459  mapping(uint => mapping(address => uint)) public pledgedAmount */\n    tag_44:\n      mstore(0x20, 0x02)\n      dup2\n      0x00\n      mstore\n      mstore(0x20, keccak256(0x00, 0x40))\n      dup1\n      0x00\n      mstore\n      keccak256(0x00, 0x40)\n      0x00\n      swap2\n      pop\n      swap2\n      pop\n      pop\n      sload\n      dup2\n      jump\t// out\n        /* \"contracts/thecrowd.sol\":1097:1126  IERC20 public immutable token */\n    tag_47:\n      immutable(\"0x5392f7a671cdf89487ccf8e3646ea8f7570009490584962db6fa064c6e4ad499\")\n      dup2\n      jump\t// out\n        /* \"contracts/thecrowd.sol\":2441:2880  function pledge(uint _id, uint _amount) external {... */\n    tag_52:\n        /* \"contracts/thecrowd.sol\":2500:2525  Campaign storage campaign */\n      0x00\n        /* \"contracts/thecrowd.sol\":2528:2537  campaigns */\n      0x01\n        /* \"contracts/thecrowd.sol\":2528:2542  campaigns[_id] */\n      0x00\n        /* \"contracts/thecrowd.sol\":2538:2541  _id */\n      dup5\n        /* \"contracts/thecrowd.sol\":2528:2542  campaigns[_id] */\n      dup2\n      mstore\n      0x20\n      add\n      swap1\n      dup2\n      mstore\n      0x20\n      add\n      0x00\n      keccak256\n        /* \"contracts/thecrowd.sol\":2500:2542  Campaign storage campaign = campaigns[_id] */\n      swap1\n      pop\n        /* \"contracts/thecrowd.sol\":2579:2587  campaign */\n      dup1\n        /* \"contracts/thecrowd.sol\":2579:2595  campaign.startAt */\n      0x03\n      add\n      0x00\n      swap1\n      sload\n      swap1\n      0x0100\n      exp\n      swap1\n      div\n      0xffffffff\n      and\n        /* \"contracts/thecrowd.sol\":2560:2595  block.timestamp >= campaign.startAt */\n      0xffffffff\n      and\n        /* \"contracts/thecrowd.sol\":2560:2575  block.timestamp */\n      timestamp\n        /* \"contracts/thecrowd.sol\":2560:2595  block.timestamp >= campaign.startAt */\n      lt\n      iszero\n        /* \"contracts/thecrowd.sol\":2552:2611  require(block.timestamp >= campaign.startAt, \"not started\") */\n      tag_123\n      jumpi\n      mload(0x40)\n      0x08c379a000000000000000000000000000000000000000000000000000000000\n      dup2\n      mstore\n      0x04\n      add\n      tag_124\n      swap1\n      tag_125\n      jump\t// in\n    tag_124:\n      mload(0x40)\n      dup1\n      swap2\n      sub\n      swap1\n      revert\n    tag_123:\n        /* \"contracts/thecrowd.sol\":2648:2656  campaign */\n      dup1\n        /* \"contracts/thecrowd.sol\":2648:2662  campaign.endAt */\n      0x03\n      add\n      0x04\n      swap1\n      sload\n      swap1\n      0x0100\n      exp\n      swap1\n      div\n      0xffffffff\n      and\n        /* \"contracts/thecrowd.sol\":2629:2662  block.timestamp <= campaign.endAt */\n      0xffffffff\n      and\n        /* \"contracts/thecrowd.sol\":2629:2644  block.timestamp */\n      timestamp\n        /* \"contracts/thecrowd.sol\":2629:2662  block.timestamp <= campaign.endAt */\n      gt\n      iszero\n        /* \"contracts/thecrowd.sol\":2621:2672  require(block.timestamp <= campaign.endAt, \"ended\") */\n      tag_126\n      jumpi\n      mload(0x40)\n      0x08c379a000000000000000000000000000000000000000000000000000000000\n      dup2\n      mstore\n      0x04\n      add\n      tag_127\n      swap1\n      tag_112\n      jump\t// in\n    tag_127:\n      mload(0x40)\n      dup1\n      swap2\n      sub\n      swap1\n      revert\n    tag_126:\n        /* \"contracts/thecrowd.sol\":2703:2710  _amount */\n      dup2\n        /* \"contracts/thecrowd.sol\":2683:2691  campaign */\n      dup2\n        /* \"contracts/thecrowd.sol\":2683:2699  campaign.pledged */\n      0x02\n      add\n      0x00\n        /* \"contracts/thecrowd.sol\":2683:2710  campaign.pledged += _amount */\n      dup3\n      dup3\n      sload\n      tag_128\n      swap2\n      swap1\n      tag_77\n      jump\t// in\n    tag_128:\n      swap3\n      pop\n      pop\n      dup2\n      swap1\n      sstore\n      pop\n        /* \"contracts/thecrowd.sol\":2754:2761  _amount */\n      dup2\n        /* \"contracts/thecrowd.sol\":2720:2733  pledgedAmount */\n      0x02\n        /* \"contracts/thecrowd.sol\":2720:2738  pledgedAmount[_id] */\n      0x00\n        /* \"contracts/thecrowd.sol\":2734:2737  _id */\n      dup6\n        /* \"contracts/thecrowd.sol\":2720:2738  pledgedAmount[_id] */\n      dup2\n      mstore\n      0x20\n      add\n      swap1\n      dup2\n      mstore\n      0x20\n      add\n      0x00\n      keccak256\n        /* \"contracts/thecrowd.sol\":2720:2750  pledgedAmount[_id][msg.sender] */\n      0x00\n        /* \"contracts/thecrowd.sol\":2739:2749  msg.sender */\n      caller\n        /* \"contracts/thecrowd.sol\":2720:2750  pledgedAmount[_id][msg.sender] */\n      0xffffffffffffffffffffffffffffffffffffffff\n      and\n      0xffffffffffffffffffffffffffffffffffffffff\n      and\n      dup2\n      mstore\n      0x20\n      add\n      swap1\n      dup2\n      mstore\n      0x20\n      add\n      0x00\n      keccak256\n      0x00\n        /* \"contracts/thecrowd.sol\":2720:2761  pledgedAmount[_id][msg.sender] += _amount */\n      dup3\n      dup3\n      sload\n      tag_129\n      swap2\n      swap1\n      tag_77\n      jump\t// in\n    tag_129:\n      swap3\n      pop\n      pop\n      dup2\n      swap1\n      sstore\n      pop\n        /* \"contracts/thecrowd.sol\":2771:2776  token */\n      immutable(\"0x5392f7a671cdf89487ccf8e3646ea8f7570009490584962db6fa064c6e4ad499\")\n        /* \"contracts/thecrowd.sol\":2771:2789  token.transferFrom */\n      0xffffffffffffffffffffffffffffffffffffffff\n      and\n      0x23b872dd\n        /* \"contracts/thecrowd.sol\":2790:2800  msg.sender */\n      caller\n        /* \"contracts/thecrowd.sol\":2810:2814  this */\n      address\n        /* \"contracts/thecrowd.sol\":2817:2824  _amount */\n      dup6\n        /* \"contracts/thecrowd.sol\":2771:2825  token.transferFrom(msg.sender, address(this), _amount) */\n      mload(0x40)\n      dup5\n      0xffffffff\n      and\n      0xe0\n      shl\n      dup2\n      mstore\n      0x04\n      add\n      tag_130\n      swap4\n      swap3\n      swap2\n      swap1\n      tag_131\n      jump\t// in\n    tag_130:\n      0x20\n      mload(0x40)\n      dup1\n      dup4\n      sub\n      dup2\n      0x00\n      dup8\n      dup1\n      extcodesize\n      iszero\n      dup1\n      iszero\n      tag_132\n      jumpi\n      0x00\n      dup1\n      revert\n    tag_132:\n      pop\n      gas\n      call\n      iszero\n      dup1\n      iszero\n      tag_134\n      jumpi\n      returndatasize\n      0x00\n      dup1\n      returndatacopy\n      revert(0x00, returndatasize)\n    tag_134:\n      pop\n      pop\n      pop\n      pop\n      mload(0x40)\n      returndatasize\n      not(0x1f)\n      0x1f\n      dup3\n      add\n      and\n      dup3\n      add\n      dup1\n      0x40\n      mstore\n      pop\n      dup2\n      add\n      swap1\n      tag_135\n      swap2\n      swap1\n      tag_66\n      jump\t// in\n    tag_135:\n      pop\n        /* \"contracts/thecrowd.sol\":2853:2863  msg.sender */\n      caller\n        /* \"contracts/thecrowd.sol\":2841:2873  Pledge(_id, msg.sender, _amount) */\n      0xffffffffffffffffffffffffffffffffffffffff\n      and\n        /* \"contracts/thecrowd.sol\":2848:2851  _id */\n      dup4\n        /* \"contracts/thecrowd.sol\":2841:2873  Pledge(_id, msg.sender, _amount) */\n      0x06bdb975df800a73232998e71ed585d536222f1dfeaa622d7f62a23ada686c82\n        /* \"contracts/thecrowd.sol\":2865:2872  _amount */\n      dup5\n        /* \"contracts/thecrowd.sol\":2841:2873  Pledge(_id, msg.sender, _amount) */\n      mload(0x40)\n      tag_136\n      swap2\n      swap1\n      tag_17\n      jump\t// in\n    tag_136:\n      mload(0x40)\n      dup1\n      swap2\n      sub\n      swap1\n      log3\n        /* \"contracts/thecrowd.sol\":2441:2880  function pledge(uint _id, uint _amount) external {... */\n      pop\n      pop\n      pop\n      jump\t// out\n        /* \"#utility.yul\":7:146   */\n    tag_138:\n      0x00\n        /* \"#utility.yul\":91:97   */\n      dup2\n        /* \"#utility.yul\":78:98   */\n      calldataload\n        /* \"#utility.yul\":69:98   */\n      swap1\n      pop\n        /* \"#utility.yul\":107:140   */\n      tag_140\n        /* \"#utility.yul\":134:139   */\n      dup2\n        /* \"#utility.yul\":107:140   */\n      tag_141\n      jump\t// in\n    tag_140:\n        /* \"#utility.yul\":59:146   */\n      swap3\n      swap2\n      pop\n      pop\n      jump\t// out\n        /* \"#utility.yul\":152:289   */\n    tag_142:\n      0x00\n        /* \"#utility.yul\":237:243   */\n      dup2\n        /* \"#utility.yul\":231:244   */\n      mload\n        /* \"#utility.yul\":222:244   */\n      swap1\n      pop\n        /* \"#utility.yul\":253:283   */\n      tag_144\n        /* \"#utility.yul\":277:282   */\n      dup2\n        /* \"#utility.yul\":253:283   */\n      tag_145\n      jump\t// in\n    tag_144:\n        /* \"#utility.yul\":212:289   */\n      swap3\n      swap2\n      pop\n      pop\n      jump\t// out\n        /* \"#utility.yul\":295:434   */\n    tag_146:\n      0x00\n        /* \"#utility.yul\":379:385   */\n      dup2\n        /* \"#utility.yul\":366:386   */\n      calldataload\n        /* \"#utility.yul\":357:386   */\n      swap1\n      pop\n        /* \"#utility.yul\":395:428   */\n      tag_148\n        /* \"#utility.yul\":422:427   */\n      dup2\n        /* \"#utility.yul\":395:428   */\n      tag_149\n      jump\t// in\n    tag_148:\n        /* \"#utility.yul\":347:434   */\n      swap3\n      swap2\n      pop\n      pop\n      jump\t// out\n        /* \"#utility.yul\":440:577   */\n    tag_150:\n      0x00\n        /* \"#utility.yul\":523:529   */\n      dup2\n        /* \"#utility.yul\":510:530   */\n      calldataload\n        /* \"#utility.yul\":501:530   */\n      swap1\n      pop\n        /* \"#utility.yul\":539:571   */\n      tag_152\n        /* \"#utility.yul\":565:570   */\n      dup2\n        /* \"#utility.yul\":539:571   */\n      tag_153\n      jump\t// in\n    tag_152:\n        /* \"#utility.yul\":491:577   */\n      swap3\n      swap2\n      pop\n      pop\n      jump\t// out\n        /* \"#utility.yul\":583:861   */\n    tag_66:\n      0x00\n        /* \"#utility.yul\":699:701   */\n      0x20\n        /* \"#utility.yul\":687:696   */\n      dup3\n        /* \"#utility.yul\":678:685   */\n      dup5\n        /* \"#utility.yul\":674:697   */\n      sub\n        /* \"#utility.yul\":670:702   */\n      slt\n        /* \"#utility.yul\":667:669   */\n      iszero\n      tag_155\n      jumpi\n        /* \"#utility.yul\":715:716   */\n      0x00\n        /* \"#utility.yul\":712:713   */\n      dup1\n        /* \"#utility.yul\":705:717   */\n      revert\n        /* \"#utility.yul\":667:669   */\n    tag_155:\n        /* \"#utility.yul\":758:759   */\n      0x00\n        /* \"#utility.yul\":783:844   */\n      tag_156\n        /* \"#utility.yul\":836:843   */\n      dup5\n        /* \"#utility.yul\":827:833   */\n      dup3\n        /* \"#utility.yul\":816:825   */\n      dup6\n        /* \"#utility.yul\":812:834   */\n      add\n        /* \"#utility.yul\":783:844   */\n      tag_142\n      jump\t// in\n    tag_156:\n        /* \"#utility.yul\":773:844   */\n      swap2\n      pop\n        /* \"#utility.yul\":729:854   */\n      pop\n        /* \"#utility.yul\":657:861   */\n      swap3\n      swap2\n      pop\n      pop\n      jump\t// out\n        /* \"#utility.yul\":867:1129   */\n    tag_20:\n      0x00\n        /* \"#utility.yul\":975:977   */\n      0x20\n        /* \"#utility.yul\":963:972   */\n      dup3\n        /* \"#utility.yul\":954:961   */\n      dup5\n        /* \"#utility.yul\":950:973   */\n      sub\n        /* \"#utility.yul\":946:978   */\n      slt\n        /* \"#utility.yul\":943:945   */\n      iszero\n      tag_158\n      jumpi\n        /* \"#utility.yul\":991:992   */\n      0x00\n        /* \"#utility.yul\":988:989   */\n      dup1\n        /* \"#utility.yul\":981:993   */\n      revert\n        /* \"#utility.yul\":943:945   */\n    tag_158:\n        /* \"#utility.yul\":1034:1035   */\n      0x00\n        /* \"#utility.yul\":1059:1112   */\n      tag_159\n        /* \"#utility.yul\":1104:1111   */\n      dup5\n        /* \"#utility.yul\":1095:1101   */\n      dup3\n        /* \"#utility.yul\":1084:1093   */\n      dup6\n        /* \"#utility.yul\":1080:1102   */\n      add\n        /* \"#utility.yul\":1059:1112   */\n      tag_146\n      jump\t// in\n    tag_159:\n        /* \"#utility.yul\":1049:1112   */\n      swap2\n      pop\n        /* \"#utility.yul\":1005:1122   */\n      pop\n        /* \"#utility.yul\":933:1129   */\n      swap3\n      swap2\n      pop\n      pop\n      jump\t// out\n        /* \"#utility.yul\":1135:1542   */\n    tag_43:\n      0x00\n      dup1\n        /* \"#utility.yul\":1260:1262   */\n      0x40\n        /* \"#utility.yul\":1248:1257   */\n      dup4\n        /* \"#utility.yul\":1239:1246   */\n      dup6\n        /* \"#utility.yul\":1235:1258   */\n      sub\n        /* \"#utility.yul\":1231:1263   */\n      slt\n        /* \"#utility.yul\":1228:1230   */\n      iszero\n      tag_161\n      jumpi\n        /* \"#utility.yul\":1276:1277   */\n      0x00\n        /* \"#utility.yul\":1273:1274   */\n      dup1\n        /* \"#utility.yul\":1266:1278   */\n      revert\n        /* \"#utility.yul\":1228:1230   */\n    tag_161:\n        /* \"#utility.yul\":1319:1320   */\n      0x00\n        /* \"#utility.yul\":1344:1397   */\n      tag_162\n        /* \"#utility.yul\":1389:1396   */\n      dup6\n        /* \"#utility.yul\":1380:1386   */\n      dup3\n        /* \"#utility.yul\":1369:1378   */\n      dup7\n        /* \"#utility.yul\":1365:1387   */\n      add\n        /* \"#utility.yul\":1344:1397   */\n      tag_146\n      jump\t// in\n    tag_162:\n        /* \"#utility.yul\":1334:1397   */\n      swap3\n      pop\n        /* \"#utility.yul\":1290:1407   */\n      pop\n        /* \"#utility.yul\":1446:1448   */\n      0x20\n        /* \"#utility.yul\":1472:1525   */\n      tag_163\n        /* \"#utility.yul\":1517:1524   */\n      dup6\n        /* \"#utility.yul\":1508:1514   */\n      dup3\n        /* \"#utility.yul\":1497:1506   */\n      dup7\n        /* \"#utility.yul\":1493:1515   */\n      add\n        /* \"#utility.yul\":1472:1525   */\n      tag_138\n      jump\t// in\n    tag_163:\n        /* \"#utility.yul\":1462:1525   */\n      swap2\n      pop\n        /* \"#utility.yul\":1417:1535   */\n      pop\n        /* \"#utility.yul\":1218:1542   */\n      swap3\n      pop\n      swap3\n      swap1\n      pop\n      jump\t// out\n        /* \"#utility.yul\":1548:1955   */\n    tag_39:\n      0x00\n      dup1\n        /* \"#utility.yul\":1673:1675   */\n      0x40\n        /* \"#utility.yul\":1661:1670   */\n      dup4\n        /* \"#utility.yul\":1652:1659   */\n      dup6\n        /* \"#utility.yul\":1648:1671   */\n      sub\n        /* \"#utility.yul\":1644:1676   */\n      slt\n        /* \"#utility.yul\":1641:1643   */\n      iszero\n      tag_165\n      jumpi\n        /* \"#utility.yul\":1689:1690   */\n      0x00\n        /* \"#utility.yul\":1686:1687   */\n      dup1\n        /* \"#utility.yul\":1679:1691   */\n      revert\n        /* \"#utility.yul\":1641:1643   */\n    tag_165:\n        /* \"#utility.yul\":1732:1733   */\n      0x00\n        /* \"#utility.yul\":1757:1810   */\n      tag_166\n        /* \"#utility.yul\":1802:1809   */\n      dup6\n        /* \"#utility.yul\":1793:1799   */\n      dup3\n        /* \"#utility.yul\":1782:1791   */\n      dup7\n        /* \"#utility.yul\":1778:1800   */\n      add\n        /* \"#utility.yul\":1757:1810   */\n      tag_146\n      jump\t// in\n    tag_166:\n        /* \"#utility.yul\":1747:1810   */\n      swap3\n      pop\n        /* \"#utility.yul\":1703:1820   */\n      pop\n        /* \"#utility.yul\":1859:1861   */\n      0x20\n        /* \"#utility.yul\":1885:1938   */\n      tag_167\n        /* \"#utility.yul\":1930:1937   */\n      dup6\n        /* \"#utility.yul\":1921:1927   */\n      dup3\n        /* \"#utility.yul\":1910:1919   */\n      dup7\n        /* \"#utility.yul\":1906:1928   */\n      add\n        /* \"#utility.yul\":1885:1938   */\n      tag_146\n      jump\t// in\n    tag_167:\n        /* \"#utility.yul\":1875:1938   */\n      swap2\n      pop\n        /* \"#utility.yul\":1830:1948   */\n      pop\n        /* \"#utility.yul\":1631:1955   */\n      swap3\n      pop\n      swap3\n      swap1\n      pop\n      jump\t// out\n        /* \"#utility.yul\":1961:2509   */\n    tag_29:\n      0x00\n      dup1\n      0x00\n        /* \"#utility.yul\":2101:2103   */\n      0x60\n        /* \"#utility.yul\":2089:2098   */\n      dup5\n        /* \"#utility.yul\":2080:2087   */\n      dup7\n        /* \"#utility.yul\":2076:2099   */\n      sub\n        /* \"#utility.yul\":2072:2104   */\n      slt\n        /* \"#utility.yul\":2069:2071   */\n      iszero\n      tag_169\n      jumpi\n        /* \"#utility.yul\":2117:2118   */\n      0x00\n        /* \"#utility.yul\":2114:2115   */\n      dup1\n        /* \"#utility.yul\":2107:2119   */\n      revert\n        /* \"#utility.yul\":2069:2071   */\n    tag_169:\n        /* \"#utility.yul\":2160:2161   */\n      0x00\n        /* \"#utility.yul\":2185:2238   */\n      tag_170\n        /* \"#utility.yul\":2230:2237   */\n      dup7\n        /* \"#utility.yul\":2221:2227   */\n      dup3\n        /* \"#utility.yul\":2210:2219   */\n      dup8\n        /* \"#utility.yul\":2206:2228   */\n      add\n        /* \"#utility.yul\":2185:2238   */\n      tag_146\n      jump\t// in\n    tag_170:\n        /* \"#utility.yul\":2175:2238   */\n      swap4\n      pop\n        /* \"#utility.yul\":2131:2248   */\n      pop\n        /* \"#utility.yul\":2287:2289   */\n      0x20\n        /* \"#utility.yul\":2313:2365   */\n      tag_171\n        /* \"#utility.yul\":2357:2364   */\n      dup7\n        /* \"#utility.yul\":2348:2354   */\n      dup3\n        /* \"#utility.yul\":2337:2346   */\n      dup8\n        /* \"#utility.yul\":2333:2355   */\n      add\n        /* \"#utility.yul\":2313:2365   */\n      tag_150\n      jump\t// in\n    tag_171:\n        /* \"#utility.yul\":2303:2365   */\n      swap3\n      pop\n        /* \"#utility.yul\":2258:2375   */\n      pop\n        /* \"#utility.yul\":2414:2416   */\n      0x40\n        /* \"#utility.yul\":2440:2492   */\n      tag_172\n        /* \"#utility.yul\":2484:2491   */\n      dup7\n        /* \"#utility.yul\":2475:2481   */\n      dup3\n        /* \"#utility.yul\":2464:2473   */\n      dup8\n        /* \"#utility.yul\":2460:2482   */\n      add\n        /* \"#utility.yul\":2440:2492   */\n      tag_150\n      jump\t// in\n    tag_172:\n        /* \"#utility.yul\":2430:2492   */\n      swap2\n      pop\n        /* \"#utility.yul\":2385:2502   */\n      pop\n        /* \"#utility.yul\":2059:2509   */\n      swap3\n      pop\n      swap3\n      pop\n      swap3\n      jump\t// out\n        /* \"#utility.yul\":2515:2633   */\n    tag_173:\n        /* \"#utility.yul\":2602:2626   */\n      tag_175\n        /* \"#utility.yul\":2620:2625   */\n      dup2\n        /* \"#utility.yul\":2602:2626   */\n      tag_176\n      jump\t// in\n    tag_175:\n        /* \"#utility.yul\":2597:2600   */\n      dup3\n        /* \"#utility.yul\":2590:2627   */\n      mstore\n        /* \"#utility.yul\":2580:2633   */\n      pop\n      pop\n      jump\t// out\n        /* \"#utility.yul\":2639:2748   */\n    tag_177:\n        /* \"#utility.yul\":2720:2741   */\n      tag_179\n        /* \"#utility.yul\":2735:2740   */\n      dup2\n        /* \"#utility.yul\":2720:2741   */\n      tag_180\n      jump\t// in\n    tag_179:\n        /* \"#utility.yul\":2715:2718   */\n      dup3\n        /* \"#utility.yul\":2708:2742   */\n      mstore\n        /* \"#utility.yul\":2698:2748   */\n      pop\n      pop\n      jump\t// out\n        /* \"#utility.yul\":2754:2911   */\n    tag_181:\n        /* \"#utility.yul\":2854:2904   */\n      tag_183\n        /* \"#utility.yul\":2898:2903   */\n      dup2\n        /* \"#utility.yul\":2854:2904   */\n      tag_184\n      jump\t// in\n    tag_183:\n        /* \"#utility.yul\":2849:2852   */\n      dup3\n        /* \"#utility.yul\":2842:2905   */\n      mstore\n        /* \"#utility.yul\":2832:2911   */\n      pop\n      pop\n      jump\t// out\n        /* \"#utility.yul\":2917:3236   */\n    tag_185:\n      0x00\n        /* \"#utility.yul\":3080:3147   */\n      tag_187\n        /* \"#utility.yul\":3144:3146   */\n      0x15\n        /* \"#utility.yul\":3139:3142   */\n      dup4\n        /* \"#utility.yul\":3080:3147   */\n      tag_188\n      jump\t// in\n    tag_187:\n        /* \"#utility.yul\":3073:3147   */\n      swap2\n      pop\n        /* \"#utility.yul\":3177:3200   */\n      0x656e64206174203e206d6178206475726174696f6e0000000000000000000000\n        /* \"#utility.yul\":3173:3174   */\n      0x00\n        /* \"#utility.yul\":3168:3171   */\n      dup4\n        /* \"#utility.yul\":3164:3175   */\n      add\n        /* \"#utility.yul\":3157:3201   */\n      mstore\n        /* \"#utility.yul\":3227:3229   */\n      0x20\n        /* \"#utility.yul\":3222:3225   */\n      dup3\n        /* \"#utility.yul\":3218:3230   */\n      add\n        /* \"#utility.yul\":3211:3230   */\n      swap1\n      pop\n        /* \"#utility.yul\":3063:3236   */\n      swap2\n      swap1\n      pop\n      jump\t// out\n        /* \"#utility.yul\":3242:3546   */\n    tag_189:\n      0x00\n        /* \"#utility.yul\":3405:3471   */\n      tag_191\n        /* \"#utility.yul\":3469:3470   */\n      0x07\n        /* \"#utility.yul\":3464:3467   */\n      dup4\n        /* \"#utility.yul\":3405:3471   */\n      tag_188\n      jump\t// in\n    tag_191:\n        /* \"#utility.yul\":3398:3471   */\n      swap2\n      pop\n        /* \"#utility.yul\":3501:3510   */\n      0x636c61696d656400000000000000000000000000000000000000000000000000\n        /* \"#utility.yul\":3497:3498   */\n      0x00\n        /* \"#utility.yul\":3492:3495   */\n      dup4\n        /* \"#utility.yul\":3488:3499   */\n      add\n        /* \"#utility.yul\":3481:3511   */\n      mstore\n        /* \"#utility.yul\":3537:3539   */\n      0x20\n        /* \"#utility.yul\":3532:3535   */\n      dup3\n        /* \"#utility.yul\":3528:3540   */\n      add\n        /* \"#utility.yul\":3521:3540   */\n      swap1\n      pop\n        /* \"#utility.yul\":3388:3546   */\n      swap2\n      swap1\n      pop\n      jump\t// out\n        /* \"#utility.yul\":3552:3867   */\n    tag_192:\n      0x00\n        /* \"#utility.yul\":3715:3782   */\n      tag_194\n        /* \"#utility.yul\":3779:3781   */\n      0x11\n        /* \"#utility.yul\":3774:3777   */\n      dup4\n        /* \"#utility.yul\":3715:3782   */\n      tag_188\n      jump\t// in\n    tag_194:\n        /* \"#utility.yul\":3708:3782   */\n      swap2\n      pop\n        /* \"#utility.yul\":3812:3831   */\n      0x656e64206174203c207374617274206174000000000000000000000000000000\n        /* \"#utility.yul\":3808:3809   */\n      0x00\n        /* \"#utility.yul\":3803:3806   */\n      dup4\n        /* \"#utility.yul\":3799:3810   */\n      add\n        /* \"#utility.yul\":3792:3832   */\n      mstore\n        /* \"#utility.yul\":3858:3860   */\n      0x20\n        /* \"#utility.yul\":3853:3856   */\n      dup3\n        /* \"#utility.yul\":3849:3861   */\n      add\n        /* \"#utility.yul\":3842:3861   */\n      swap1\n      pop\n        /* \"#utility.yul\":3698:3867   */\n      swap2\n      swap1\n      pop\n      jump\t// out\n        /* \"#utility.yul\":3873:4182   */\n    tag_195:\n      0x00\n        /* \"#utility.yul\":4036:4103   */\n      tag_197\n        /* \"#utility.yul\":4100:4102   */\n      0x0b\n        /* \"#utility.yul\":4095:4098   */\n      dup4\n        /* \"#utility.yul\":4036:4103   */\n      tag_188\n      jump\t// in\n    tag_197:\n        /* \"#utility.yul\":4029:4103   */\n      swap2\n      pop\n        /* \"#utility.yul\":4133:4146   */\n      0x6e6f742063726561746f72000000000000000000000000000000000000000000\n        /* \"#utility.yul\":4129:4130   */\n      0x00\n        /* \"#utility.yul\":4124:4127   */\n      dup4\n        /* \"#utility.yul\":4120:4131   */\n      add\n        /* \"#utility.yul\":4113:4147   */\n      mstore\n        /* \"#utility.yul\":4173:4175   */\n      0x20\n        /* \"#utility.yul\":4168:4171   */\n      dup3\n        /* \"#utility.yul\":4164:4176   */\n      add\n        /* \"#utility.yul\":4157:4176   */\n      swap1\n      pop\n        /* \"#utility.yul\":4019:4182   */\n      swap2\n      swap1\n      pop\n      jump\t// out\n        /* \"#utility.yul\":4188:4500   */\n    tag_198:\n      0x00\n        /* \"#utility.yul\":4351:4418   */\n      tag_200\n        /* \"#utility.yul\":4415:4417   */\n      0x0e\n        /* \"#utility.yul\":4410:4413   */\n      dup4\n        /* \"#utility.yul\":4351:4418   */\n      tag_188\n      jump\t// in\n    tag_200:\n        /* \"#utility.yul\":4344:4418   */\n      swap2\n      pop\n        /* \"#utility.yul\":4448:4464   */\n      0x7374617274206174203c206e6f77000000000000000000000000000000000000\n        /* \"#utility.yul\":4444:4445   */\n      0x00\n        /* \"#utility.yul\":4439:4442   */\n      dup4\n        /* \"#utility.yul\":4435:4446   */\n      add\n        /* \"#utility.yul\":4428:4465   */\n      mstore\n        /* \"#utility.yul\":4491:4493   */\n      0x20\n        /* \"#utility.yul\":4486:4489   */\n      dup3\n        /* \"#utility.yul\":4482:4494   */\n      add\n        /* \"#utility.yul\":4475:4494   */\n      swap1\n      pop\n        /* \"#utility.yul\":4334:4500   */\n      swap2\n      swap1\n      pop\n      jump\t// out\n        /* \"#utility.yul\":4506:4819   */\n    tag_201:\n      0x00\n        /* \"#utility.yul\":4669:4736   */\n      tag_203\n        /* \"#utility.yul\":4733:4735   */\n      0x0f\n        /* \"#utility.yul\":4728:4731   */\n      dup4\n        /* \"#utility.yul\":4669:4736   */\n      tag_188\n      jump\t// in\n    tag_203:\n        /* \"#utility.yul\":4662:4736   */\n      swap2\n      pop\n        /* \"#utility.yul\":4766:4783   */\n      0x706c6564676564203e3d20676f616c0000000000000000000000000000000000\n        /* \"#utility.yul\":4762:4763   */\n      0x00\n        /* \"#utility.yul\":4757:4760   */\n      dup4\n        /* \"#utility.yul\":4753:4764   */\n      add\n        /* \"#utility.yul\":4746:4784   */\n      mstore\n        /* \"#utility.yul\":4810:4812   */\n      0x20\n        /* \"#utility.yul\":4805:4808   */\n      dup3\n        /* \"#utility.yul\":4801:4813   */\n      add\n        /* \"#utility.yul\":4794:4813   */\n      swap1\n      pop\n        /* \"#utility.yul\":4652:4819   */\n      swap2\n      swap1\n      pop\n      jump\t// out\n        /* \"#utility.yul\":4825:5129   */\n    tag_204:\n      0x00\n        /* \"#utility.yul\":4988:5054   */\n      tag_206\n        /* \"#utility.yul\":5052:5053   */\n      0x07\n        /* \"#utility.yul\":5047:5050   */\n      dup4\n        /* \"#utility.yul\":4988:5054   */\n      tag_188\n      jump\t// in\n    tag_206:\n        /* \"#utility.yul\":4981:5054   */\n      swap2\n      pop\n        /* \"#utility.yul\":5084:5093   */\n      0x7374617274656400000000000000000000000000000000000000000000000000\n        /* \"#utility.yul\":5080:5081   */\n      0x00\n        /* \"#utility.yul\":5075:5078   */\n      dup4\n        /* \"#utility.yul\":5071:5082   */\n      add\n        /* \"#utility.yul\":5064:5094   */\n      mstore\n        /* \"#utility.yul\":5120:5122   */\n      0x20\n        /* \"#utility.yul\":5115:5118   */\n      dup3\n        /* \"#utility.yul\":5111:5123   */\n      add\n        /* \"#utility.yul\":5104:5123   */\n      swap1\n      pop\n        /* \"#utility.yul\":4971:5129   */\n      swap2\n      swap1\n      pop\n      jump\t// out\n        /* \"#utility.yul\":5135:5447   */\n    tag_207:\n      0x00\n        /* \"#utility.yul\":5298:5365   */\n      tag_209\n        /* \"#utility.yul\":5362:5364   */\n      0x0e\n        /* \"#utility.yul\":5357:5360   */\n      dup4\n        /* \"#utility.yul\":5298:5365   */\n      tag_188\n      jump\t// in\n    tag_209:\n        /* \"#utility.yul\":5291:5365   */\n      swap2\n      pop\n        /* \"#utility.yul\":5395:5411   */\n      0x706c6564676564203c20676f616c000000000000000000000000000000000000\n        /* \"#utility.yul\":5391:5392   */\n      0x00\n        /* \"#utility.yul\":5386:5389   */\n      dup4\n        /* \"#utility.yul\":5382:5393   */\n      add\n        /* \"#utility.yul\":5375:5412   */\n      mstore\n        /* \"#utility.yul\":5438:5440   */\n      0x20\n        /* \"#utility.yul\":5433:5436   */\n      dup3\n        /* \"#utility.yul\":5429:5441   */\n      add\n        /* \"#utility.yul\":5422:5441   */\n      swap1\n      pop\n        /* \"#utility.yul\":5281:5447   */\n      swap2\n      swap1\n      pop\n      jump\t// out\n        /* \"#utility.yul\":5453:5762   */\n    tag_210:\n      0x00\n        /* \"#utility.yul\":5616:5683   */\n      tag_212\n        /* \"#utility.yul\":5680:5682   */\n      0x0b\n        /* \"#utility.yul\":5675:5678   */\n      dup4\n        /* \"#utility.yul\":5616:5683   */\n      tag_188\n      jump\t// in\n    tag_212:\n        /* \"#utility.yul\":5609:5683   */\n      swap2\n      pop\n        /* \"#utility.yul\":5713:5726   */\n      0x6e6f742073746172746564000000000000000000000000000000000000000000\n        /* \"#utility.yul\":5709:5710   */\n      0x00\n        /* \"#utility.yul\":5704:5707   */\n      dup4\n        /* \"#utility.yul\":5700:5711   */\n      add\n        /* \"#utility.yul\":5693:5727   */\n      mstore\n        /* \"#utility.yul\":5753:5755   */\n      0x20\n        /* \"#utility.yul\":5748:5751   */\n      dup3\n        /* \"#utility.yul\":5744:5756   */\n      add\n        /* \"#utility.yul\":5737:5756   */\n      swap1\n      pop\n        /* \"#utility.yul\":5599:5762   */\n      swap2\n      swap1\n      pop\n      jump\t// out\n        /* \"#utility.yul\":5768:6070   */\n    tag_213:\n      0x00\n        /* \"#utility.yul\":5931:5997   */\n      tag_215\n        /* \"#utility.yul\":5995:5996   */\n      0x05\n        /* \"#utility.yul\":5990:5993   */\n      dup4\n        /* \"#utility.yul\":5931:5997   */\n      tag_188\n      jump\t// in\n    tag_215:\n        /* \"#utility.yul\":5924:5997   */\n      swap2\n      pop\n        /* \"#utility.yul\":6027:6034   */\n      0x656e646564000000000000000000000000000000000000000000000000000000\n        /* \"#utility.yul\":6023:6024   */\n      0x00\n        /* \"#utility.yul\":6018:6021   */\n      dup4\n        /* \"#utility.yul\":6014:6025   */\n      add\n        /* \"#utility.yul\":6007:6035   */\n      mstore\n        /* \"#utility.yul\":6061:6063   */\n      0x20\n        /* \"#utility.yul\":6056:6059   */\n      dup3\n        /* \"#utility.yul\":6052:6064   */\n      add\n        /* \"#utility.yul\":6045:6064   */\n      swap1\n      pop\n        /* \"#utility.yul\":5914:6070   */\n      swap2\n      swap1\n      pop\n      jump\t// out\n        /* \"#utility.yul\":6076:6382   */\n    tag_216:\n      0x00\n        /* \"#utility.yul\":6239:6305   */\n      tag_218\n        /* \"#utility.yul\":6303:6304   */\n      0x09\n        /* \"#utility.yul\":6298:6301   */\n      dup4\n        /* \"#utility.yul\":6239:6305   */\n      tag_188\n      jump\t// in\n    tag_218:\n        /* \"#utility.yul\":6232:6305   */\n      swap2\n      pop\n        /* \"#utility.yul\":6335:6346   */\n      0x6e6f7420656e6465640000000000000000000000000000000000000000000000\n        /* \"#utility.yul\":6331:6332   */\n      0x00\n        /* \"#utility.yul\":6326:6329   */\n      dup4\n        /* \"#utility.yul\":6322:6333   */\n      add\n        /* \"#utility.yul\":6315:6347   */\n      mstore\n        /* \"#utility.yul\":6373:6375   */\n      0x20\n        /* \"#utility.yul\":6368:6371   */\n      dup3\n        /* \"#utility.yul\":6364:6376   */\n      add\n        /* \"#utility.yul\":6357:6376   */\n      swap1\n      pop\n        /* \"#utility.yul\":6222:6382   */\n      swap2\n      swap1\n      pop\n      jump\t// out\n        /* \"#utility.yul\":6388:6506   */\n    tag_219:\n        /* \"#utility.yul\":6475:6499   */\n      tag_221\n        /* \"#utility.yul\":6493:6498   */\n      dup2\n        /* \"#utility.yul\":6475:6499   */\n      tag_222\n      jump\t// in\n    tag_221:\n        /* \"#utility.yul\":6470:6473   */\n      dup3\n        /* \"#utility.yul\":6463:6500   */\n      mstore\n        /* \"#utility.yul\":6453:6506   */\n      pop\n      pop\n      jump\t// out\n        /* \"#utility.yul\":6512:6627   */\n    tag_223:\n        /* \"#utility.yul\":6597:6620   */\n      tag_225\n        /* \"#utility.yul\":6614:6619   */\n      dup2\n        /* \"#utility.yul\":6597:6620   */\n      tag_226\n      jump\t// in\n    tag_225:\n        /* \"#utility.yul\":6592:6595   */\n      dup3\n        /* \"#utility.yul\":6585:6621   */\n      mstore\n        /* \"#utility.yul\":6575:6627   */\n      pop\n      pop\n      jump\t// out\n        /* \"#utility.yul\":6633:7075   */\n    tag_131:\n      0x00\n        /* \"#utility.yul\":6820:6822   */\n      0x60\n        /* \"#utility.yul\":6809:6818   */\n      dup3\n        /* \"#utility.yul\":6805:6823   */\n      add\n        /* \"#utility.yul\":6797:6823   */\n      swap1\n      pop\n        /* \"#utility.yul\":6833:6904   */\n      tag_228\n        /* \"#utility.yul\":6901:6902   */\n      0x00\n        /* \"#utility.yul\":6890:6899   */\n      dup4\n        /* \"#utility.yul\":6886:6903   */\n      add\n        /* \"#utility.yul\":6877:6883   */\n      dup7\n        /* \"#utility.yul\":6833:6904   */\n      tag_173\n      jump\t// in\n    tag_228:\n        /* \"#utility.yul\":6914:6986   */\n      tag_229\n        /* \"#utility.yul\":6982:6984   */\n      0x20\n        /* \"#utility.yul\":6971:6980   */\n      dup4\n        /* \"#utility.yul\":6967:6985   */\n      add\n        /* \"#utility.yul\":6958:6964   */\n      dup6\n        /* \"#utility.yul\":6914:6986   */\n      tag_173\n      jump\t// in\n    tag_229:\n        /* \"#utility.yul\":6996:7068   */\n      tag_230\n        /* \"#utility.yul\":7064:7066   */\n      0x40\n        /* \"#utility.yul\":7053:7062   */\n      dup4\n        /* \"#utility.yul\":7049:7067   */\n      add\n        /* \"#utility.yul\":7040:7046   */\n      dup5\n        /* \"#utility.yul\":6996:7068   */\n      tag_219\n      jump\t// in\n    tag_230:\n        /* \"#utility.yul\":6787:7075   */\n      swap5\n      swap4\n      pop\n      pop\n      pop\n      pop\n      jump\t// out\n        /* \"#utility.yul\":7081:7413   */\n    tag_61:\n      0x00\n        /* \"#utility.yul\":7240:7242   */\n      0x40\n        /* \"#utility.yul\":7229:7238   */\n      dup3\n        /* \"#utility.yul\":7225:7243   */\n      add\n        /* \"#utility.yul\":7217:7243   */\n      swap1\n      pop\n        /* \"#utility.yul\":7253:7324   */\n      tag_232\n        /* \"#utility.yul\":7321:7322   */\n      0x00\n        /* \"#utility.yul\":7310:7319   */\n      dup4\n        /* \"#utility.yul\":7306:7323   */\n      add\n        /* \"#utility.yul\":7297:7303   */\n      dup6\n        /* \"#utility.yul\":7253:7324   */\n      tag_173\n      jump\t// in\n    tag_232:\n        /* \"#utility.yul\":7334:7406   */\n      tag_233\n        /* \"#utility.yul\":7402:7404   */\n      0x20\n        /* \"#utility.yul\":7391:7400   */\n      dup4\n        /* \"#utility.yul\":7387:7405   */\n      add\n        /* \"#utility.yul\":7378:7384   */\n      dup5\n        /* \"#utility.yul\":7334:7406   */\n      tag_219\n      jump\t// in\n    tag_233:\n        /* \"#utility.yul\":7207:7413   */\n      swap4\n      swap3\n      pop\n      pop\n      pop\n      jump\t// out\n        /* \"#utility.yul\":7419:8174   */\n    tag_23:\n      0x00\n        /* \"#utility.yul\":7680:7683   */\n      0xc0\n        /* \"#utility.yul\":7669:7678   */\n      dup3\n        /* \"#utility.yul\":7665:7684   */\n      add\n        /* \"#utility.yul\":7657:7684   */\n      swap1\n      pop\n        /* \"#utility.yul\":7694:7765   */\n      tag_235\n        /* \"#utility.yul\":7762:7763   */\n      0x00\n        /* \"#utility.yul\":7751:7760   */\n      dup4\n        /* \"#utility.yul\":7747:7764   */\n      add\n        /* \"#utility.yul\":7738:7744   */\n      dup10\n        /* \"#utility.yul\":7694:7765   */\n      tag_173\n      jump\t// in\n    tag_235:\n        /* \"#utility.yul\":7775:7847   */\n      tag_236\n        /* \"#utility.yul\":7843:7845   */\n      0x20\n        /* \"#utility.yul\":7832:7841   */\n      dup4\n        /* \"#utility.yul\":7828:7846   */\n      add\n        /* \"#utility.yul\":7819:7825   */\n      dup9\n        /* \"#utility.yul\":7775:7847   */\n      tag_219\n      jump\t// in\n    tag_236:\n        /* \"#utility.yul\":7857:7929   */\n      tag_237\n        /* \"#utility.yul\":7925:7927   */\n      0x40\n        /* \"#utility.yul\":7914:7923   */\n      dup4\n        /* \"#utility.yul\":7910:7928   */\n      add\n        /* \"#utility.yul\":7901:7907   */\n      dup8\n        /* \"#utility.yul\":7857:7929   */\n      tag_219\n      jump\t// in\n    tag_237:\n        /* \"#utility.yul\":7939:8009   */\n      tag_238\n        /* \"#utility.yul\":8005:8007   */\n      0x60\n        /* \"#utility.yul\":7994:8003   */\n      dup4\n        /* \"#utility.yul\":7990:8008   */\n      add\n        /* \"#utility.yul\":7981:7987   */\n      dup7\n        /* \"#utility.yul\":7939:8009   */\n      tag_223\n      jump\t// in\n    tag_238:\n        /* \"#utility.yul\":8019:8090   */\n      tag_239\n        /* \"#utility.yul\":8085:8088   */\n      0x80\n        /* \"#utility.yul\":8074:8083   */\n      dup4\n        /* \"#utility.yul\":8070:8089   */\n      add\n        /* \"#utility.yul\":8061:8067   */\n      dup6\n        /* \"#utility.yul\":8019:8090   */\n      tag_223\n      jump\t// in\n    tag_239:\n        /* \"#utility.yul\":8100:8167   */\n      tag_240\n        /* \"#utility.yul\":8162:8165   */\n      0xa0\n        /* \"#utility.yul\":8151:8160   */\n      dup4\n        /* \"#utility.yul\":8147:8166   */\n      add\n        /* \"#utility.yul\":8138:8144   */\n      dup5\n        /* \"#utility.yul\":8100:8167   */\n      tag_177\n      jump\t// in\n    tag_240:\n        /* \"#utility.yul\":7647:8174   */\n      swap8\n      swap7\n      pop\n      pop\n      pop\n      pop\n      pop\n      pop\n      pop\n      jump\t// out\n        /* \"#utility.yul\":8180:8428   */\n    tag_49:\n      0x00\n        /* \"#utility.yul\":8324:8326   */\n      0x20\n        /* \"#utility.yul\":8313:8322   */\n      dup3\n        /* \"#utility.yul\":8309:8327   */\n      add\n        /* \"#utility.yul\":8301:8327   */\n      swap1\n      pop\n        /* \"#utility.yul\":8337:8421   */\n      tag_242\n        /* \"#utility.yul\":8418:8419   */\n      0x00\n        /* \"#utility.yul\":8407:8416   */\n      dup4\n        /* \"#utility.yul\":8403:8420   */\n      add\n        /* \"#utility.yul\":8394:8400   */\n      dup5\n        /* \"#utility.yul\":8337:8421   */\n      tag_181\n      jump\t// in\n    tag_242:\n        /* \"#utility.yul\":8291:8428   */\n      swap3\n      swap2\n      pop\n      pop\n      jump\t// out\n        /* \"#utility.yul\":8434:8853   */\n    tag_80:\n      0x00\n        /* \"#utility.yul\":8638:8640   */\n      0x20\n        /* \"#utility.yul\":8627:8636   */\n      dup3\n        /* \"#utility.yul\":8623:8641   */\n      add\n        /* \"#utility.yul\":8615:8641   */\n      swap1\n      pop\n        /* \"#utility.yul\":8687:8696   */\n      dup2\n        /* \"#utility.yul\":8681:8685   */\n      dup2\n        /* \"#utility.yul\":8677:8697   */\n      sub\n        /* \"#utility.yul\":8673:8674   */\n      0x00\n        /* \"#utility.yul\":8662:8671   */\n      dup4\n        /* \"#utility.yul\":8658:8675   */\n      add\n        /* \"#utility.yul\":8651:8698   */\n      mstore\n        /* \"#utility.yul\":8715:8846   */\n      tag_244\n        /* \"#utility.yul\":8841:8845   */\n      dup2\n        /* \"#utility.yul\":8715:8846   */\n      tag_185\n      jump\t// in\n    tag_244:\n        /* \"#utility.yul\":8707:8846   */\n      swap1\n      pop\n        /* \"#utility.yul\":8605:8853   */\n      swap2\n      swap1\n      pop\n      jump\t// out\n        /* \"#utility.yul\":8859:9278   */\n    tag_95:\n      0x00\n        /* \"#utility.yul\":9063:9065   */\n      0x20\n        /* \"#utility.yul\":9052:9061   */\n      dup3\n        /* \"#utility.yul\":9048:9066   */\n      add\n        /* \"#utility.yul\":9040:9066   */\n      swap1\n      pop\n        /* \"#utility.yul\":9112:9121   */\n      dup2\n        /* \"#utility.yul\":9106:9110   */\n      dup2\n        /* \"#utility.yul\":9102:9122   */\n      sub\n        /* \"#utility.yul\":9098:9099   */\n      0x00\n        /* \"#utility.yul\":9087:9096   */\n      dup4\n        /* \"#utility.yul\":9083:9100   */\n      add\n        /* \"#utility.yul\":9076:9123   */\n      mstore\n        /* \"#utility.yul\":9140:9271   */\n      tag_246\n        /* \"#utility.yul\":9266:9270   */\n      dup2\n        /* \"#utility.yul\":9140:9271   */\n      tag_189\n      jump\t// in\n    tag_246:\n        /* \"#utility.yul\":9132:9271   */\n      swap1\n      pop\n        /* \"#utility.yul\":9030:9278   */\n      swap2\n      swap1\n      pop\n      jump\t// out\n        /* \"#utility.yul\":9284:9703   */\n    tag_75:\n      0x00\n        /* \"#utility.yul\":9488:9490   */\n      0x20\n        /* \"#utility.yul\":9477:9486   */\n      dup3\n        /* \"#utility.yul\":9473:9491   */\n      add\n        /* \"#utility.yul\":9465:9491   */\n      swap1\n      pop\n        /* \"#utility.yul\":9537:9546   */\n      dup2\n        /* \"#utility.yul\":9531:9535   */\n      dup2\n        /* \"#utility.yul\":9527:9547   */\n      sub\n        /* \"#utility.yul\":9523:9524   */\n      0x00\n        /* \"#utility.yul\":9512:9521   */\n      dup4\n        /* \"#utility.yul\":9508:9525   */\n      add\n        /* \"#utility.yul\":9501:9548   */\n      mstore\n        /* \"#utility.yul\":9565:9696   */\n      tag_248\n        /* \"#utility.yul\":9691:9695   */\n      dup2\n        /* \"#utility.yul\":9565:9696   */\n      tag_192\n      jump\t// in\n    tag_248:\n        /* \"#utility.yul\":9557:9696   */\n      swap1\n      pop\n        /* \"#utility.yul\":9455:9703   */\n      swap2\n      swap1\n      pop\n      jump\t// out\n        /* \"#utility.yul\":9709:10128   */\n    tag_87:\n      0x00\n        /* \"#utility.yul\":9913:9915   */\n      0x20\n        /* \"#utility.yul\":9902:9911   */\n      dup3\n        /* \"#utility.yul\":9898:9916   */\n      add\n        /* \"#utility.yul\":9890:9916   */\n      swap1\n      pop\n        /* \"#utility.yul\":9962:9971   */\n      dup2\n        /* \"#utility.yul\":9956:9960   */\n      dup2\n        /* \"#utility.yul\":9952:9972   */\n      sub\n        /* \"#utility.yul\":9948:9949   */\n      0x00\n        /* \"#utility.yul\":9937:9946   */\n      dup4\n        /* \"#utility.yul\":9933:9950   */\n      add\n        /* \"#utility.yul\":9926:9973   */\n      mstore\n        /* \"#utility.yul\":9990:10121   */\n      tag_250\n        /* \"#utility.yul\":10116:10120   */\n      dup2\n        /* \"#utility.yul\":9990:10121   */\n      tag_195\n      jump\t// in\n    tag_250:\n        /* \"#utility.yul\":9982:10121   */\n      swap1\n      pop\n        /* \"#utility.yul\":9880:10128   */\n      swap2\n      swap1\n      pop\n      jump\t// out\n        /* \"#utility.yul\":10134:10553   */\n    tag_72:\n      0x00\n        /* \"#utility.yul\":10338:10340   */\n      0x20\n        /* \"#utility.yul\":10327:10336   */\n      dup3\n        /* \"#utility.yul\":10323:10341   */\n      add\n        /* \"#utility.yul\":10315:10341   */\n      swap1\n      pop\n        /* \"#utility.yul\":10387:10396   */\n      dup2\n        /* \"#utility.yul\":10381:10385   */\n      dup2\n        /* \"#utility.yul\":10377:10397   */\n      sub\n        /* \"#utility.yul\":10373:10374   */\n      0x00\n        /* \"#utility.yul\":10362:10371   */\n      dup4\n        /* \"#utility.yul\":10358:10375   */\n      add\n        /* \"#utility.yul\":10351:10398   */\n      mstore\n        /* \"#utility.yul\":10415:10546   */\n      tag_252\n        /* \"#utility.yul\":10541:10545   */\n      dup2\n        /* \"#utility.yul\":10415:10546   */\n      tag_198\n      jump\t// in\n    tag_252:\n        /* \"#utility.yul\":10407:10546   */\n      swap1\n      pop\n        /* \"#utility.yul\":10305:10553   */\n      swap2\n      swap1\n      pop\n      jump\t// out\n        /* \"#utility.yul\":10559:10978   */\n    tag_59:\n      0x00\n        /* \"#utility.yul\":10763:10765   */\n      0x20\n        /* \"#utility.yul\":10752:10761   */\n      dup3\n        /* \"#utility.yul\":10748:10766   */\n      add\n        /* \"#utility.yul\":10740:10766   */\n      swap1\n      pop\n        /* \"#utility.yul\":10812:10821   */\n      dup2\n        /* \"#utility.yul\":10806:10810   */\n      dup2\n        /* \"#utility.yul\":10802:10822   */\n      sub\n        /* \"#utility.yul\":10798:10799   */\n      0x00\n        /* \"#utility.yul\":10787:10796   */\n      dup4\n        /* \"#utility.yul\":10783:10800   */\n      add\n        /* \"#utility.yul\":10776:10823   */\n      mstore\n        /* \"#utility.yul\":10840:10971   */\n      tag_254\n        /* \"#utility.yul\":10966:10970   */\n      dup2\n        /* \"#utility.yul\":10840:10971   */\n      tag_201\n      jump\t// in\n    tag_254:\n        /* \"#utility.yul\":10832:10971   */\n      swap1\n      pop\n        /* \"#utility.yul\":10730:10978   */\n      swap2\n      swap1\n      pop\n      jump\t// out\n        /* \"#utility.yul\":10984:11403   */\n    tag_107:\n      0x00\n        /* \"#utility.yul\":11188:11190   */\n      0x20\n        /* \"#utility.yul\":11177:11186   */\n      dup3\n        /* \"#utility.yul\":11173:11191   */\n      add\n        /* \"#utility.yul\":11165:11191   */\n      swap1\n      pop\n        /* \"#utility.yul\":11237:11246   */\n      dup2\n        /* \"#utility.yul\":11231:11235   */\n      dup2\n        /* \"#utility.yul\":11227:11247   */\n      sub\n        /* \"#utility.yul\":11223:11224   */\n      0x00\n        /* \"#utility.yul\":11212:11221   */\n      dup4\n        /* \"#utility.yul\":11208:11225   */\n      add\n        /* \"#utility.yul\":11201:11248   */\n      mstore\n        /* \"#utility.yul\":11265:11396   */\n      tag_256\n        /* \"#utility.yul\":11391:11395   */\n      dup2\n        /* \"#utility.yul\":11265:11396   */\n      tag_204\n      jump\t// in\n    tag_256:\n        /* \"#utility.yul\":11257:11396   */\n      swap1\n      pop\n        /* \"#utility.yul\":11155:11403   */\n      swap2\n      swap1\n      pop\n      jump\t// out\n        /* \"#utility.yul\":11409:11828   */\n    tag_92:\n      0x00\n        /* \"#utility.yul\":11613:11615   */\n      0x20\n        /* \"#utility.yul\":11602:11611   */\n      dup3\n        /* \"#utility.yul\":11598:11616   */\n      add\n        /* \"#utility.yul\":11590:11616   */\n      swap1\n      pop\n        /* \"#utility.yul\":11662:11671   */\n      dup2\n        /* \"#utility.yul\":11656:11660   */\n      dup2\n        /* \"#utility.yul\":11652:11672   */\n      sub\n        /* \"#utility.yul\":11648:11649   */\n      0x00\n        /* \"#utility.yul\":11637:11646   */\n      dup4\n        /* \"#utility.yul\":11633:11650   */\n      add\n        /* \"#utility.yul\":11626:11673   */\n      mstore\n        /* \"#utility.yul\":11690:11821   */\n      tag_258\n        /* \"#utility.yul\":11816:11820   */\n      dup2\n        /* \"#utility.yul\":11690:11821   */\n      tag_207\n      jump\t// in\n    tag_258:\n        /* \"#utility.yul\":11682:11821   */\n      swap1\n      pop\n        /* \"#utility.yul\":11580:11828   */\n      swap2\n      swap1\n      pop\n      jump\t// out\n        /* \"#utility.yul\":11834:12253   */\n    tag_125:\n      0x00\n        /* \"#utility.yul\":12038:12040   */\n      0x20\n        /* \"#utility.yul\":12027:12036   */\n      dup3\n        /* \"#utility.yul\":12023:12041   */\n      add\n        /* \"#utility.yul\":12015:12041   */\n      swap1\n      pop\n        /* \"#utility.yul\":12087:12096   */\n      dup2\n        /* \"#utility.yul\":12081:12085   */\n      dup2\n        /* \"#utility.yul\":12077:12097   */\n      sub\n        /* \"#utility.yul\":12073:12074   */\n      0x00\n        /* \"#utility.yul\":12062:12071   */\n      dup4\n        /* \"#utility.yul\":12058:12075   */\n      add\n        /* \"#utility.yul\":12051:12098   */\n      mstore\n        /* \"#utility.yul\":12115:12246   */\n      tag_260\n        /* \"#utility.yul\":12241:12245   */\n      dup2\n        /* \"#utility.yul\":12115:12246   */\n      tag_210\n      jump\t// in\n    tag_260:\n        /* \"#utility.yul\":12107:12246   */\n      swap1\n      pop\n        /* \"#utility.yul\":12005:12253   */\n      swap2\n      swap1\n      pop\n      jump\t// out\n        /* \"#utility.yul\":12259:12678   */\n    tag_112:\n      0x00\n        /* \"#utility.yul\":12463:12465   */\n      0x20\n        /* \"#utility.yul\":12452:12461   */\n      dup3\n        /* \"#utility.yul\":12448:12466   */\n      add\n        /* \"#utility.yul\":12440:12466   */\n      swap1\n      pop\n        /* \"#utility.yul\":12512:12521   */\n      dup2\n        /* \"#utility.yul\":12506:12510   */\n      dup2\n        /* \"#utility.yul\":12502:12522   */\n      sub\n        /* \"#utility.yul\":12498:12499   */\n      0x00\n        /* \"#utility.yul\":12487:12496   */\n      dup4\n        /* \"#utility.yul\":12483:12500   */\n      add\n        /* \"#utility.yul\":12476:12523   */\n      mstore\n        /* \"#utility.yul\":12540:12671   */\n      tag_262\n        /* \"#utility.yul\":12666:12670   */\n      dup2\n        /* \"#utility.yul\":12540:12671   */\n      tag_213\n      jump\t// in\n    tag_262:\n        /* \"#utility.yul\":12532:12671   */\n      swap1\n      pop\n        /* \"#utility.yul\":12430:12678   */\n      swap2\n      swap1\n      pop\n      jump\t// out\n        /* \"#utility.yul\":12684:13103   */\n    tag_56:\n      0x00\n        /* \"#utility.yul\":12888:12890   */\n      0x20\n        /* \"#utility.yul\":12877:12886   */\n      dup3\n        /* \"#utility.yul\":12873:12891   */\n      add\n        /* \"#utility.yul\":12865:12891   */\n      swap1\n      pop\n        /* \"#utility.yul\":12937:12946   */\n      dup2\n        /* \"#utility.yul\":12931:12935   */\n      dup2\n        /* \"#utility.yul\":12927:12947   */\n      sub\n        /* \"#utility.yul\":12923:12924   */\n      0x00\n        /* \"#utility.yul\":12912:12921   */\n      dup4\n        /* \"#utility.yul\":12908:12925   */\n      add\n        /* \"#utility.yul\":12901:12948   */\n      mstore\n        /* \"#utility.yul\":12965:13096   */\n      tag_264\n        /* \"#utility.yul\":13091:13095   */\n      dup2\n        /* \"#utility.yul\":12965:13096   */\n      tag_216\n      jump\t// in\n    tag_264:\n        /* \"#utility.yul\":12957:13096   */\n      swap1\n      pop\n        /* \"#utility.yul\":12855:13103   */\n      swap2\n      swap1\n      pop\n      jump\t// out\n        /* \"#utility.yul\":13109:13331   */\n    tag_17:\n      0x00\n        /* \"#utility.yul\":13240:13242   */\n      0x20\n        /* \"#utility.yul\":13229:13238   */\n      dup3\n        /* \"#utility.yul\":13225:13243   */\n      add\n        /* \"#utility.yul\":13217:13243   */\n      swap1\n      pop\n        /* \"#utility.yul\":13253:13324   */\n      tag_266\n        /* \"#utility.yul\":13321:13322   */\n      0x00\n        /* \"#utility.yul\":13310:13319   */\n      dup4\n        /* \"#utility.yul\":13306:13323   */\n      add\n        /* \"#utility.yul\":13297:13303   */\n      dup5\n        /* \"#utility.yul\":13253:13324   */\n      tag_219\n      jump\t// in\n    tag_266:\n        /* \"#utility.yul\":13207:13331   */\n      swap3\n      swap2\n      pop\n      pop\n      jump\t// out\n        /* \"#utility.yul\":13337:13669   */\n    tag_68:\n      0x00\n        /* \"#utility.yul\":13496:13498   */\n      0x40\n        /* \"#utility.yul\":13485:13494   */\n      dup3\n        /* \"#utility.yul\":13481:13499   */\n      add\n        /* \"#utility.yul\":13473:13499   */\n      swap1\n      pop\n        /* \"#utility.yul\":13509:13580   */\n      tag_268\n        /* \"#utility.yul\":13577:13578   */\n      0x00\n        /* \"#utility.yul\":13566:13575   */\n      dup4\n        /* \"#utility.yul\":13562:13579   */\n      add\n        /* \"#utility.yul\":13553:13559   */\n      dup6\n        /* \"#utility.yul\":13509:13580   */\n      tag_219\n      jump\t// in\n    tag_268:\n        /* \"#utility.yul\":13590:13662   */\n      tag_269\n        /* \"#utility.yul\":13658:13660   */\n      0x20\n        /* \"#utility.yul\":13647:13656   */\n      dup4\n        /* \"#utility.yul\":13643:13661   */\n      add\n        /* \"#utility.yul\":13634:13640   */\n      dup5\n        /* \"#utility.yul\":13590:13662   */\n      tag_219\n      jump\t// in\n    tag_269:\n        /* \"#utility.yul\":13463:13669   */\n      swap4\n      swap3\n      pop\n      pop\n      pop\n      jump\t// out\n        /* \"#utility.yul\":13675:14220   */\n    tag_83:\n      0x00\n        /* \"#utility.yul\":13886:13889   */\n      0x80\n        /* \"#utility.yul\":13875:13884   */\n      dup3\n        /* \"#utility.yul\":13871:13890   */\n      add\n        /* \"#utility.yul\":13863:13890   */\n      swap1\n      pop\n        /* \"#utility.yul\":13900:13971   */\n      tag_271\n        /* \"#utility.yul\":13968:13969   */\n      0x00\n        /* \"#utility.yul\":13957:13966   */\n      dup4\n        /* \"#utility.yul\":13953:13970   */\n      add\n        /* \"#utility.yul\":13944:13950   */\n      dup8\n        /* \"#utility.yul\":13900:13971   */\n      tag_219\n      jump\t// in\n    tag_271:\n        /* \"#utility.yul\":13981:14053   */\n      tag_272\n        /* \"#utility.yul\":14049:14051   */\n      0x20\n        /* \"#utility.yul\":14038:14047   */\n      dup4\n        /* \"#utility.yul\":14034:14052   */\n      add\n        /* \"#utility.yul\":14025:14031   */\n      dup7\n        /* \"#utility.yul\":13981:14053   */\n      tag_219\n      jump\t// in\n    tag_272:\n        /* \"#utility.yul\":14063:14133   */\n      tag_273\n        /* \"#utility.yul\":14129:14131   */\n      0x40\n        /* \"#utility.yul\":14118:14127   */\n      dup4\n        /* \"#utility.yul\":14114:14132   */\n      add\n        /* \"#utility.yul\":14105:14111   */\n      dup6\n        /* \"#utility.yul\":14063:14133   */\n      tag_223\n      jump\t// in\n    tag_273:\n        /* \"#utility.yul\":14143:14213   */\n      tag_274\n        /* \"#utility.yul\":14209:14211   */\n      0x60\n        /* \"#utility.yul\":14198:14207   */\n      dup4\n        /* \"#utility.yul\":14194:14212   */\n      add\n        /* \"#utility.yul\":14185:14191   */\n      dup5\n        /* \"#utility.yul\":14143:14213   */\n      tag_223\n      jump\t// in\n    tag_274:\n        /* \"#utility.yul\":13853:14220   */\n      swap6\n      swap5\n      pop\n      pop\n      pop\n      pop\n      pop\n      jump\t// out\n        /* \"#utility.yul\":14226:14395   */\n    tag_188:\n      0x00\n        /* \"#utility.yul\":14344:14350   */\n      dup3\n        /* \"#utility.yul\":14339:14342   */\n      dup3\n        /* \"#utility.yul\":14332:14351   */\n      mstore\n        /* \"#utility.yul\":14384:14388   */\n      0x20\n        /* \"#utility.yul\":14379:14382   */\n      dup3\n        /* \"#utility.yul\":14375:14389   */\n      add\n        /* \"#utility.yul\":14360:14389   */\n      swap1\n      pop\n        /* \"#utility.yul\":14322:14395   */\n      swap3\n      swap2\n      pop\n      pop\n      jump\t// out\n        /* \"#utility.yul\":14401:14706   */\n    tag_77:\n      0x00\n        /* \"#utility.yul\":14460:14480   */\n      tag_277\n        /* \"#utility.yul\":14478:14479   */\n      dup3\n        /* \"#utility.yul\":14460:14480   */\n      tag_222\n      jump\t// in\n    tag_277:\n        /* \"#utility.yul\":14455:14480   */\n      swap2\n      pop\n        /* \"#utility.yul\":14494:14514   */\n      tag_278\n        /* \"#utility.yul\":14512:14513   */\n      dup4\n        /* \"#utility.yul\":14494:14514   */\n      tag_222\n      jump\t// in\n    tag_278:\n        /* \"#utility.yul\":14489:14514   */\n      swap3\n      pop\n        /* \"#utility.yul\":14648:14649   */\n      dup3\n        /* \"#utility.yul\":14580:14646   */\n      0xffffffffffffffffffffffffffffffffffffffffffffffffffffffffffffffff\n        /* \"#utility.yul\":14576:14650   */\n      sub\n        /* \"#utility.yul\":14573:14574   */\n      dup3\n        /* \"#utility.yul\":14570:14651   */\n      gt\n        /* \"#utility.yul\":14567:14569   */\n      iszero\n      tag_279\n      jumpi\n        /* \"#utility.yul\":14654:14672   */\n      tag_280\n      tag_281\n      jump\t// in\n    tag_280:\n        /* \"#utility.yul\":14567:14569   */\n    tag_279:\n        /* \"#utility.yul\":14698:14699   */\n      dup3\n        /* \"#utility.yul\":14695:14696   */\n      dup3\n        /* \"#utility.yul\":14691:14700   */\n      add\n        /* \"#utility.yul\":14684:14700   */\n      swap1\n      pop\n        /* \"#utility.yul\":14445:14706   */\n      swap3\n      swap2\n      pop\n      pop\n      jump\t// out\n        /* \"#utility.yul\":14712:14903   */\n    tag_114:\n      0x00\n        /* \"#utility.yul\":14772:14792   */\n      tag_283\n        /* \"#utility.yul\":14790:14791   */\n      dup3\n        /* \"#utility.yul\":14772:14792   */\n      tag_222\n      jump\t// in\n    tag_283:\n        /* \"#utility.yul\":14767:14792   */\n      swap2\n      pop\n        /* \"#utility.yul\":14806:14826   */\n      tag_284\n        /* \"#utility.yul\":14824:14825   */\n      dup4\n        /* \"#utility.yul\":14806:14826   */\n      tag_222\n      jump\t// in\n    tag_284:\n        /* \"#utility.yul\":14801:14826   */\n      swap3\n      pop\n        /* \"#utility.yul\":14845:14846   */\n      dup3\n        /* \"#utility.yul\":14842:14843   */\n      dup3\n        /* \"#utility.yul\":14839:14847   */\n      lt\n        /* \"#utility.yul\":14836:14838   */\n      iszero\n      tag_285\n      jumpi\n        /* \"#utility.yul\":14850:14868   */\n      tag_286\n      tag_281\n      jump\t// in\n    tag_286:\n        /* \"#utility.yul\":14836:14838   */\n    tag_285:\n        /* \"#utility.yul\":14895:14896   */\n      dup3\n        /* \"#utility.yul\":14892:14893   */\n      dup3\n        /* \"#utility.yul\":14888:14897   */\n      sub\n        /* \"#utility.yul\":14880:14897   */\n      swap1\n      pop\n        /* \"#utility.yul\":14757:14903   */\n      swap3\n      swap2\n      pop\n      pop\n      jump\t// out\n        /* \"#utility.yul\":14909:15005   */\n    tag_176:\n      0x00\n        /* \"#utility.yul\":14975:14999   */\n      tag_288\n        /* \"#utility.yul\":14993:14998   */\n      dup3\n        /* \"#utility.yul\":14975:14999   */\n      tag_289\n      jump\t// in\n    tag_288:\n        /* \"#utility.yul\":14964:14999   */\n      swap1\n      pop\n        /* \"#utility.yul\":14954:15005   */\n      swap2\n      swap1\n      pop\n      jump\t// out\n        /* \"#utility.yul\":15011:15101   */\n    tag_180:\n      0x00\n        /* \"#utility.yul\":15088:15093   */\n      dup2\n        /* \"#utility.yul\":15081:15094   */\n      iszero\n        /* \"#utility.yul\":15074:15095   */\n      iszero\n        /* \"#utility.yul\":15063:15095   */\n      swap1\n      pop\n        /* \"#utility.yul\":15053:15101   */\n      swap2\n      swap1\n      pop\n      jump\t// out\n        /* \"#utility.yul\":15107:15233   */\n    tag_289:\n      0x00\n        /* \"#utility.yul\":15184:15226   */\n      0xffffffffffffffffffffffffffffffffffffffff\n        /* \"#utility.yul\":15177:15182   */\n      dup3\n        /* \"#utility.yul\":15173:15227   */\n      and\n        /* \"#utility.yul\":15162:15227   */\n      swap1\n      pop\n        /* \"#utility.yul\":15152:15233   */\n      swap2\n      swap1\n      pop\n      jump\t// out\n        /* \"#utility.yul\":15239:15316   */\n    tag_222:\n      0x00\n        /* \"#utility.yul\":15305:15310   */\n      dup2\n        /* \"#utility.yul\":15294:15310   */\n      swap1\n      pop\n        /* \"#utility.yul\":15284:15316   */\n      swap2\n      swap1\n      pop\n      jump\t// out\n        /* \"#utility.yul\":15322:15415   */\n    tag_226:\n      0x00\n        /* \"#utility.yul\":15398:15408   */\n      0xffffffff\n        /* \"#utility.yul\":15391:15396   */\n      dup3\n        /* \"#utility.yul\":15387:15409   */\n      and\n        /* \"#utility.yul\":15376:15409   */\n      swap1\n      pop\n        /* \"#utility.yul\":15366:15415   */\n      swap2\n      swap1\n      pop\n      jump\t// out\n        /* \"#utility.yul\":15421:15573   */\n    tag_184:\n      0x00\n        /* \"#utility.yul\":15517:15567   */\n      tag_295\n        /* \"#utility.yul\":15561:15566   */\n      dup3\n        /* \"#utility.yul\":15517:15567   */\n      tag_296\n      jump\t// in\n    tag_295:\n        /* \"#utility.yul\":15504:15567   */\n      swap1\n      pop\n        /* \"#utility.yul\":15494:15573   */\n      swap2\n      swap1\n      pop\n      jump\t// out\n        /* \"#utility.yul\":15579:15705   */\n    tag_296:\n      0x00\n        /* \"#utility.yul\":15675:15699   */\n      tag_298\n        /* \"#utility.yul\":15693:15698   */\n      dup3\n        /* \"#utility.yul\":15675:15699   */\n      tag_289\n      jump\t// in\n    tag_298:\n        /* \"#utility.yul\":15662:15699   */\n      swap1\n      pop\n        /* \"#utility.yul\":15652:15705   */\n      swap2\n      swap1\n      pop\n      jump\t// out\n        /* \"#utility.yul\":15711:15891   */\n    tag_281:\n        /* \"#utility.yul\":15759:15836   */\n      0x4e487b7100000000000000000000000000000000000000000000000000000000\n        /* \"#utility.yul\":15756:15757   */\n      0x00\n        /* \"#utility.yul\":15749:15837   */\n      mstore\n        /* \"#utility.yul\":15856:15860   */\n      0x11\n        /* \"#utility.yul\":15853:15854   */\n      0x04\n        /* \"#utility.yul\":15846:15861   */\n      mstore\n        /* \"#utility.yul\":15880:15884   */\n      0x24\n        /* \"#utility.yul\":15877:15878   */\n      0x00\n        /* \"#utility.yul\":15870:15885   */\n      revert\n        /* \"#utility.yul\":15897:16019   */\n    tag_141:\n        /* \"#utility.yul\":15970:15994   */\n      tag_301\n        /* \"#utility.yul\":15988:15993   */\n      dup2\n        /* \"#utility.yul\":15970:15994   */\n      tag_176\n      jump\t// in\n    tag_301:\n        /* \"#utility.yul\":15963:15968   */\n      dup2\n        /* \"#utility.yul\":15960:15995   */\n      eq\n        /* \"#utility.yul\":15950:15952   */\n      tag_302\n      jumpi\n        /* \"#utility.yul\":16009:16010   */\n      0x00\n        /* \"#utility.yul\":16006:16007   */\n      dup1\n        /* \"#utility.yul\":15999:16011   */\n      revert\n        /* \"#utility.yul\":15950:15952   */\n    tag_302:\n        /* \"#utility.yul\":15940:16019   */\n      pop\n      jump\t// out\n        /* \"#utility.yul\":16025:16141   */\n    tag_145:\n        /* \"#utility.yul\":16095:16116   */\n      tag_304\n        /* \"#utility.yul\":16110:16115   */\n      dup2\n        /* \"#utility.yul\":16095:16116   */\n      tag_180\n      jump\t// in\n    tag_304:\n        /* \"#utility.yul\":16088:16093   */\n      dup2\n        /* \"#utility.yul\":16085:16117   */\n      eq\n        /* \"#utility.yul\":16075:16077   */\n      tag_305\n      jumpi\n        /* \"#utility.yul\":16131:16132   */\n      0x00\n        /* \"#utility.yul\":16128:16129   */\n      dup1\n        /* \"#utility.yul\":16121:16133   */\n      revert\n        /* \"#utility.yul\":16075:16077   */\n    tag_305:\n        /* \"#utility.yul\":16065:16141   */\n      pop\n      jump\t// out\n        /* \"#utility.yul\":16147:16269   */\n    tag_149:\n        /* \"#utility.yul\":16220:16244   */\n      tag_307\n        /* \"#utility.yul\":16238:16243   */\n      dup2\n        /* \"#utility.yul\":16220:16244   */\n      tag_222\n      jump\t// in\n    tag_307:\n        /* \"#utility.yul\":16213:16218   */\n      dup2\n        /* \"#utility.yul\":16210:16245   */\n      eq\n        /* \"#utility.yul\":16200:16202   */\n      tag_308\n      jumpi\n        /* \"#utility.yul\":16259:16260   */\n      0x00\n        /* \"#utility.yul\":16256:16257   */\n      dup1\n        /* \"#utility.yul\":16249:16261   */\n      revert\n        /* \"#utility.yul\":16200:16202   */\n    tag_308:\n        /* \"#utility.yul\":16190:16269   */\n      pop\n      jump\t// out\n        /* \"#utility.yul\":16275:16395   */\n    tag_153:\n        /* \"#utility.yul\":16347:16370   */\n      tag_310\n        /* \"#utility.yul\":16364:16369   */\n      dup2\n        /* \"#utility.yul\":16347:16370   */\n      tag_226\n      jump\t// in\n    tag_310:\n        /* \"#utility.yul\":16340:16345   */\n      dup2\n        /* \"#utility.yul\":16337:16371   */\n      eq\n        /* \"#utility.yul\":16327:16329   */\n      tag_311\n      jumpi\n        /* \"#utility.yul\":16385:16386   */\n      0x00\n        /* \"#utility.yul\":16382:16383   */\n      dup1\n        /* \"#utility.yul\":16375:16387   */\n      revert\n        /* \"#utility.yul\":16327:16329   */\n    tag_311:\n        /* \"#utility.yul\":16317:16395   */\n      pop\n      jump\t// out\n\n    auxdata: 0xa2646970667358221220d8d53cf3a836b87b9c2255684e7d59eddfeb51eb6cea4d4f2baee307a361de7e64736f6c63430008000033\n}\n",
				"bytecode": {
					"linkReferences": {},
					"object": "60a06040523480156200001157600080fd5b5060405162001c8138038062001c8183398181016040528101906200003791906200008c565b8073ffffffffffffffffffffffffffffffffffffffff1660808173ffffffffffffffffffffffffffffffffffffffff1660601b815250505062000106565b6000815190506200008681620000ec565b92915050565b6000602082840312156200009f57600080fd5b6000620000af8482850162000075565b91505092915050565b6000620000c582620000cc565b9050919050565b600073ffffffffffffffffffffffffffffffffffffffff82169050919050565b620000f781620000b8565b81146200010357600080fd5b50565b60805160601c611b4062000141600039600081816104b101528181610a0901528181610e8b01528181610fb201526111290152611b406000f3fe608060405234801561001057600080fd5b506004361061009e5760003560e01c806340e58ee51161006657806340e58ee51461014a578063711853ab14610166578063aa4fb63a14610182578063fc0c546a146101b2578063fde327be146101d05761009e565b806306661abd146100a3578063141961bc146100c1578063278ecde1146100f65780632c63f14614610112578063379607f51461012e575b600080fd5b6100ab6101ec565b6040516100b891906118df565b60405180910390f35b6100db60048036038101906100d691906112a8565b6101f2565b6040516100ed96959493929190611703565b60405180910390f35b610110600480360381019061010b91906112a8565b61027b565b005b61012c60048036038101906101279190611349565b6105b2565b005b610148600480360381019061014391906112a8565b610848565b005b610164600480360381019061015f91906112a8565b610b18565b005b610180600480360381019061017b919061130d565b610d93565b005b61019c600480360381019061019791906112d1565b610f8b565b6040516101a991906118df565b60405180910390f35b6101ba610fb0565b6040516101c79190611764565b60405180910390f35b6101ea60048036038101906101e5919061130d565b610fd4565b005b60005481565b60016020528060005260406000206000915090508060000160009054906101000a900473ffffffffffffffffffffffffffffffffffffffff16908060010154908060020154908060030160009054906101000a900463ffffffff16908060030160049054906101000a900463ffffffff16908060030160089054906101000a900460ff16905086565b6000600160008381526020019081526020016000206040518060c00160405290816000820160009054906101000a900473ffffffffffffffffffffffffffffffffffffffff1673ffffffffffffffffffffffffffffffffffffffff1673ffffffffffffffffffffffffffffffffffffffff16815260200160018201548152602001600282015481526020016003820160009054906101000a900463ffffffff1663ffffffff1663ffffffff1681526020016003820160049054906101000a900463ffffffff1663ffffffff1663ffffffff1681526020016003820160089054906101000a900460ff1615151515815250509050806080015163ffffffff1642116103ba576040517f08c379a00000000000000000000000000000000000000000000000000000000081526004016103b1906118bf565b60405180910390fd5b8060200151816040015110610404576040517f08c379a00000000000000000000000000000000000000000000000000000000081526004016103fb9061181f565b60405180910390fd5b60006002600084815260200190815260200160002060003373ffffffffffffffffffffffffffffffffffffffff1673ffffffffffffffffffffffffffffffffffffffff16815260200190815260200160002054905060006002600085815260200190815260200160002060003373ffffffffffffffffffffffffffffffffffffffff1673ffffffffffffffffffffffffffffffffffffffff168152602001908152602001600020819055507f000000000000000000000000000000000000000000000000000000000000000073ffffffffffffffffffffffffffffffffffffffff1663a9059cbb33836040518363ffffffff1660e01b815260040161050a9291906116da565b602060405180830381600087803b15801561052457600080fd5b505af1158015610538573d6000803e3d6000fd5b505050506040513d601f19601f8201168201806040525081019061055c919061127f565b503373ffffffffffffffffffffffffffffffffffffffff167f21e12a7cad0da5928167e1084ea4d5fdf8d9af66657a2543a9ac76a0ca08147784836040516105a59291906118fa565b60405180910390a2505050565b428263ffffffff1610156105fb576040517f08c379a00000000000000000000000000000000000000000000000000000000081526004016105f2906117ff565b60405180910390fd5b8163ffffffff168163ffffffff16101561064a576040517f08c379a0000000000000000000000000000000000000000000000000000000008152600401610641906117bf565b60405180910390fd5b6276a700426106599190611979565b8163ffffffff1611156106a1576040517f08c379a00000000000000000000000000000000000000000000000000000000081526004016106989061177f565b60405180910390fd5b60016000808282546106b39190611979565b925050819055506040518060c001604052803373ffffffffffffffffffffffffffffffffffffffff168152602001848152602001600081526020018363ffffffff1681526020018263ffffffff16815260200160001515815250600160008054815260200190815260200160002060008201518160000160006101000a81548173ffffffffffffffffffffffffffffffffffffffff021916908373ffffffffffffffffffffffffffffffffffffffff160217905550602082015181600101556040820151816002015560608201518160030160006101000a81548163ffffffff021916908363ffffffff16021790555060808201518160030160046101000a81548163ffffffff021916908363ffffffff16021790555060a08201518160030160086101000a81548160ff0219169083151502179055509050503373ffffffffffffffffffffffffffffffffffffffff167f0601cd0d650b473037e838a2696d41e654433d065b3f56b28d1d3302e44a304f60005485858560405161083b9493929190611923565b60405180910390a2505050565b60006001600083815260200190815260200160002090503373ffffffffffffffffffffffffffffffffffffffff168160000160009054906101000a900473ffffffffffffffffffffffffffffffffffffffff1673ffffffffffffffffffffffffffffffffffffffff16146108f1576040517f08c379a00000000000000000000000000000000000000000000000000000000081526004016108e8906117df565b60405180910390fd5b8060030160049054906101000a900463ffffffff1663ffffffff16421161094d576040517f08c379a0000000000000000000000000000000000000000000000000000000008152600401610944906118bf565b60405180910390fd5b806001015481600201541015610998576040517f08c379a000000000000000000000000000000000000000000000000000000000815260040161098f9061185f565b60405180910390fd5b8060030160089054906101000a900460ff16156109ea576040517f08c379a00000000000000000000000000000000000000000000000000000000081526004016109e19061179f565b60405180910390fd5b60018160030160086101000a81548160ff0219169083151502179055507f000000000000000000000000000000000000000000000000000000000000000073ffffffffffffffffffffffffffffffffffffffff1663a9059cbb8260000160009054906101000a900473ffffffffffffffffffffffffffffffffffffffff1683600201546040518363ffffffff1660e01b8152600401610a8a9291906116da565b602060405180830381600087803b158015610aa457600080fd5b505af1158015610ab8573d6000803e3d6000fd5b505050506040513d601f19601f82011682018060405250810190610adc919061127f565b507f7bb2b3c10797baccb6f8c4791f1edd6ca2f0d028ee0eda64b01a9a57e3a653f782604051610b0c91906118df565b60405180910390a15050565b6000600160008381526020019081526020016000206040518060c00160405290816000820160009054906101000a900473ffffffffffffffffffffffffffffffffffffffff1673ffffffffffffffffffffffffffffffffffffffff1673ffffffffffffffffffffffffffffffffffffffff16815260200160018201548152602001600282015481526020016003820160009054906101000a900463ffffffff1663ffffffff1663ffffffff1681526020016003820160049054906101000a900463ffffffff1663ffffffff1663ffffffff1681526020016003820160089054906101000a900460ff16151515158152505090503373ffffffffffffffffffffffffffffffffffffffff16816000015173ffffffffffffffffffffffffffffffffffffffff1614610c7d576040517f08c379a0000000000000000000000000000000000000000000000000000000008152600401610c74906117df565b60405180910390fd5b806060015163ffffffff164210610cc9576040517f08c379a0000000000000000000000000000000000000000000000000000000008152600401610cc09061183f565b60405180910390fd5b60016000838152602001908152602001600020600080820160006101000a81549073ffffffffffffffffffffffffffffffffffffffff0219169055600182016000905560028201600090556003820160006101000a81549063ffffffff02191690556003820160046101000a81549063ffffffff02191690556003820160086101000a81549060ff021916905550507f8bf30e7ff26833413be5f69e1d373744864d600b664204b4a2f9844a8eedb9ed82604051610d8791906118df565b60405180910390a15050565b60006001600084815260200190815260200160002090508060030160049054906101000a900463ffffffff1663ffffffff16421115610e07576040517f08c379a0000000000000000000000000000000000000000000000000000000008152600401610dfe9061189f565b60405180910390fd5b81816002016000828254610e1b91906119cf565b92505081905550816002600085815260200190815260200160002060003373ffffffffffffffffffffffffffffffffffffffff1673ffffffffffffffffffffffffffffffffffffffff1681526020019081526020016000206000828254610e8291906119cf565b925050819055507f000000000000000000000000000000000000000000000000000000000000000073ffffffffffffffffffffffffffffffffffffffff1663a9059cbb33846040518363ffffffff1660e01b8152600401610ee49291906116da565b602060405180830381600087803b158015610efe57600080fd5b505af1158015610f12573d6000803e3d6000fd5b505050506040513d601f19601f82011682018060405250810190610f36919061127f565b503373ffffffffffffffffffffffffffffffffffffffff16837f2eeeab891b26a214d1b25749f88a406bdea852bd8c9bfda977e0ef8114c180ba84604051610f7e91906118df565b60405180910390a3505050565b6002602052816000526040600020602052806000526040600020600091509150505481565b7f000000000000000000000000000000000000000000000000000000000000000081565b60006001600084815260200190815260200160002090508060030160009054906101000a900463ffffffff1663ffffffff16421015611048576040517f08c379a000000000000000000000000000000000000000000000000000000000815260040161103f9061187f565b60405180910390fd5b8060030160049054906101000a900463ffffffff1663ffffffff164211156110a5576040517f08c379a000000000000000000000000000000000000000000000000000000000815260040161109c9061189f565b60405180910390fd5b818160020160008282546110b99190611979565b92505081905550816002600085815260200190815260200160002060003373ffffffffffffffffffffffffffffffffffffffff1673ffffffffffffffffffffffffffffffffffffffff16815260200190815260200160002060008282546111209190611979565b925050819055507f000000000000000000000000000000000000000000000000000000000000000073ffffffffffffffffffffffffffffffffffffffff166323b872dd3330856040518463ffffffff1660e01b8152600401611184939291906116a3565b602060405180830381600087803b15801561119e57600080fd5b505af11580156111b2573d6000803e3d6000fd5b505050506040513d601f19601f820116820180604052508101906111d6919061127f565b503373ffffffffffffffffffffffffffffffffffffffff16837f06bdb975df800a73232998e71ed585d536222f1dfeaa622d7f62a23ada686c828460405161121e91906118df565b60405180910390a3505050565b60008135905061123a81611aae565b92915050565b60008151905061124f81611ac5565b92915050565b60008135905061126481611adc565b92915050565b60008135905061127981611af3565b92915050565b60006020828403121561129157600080fd5b600061129f84828501611240565b91505092915050565b6000602082840312156112ba57600080fd5b60006112c884828501611255565b91505092915050565b600080604083850312156112e457600080fd5b60006112f285828601611255565b92505060206113038582860161122b565b9150509250929050565b6000806040838503121561132057600080fd5b600061132e85828601611255565b925050602061133f85828601611255565b9150509250929050565b60008060006060848603121561135e57600080fd5b600061136c86828701611255565b935050602061137d8682870161126a565b925050604061138e8682870161126a565b9150509250925092565b6113a181611a03565b82525050565b6113b081611a15565b82525050565b6113bf81611a5b565b82525050565b60006113d2601583611968565b91507f656e64206174203e206d6178206475726174696f6e00000000000000000000006000830152602082019050919050565b6000611412600783611968565b91507f636c61696d6564000000000000000000000000000000000000000000000000006000830152602082019050919050565b6000611452601183611968565b91507f656e64206174203c2073746172742061740000000000000000000000000000006000830152602082019050919050565b6000611492600b83611968565b91507f6e6f742063726561746f720000000000000000000000000000000000000000006000830152602082019050919050565b60006114d2600e83611968565b91507f7374617274206174203c206e6f770000000000000000000000000000000000006000830152602082019050919050565b6000611512600f83611968565b91507f706c6564676564203e3d20676f616c00000000000000000000000000000000006000830152602082019050919050565b6000611552600783611968565b91507f73746172746564000000000000000000000000000000000000000000000000006000830152602082019050919050565b6000611592600e83611968565b91507f706c6564676564203c20676f616c0000000000000000000000000000000000006000830152602082019050919050565b60006115d2600b83611968565b91507f6e6f7420737461727465640000000000000000000000000000000000000000006000830152602082019050919050565b6000611612600583611968565b91507f656e6465640000000000000000000000000000000000000000000000000000006000830152602082019050919050565b6000611652600983611968565b91507f6e6f7420656e64656400000000000000000000000000000000000000000000006000830152602082019050919050565b61168e81611a41565b82525050565b61169d81611a4b565b82525050565b60006060820190506116b86000830186611398565b6116c56020830185611398565b6116d26040830184611685565b949350505050565b60006040820190506116ef6000830185611398565b6116fc6020830184611685565b9392505050565b600060c0820190506117186000830189611398565b6117256020830188611685565b6117326040830187611685565b61173f6060830186611694565b61174c6080830185611694565b61175960a08301846113a7565b979650505050505050565b600060208201905061177960008301846113b6565b92915050565b60006020820190508181036000830152611798816113c5565b9050919050565b600060208201905081810360008301526117b881611405565b9050919050565b600060208201905081810360008301526117d881611445565b9050919050565b600060208201905081810360008301526117f881611485565b9050919050565b60006020820190508181036000830152611818816114c5565b9050919050565b6000602082019050818103600083015261183881611505565b9050919050565b6000602082019050818103600083015261185881611545565b9050919050565b6000602082019050818103600083015261187881611585565b9050919050565b60006020820190508181036000830152611898816115c5565b9050919050565b600060208201905081810360008301526118b881611605565b9050919050565b600060208201905081810360008301526118d881611645565b9050919050565b60006020820190506118f46000830184611685565b92915050565b600060408201905061190f6000830185611685565b61191c6020830184611685565b9392505050565b60006080820190506119386000830187611685565b6119456020830186611685565b6119526040830185611694565b61195f6060830184611694565b95945050505050565b600082825260208201905092915050565b600061198482611a41565b915061198f83611a41565b9250827fffffffffffffffffffffffffffffffffffffffffffffffffffffffffffffffff038211156119c4576119c3611a7f565b5b828201905092915050565b60006119da82611a41565b91506119e583611a41565b9250828210156119f8576119f7611a7f565b5b828203905092915050565b6000611a0e82611a21565b9050919050565b60008115159050919050565b600073ffffffffffffffffffffffffffffffffffffffff82169050919050565b6000819050919050565b600063ffffffff82169050919050565b6000611a6682611a6d565b9050919050565b6000611a7882611a21565b9050919050565b7f4e487b7100000000000000000000000000000000000000000000000000000000600052601160045260246000fd5b611ab781611a03565b8114611ac257600080fd5b50565b611ace81611a15565b8114611ad957600080fd5b50565b611ae581611a41565b8114611af057600080fd5b50565b611afc81611a4b565b8114611b0757600080fd5b5056fea2646970667358221220d8d53cf3a836b87b9c2255684e7d59eddfeb51eb6cea4d4f2baee307a361de7e64736f6c63430008000033",
					"opcodes": "PUSH1 0xA0 PUSH1 0x40 MSTORE CALLVALUE DUP1 ISZERO PUSH3 0x11 JUMPI PUSH1 0x0 DUP1 REVERT JUMPDEST POP PUSH1 0x40 MLOAD PUSH3 0x1C81 CODESIZE SUB DUP1 PUSH3 0x1C81 DUP4 CODECOPY DUP2 DUP2 ADD PUSH1 0x40 MSTORE DUP2 ADD SWAP1 PUSH3 0x37 SWAP2 SWAP1 PUSH3 0x8C JUMP JUMPDEST DUP1 PUSH20 0xFFFFFFFFFFFFFFFFFFFFFFFFFFFFFFFFFFFFFFFF AND PUSH1 0x80 DUP2 PUSH20 0xFFFFFFFFFFFFFFFFFFFFFFFFFFFFFFFFFFFFFFFF AND PUSH1 0x60 SHL DUP2 MSTORE POP POP POP PUSH3 0x106 JUMP JUMPDEST PUSH1 0x0 DUP2 MLOAD SWAP1 POP PUSH3 0x86 DUP2 PUSH3 0xEC JUMP JUMPDEST SWAP3 SWAP2 POP POP JUMP JUMPDEST PUSH1 0x0 PUSH1 0x20 DUP3 DUP5 SUB SLT ISZERO PUSH3 0x9F JUMPI PUSH1 0x0 DUP1 REVERT JUMPDEST PUSH1 0x0 PUSH3 0xAF DUP5 DUP3 DUP6 ADD PUSH3 0x75 JUMP JUMPDEST SWAP2 POP POP SWAP3 SWAP2 POP POP JUMP JUMPDEST PUSH1 0x0 PUSH3 0xC5 DUP3 PUSH3 0xCC JUMP JUMPDEST SWAP1 POP SWAP2 SWAP1 POP JUMP JUMPDEST PUSH1 0x0 PUSH20 0xFFFFFFFFFFFFFFFFFFFFFFFFFFFFFFFFFFFFFFFF DUP3 AND SWAP1 POP SWAP2 SWAP1 POP JUMP JUMPDEST PUSH3 0xF7 DUP2 PUSH3 0xB8 JUMP JUMPDEST DUP2 EQ PUSH3 0x103 JUMPI PUSH1 0x0 DUP1 REVERT JUMPDEST POP JUMP JUMPDEST PUSH1 0x80 MLOAD PUSH1 0x60 SHR PUSH2 0x1B40 PUSH3 0x141 PUSH1 0x0 CODECOPY PUSH1 0x0 DUP2 DUP2 PUSH2 0x4B1 ADD MSTORE DUP2 DUP2 PUSH2 0xA09 ADD MSTORE DUP2 DUP2 PUSH2 0xE8B ADD MSTORE DUP2 DUP2 PUSH2 0xFB2 ADD MSTORE PUSH2 0x1129 ADD MSTORE PUSH2 0x1B40 PUSH1 0x0 RETURN INVALID PUSH1 0x80 PUSH1 0x40 MSTORE CALLVALUE DUP1 ISZERO PUSH2 0x10 JUMPI PUSH1 0x0 DUP1 REVERT JUMPDEST POP PUSH1 0x4 CALLDATASIZE LT PUSH2 0x9E JUMPI PUSH1 0x0 CALLDATALOAD PUSH1 0xE0 SHR DUP1 PUSH4 0x40E58EE5 GT PUSH2 0x66 JUMPI DUP1 PUSH4 0x40E58EE5 EQ PUSH2 0x14A JUMPI DUP1 PUSH4 0x711853AB EQ PUSH2 0x166 JUMPI DUP1 PUSH4 0xAA4FB63A EQ PUSH2 0x182 JUMPI DUP1 PUSH4 0xFC0C546A EQ PUSH2 0x1B2 JUMPI DUP1 PUSH4 0xFDE327BE EQ PUSH2 0x1D0 JUMPI PUSH2 0x9E JUMP JUMPDEST DUP1 PUSH4 0x6661ABD EQ PUSH2 0xA3 JUMPI DUP1 PUSH4 0x141961BC EQ PUSH2 0xC1 JUMPI DUP1 PUSH4 0x278ECDE1 EQ PUSH2 0xF6 JUMPI DUP1 PUSH4 0x2C63F146 EQ PUSH2 0x112 JUMPI DUP1 PUSH4 0x379607F5 EQ PUSH2 0x12E JUMPI JUMPDEST PUSH1 0x0 DUP1 REVERT JUMPDEST PUSH2 0xAB PUSH2 0x1EC JUMP JUMPDEST PUSH1 0x40 MLOAD PUSH2 0xB8 SWAP2 SWAP1 PUSH2 0x18DF JUMP JUMPDEST PUSH1 0x40 MLOAD DUP1 SWAP2 SUB SWAP1 RETURN JUMPDEST PUSH2 0xDB PUSH1 0x4 DUP1 CALLDATASIZE SUB DUP2 ADD SWAP1 PUSH2 0xD6 SWAP2 SWAP1 PUSH2 0x12A8 JUMP JUMPDEST PUSH2 0x1F2 JUMP JUMPDEST PUSH1 0x40 MLOAD PUSH2 0xED SWAP7 SWAP6 SWAP5 SWAP4 SWAP3 SWAP2 SWAP1 PUSH2 0x1703 JUMP JUMPDEST PUSH1 0x40 MLOAD DUP1 SWAP2 SUB SWAP1 RETURN JUMPDEST PUSH2 0x110 PUSH1 0x4 DUP1 CALLDATASIZE SUB DUP2 ADD SWAP1 PUSH2 0x10B SWAP2 SWAP1 PUSH2 0x12A8 JUMP JUMPDEST PUSH2 0x27B JUMP JUMPDEST STOP JUMPDEST PUSH2 0x12C PUSH1 0x4 DUP1 CALLDATASIZE SUB DUP2 ADD SWAP1 PUSH2 0x127 SWAP2 SWAP1 PUSH2 0x1349 JUMP JUMPDEST PUSH2 0x5B2 JUMP JUMPDEST STOP JUMPDEST PUSH2 0x148 PUSH1 0x4 DUP1 CALLDATASIZE SUB DUP2 ADD SWAP1 PUSH2 0x143 SWAP2 SWAP1 PUSH2 0x12A8 JUMP JUMPDEST PUSH2 0x848 JUMP JUMPDEST STOP JUMPDEST PUSH2 0x164 PUSH1 0x4 DUP1 CALLDATASIZE SUB DUP2 ADD SWAP1 PUSH2 0x15F SWAP2 SWAP1 PUSH2 0x12A8 JUMP JUMPDEST PUSH2 0xB18 JUMP JUMPDEST STOP JUMPDEST PUSH2 0x180 PUSH1 0x4 DUP1 CALLDATASIZE SUB DUP2 ADD SWAP1 PUSH2 0x17B SWAP2 SWAP1 PUSH2 0x130D JUMP JUMPDEST PUSH2 0xD93 JUMP JUMPDEST STOP JUMPDEST PUSH2 0x19C PUSH1 0x4 DUP1 CALLDATASIZE SUB DUP2 ADD SWAP1 PUSH2 0x197 SWAP2 SWAP1 PUSH2 0x12D1 JUMP JUMPDEST PUSH2 0xF8B JUMP JUMPDEST PUSH1 0x40 MLOAD PUSH2 0x1A9 SWAP2 SWAP1 PUSH2 0x18DF JUMP JUMPDEST PUSH1 0x40 MLOAD DUP1 SWAP2 SUB SWAP1 RETURN JUMPDEST PUSH2 0x1BA PUSH2 0xFB0 JUMP JUMPDEST PUSH1 0x40 MLOAD PUSH2 0x1C7 SWAP2 SWAP1 PUSH2 0x1764 JUMP JUMPDEST PUSH1 0x40 MLOAD DUP1 SWAP2 SUB SWAP1 RETURN JUMPDEST PUSH2 0x1EA PUSH1 0x4 DUP1 CALLDATASIZE SUB DUP2 ADD SWAP1 PUSH2 0x1E5 SWAP2 SWAP1 PUSH2 0x130D JUMP JUMPDEST PUSH2 0xFD4 JUMP JUMPDEST STOP JUMPDEST PUSH1 0x0 SLOAD DUP2 JUMP JUMPDEST PUSH1 0x1 PUSH1 0x20 MSTORE DUP1 PUSH1 0x0 MSTORE PUSH1 0x40 PUSH1 0x0 KECCAK256 PUSH1 0x0 SWAP2 POP SWAP1 POP DUP1 PUSH1 0x0 ADD PUSH1 0x0 SWAP1 SLOAD SWAP1 PUSH2 0x100 EXP SWAP1 DIV PUSH20 0xFFFFFFFFFFFFFFFFFFFFFFFFFFFFFFFFFFFFFFFF AND SWAP1 DUP1 PUSH1 0x1 ADD SLOAD SWAP1 DUP1 PUSH1 0x2 ADD SLOAD SWAP1 DUP1 PUSH1 0x3 ADD PUSH1 0x0 SWAP1 SLOAD SWAP1 PUSH2 0x100 EXP SWAP1 DIV PUSH4 0xFFFFFFFF AND SWAP1 DUP1 PUSH1 0x3 ADD PUSH1 0x4 SWAP1 SLOAD SWAP1 PUSH2 0x100 EXP SWAP1 DIV PUSH4 0xFFFFFFFF AND SWAP1 DUP1 PUSH1 0x3 ADD PUSH1 0x8 SWAP1 SLOAD SWAP1 PUSH2 0x100 EXP SWAP1 DIV PUSH1 0xFF AND SWAP1 POP DUP7 JUMP JUMPDEST PUSH1 0x0 PUSH1 0x1 PUSH1 0x0 DUP4 DUP2 MSTORE PUSH1 0x20 ADD SWAP1 DUP2 MSTORE PUSH1 0x20 ADD PUSH1 0x0 KECCAK256 PUSH1 0x40 MLOAD DUP1 PUSH1 0xC0 ADD PUSH1 0x40 MSTORE SWAP1 DUP2 PUSH1 0x0 DUP3 ADD PUSH1 0x0 SWAP1 SLOAD SWAP1 PUSH2 0x100 EXP SWAP1 DIV PUSH20 0xFFFFFFFFFFFFFFFFFFFFFFFFFFFFFFFFFFFFFFFF AND PUSH20 0xFFFFFFFFFFFFFFFFFFFFFFFFFFFFFFFFFFFFFFFF AND PUSH20 0xFFFFFFFFFFFFFFFFFFFFFFFFFFFFFFFFFFFFFFFF AND DUP2 MSTORE PUSH1 0x20 ADD PUSH1 0x1 DUP3 ADD SLOAD DUP2 MSTORE PUSH1 0x20 ADD PUSH1 0x2 DUP3 ADD SLOAD DUP2 MSTORE PUSH1 0x20 ADD PUSH1 0x3 DUP3 ADD PUSH1 0x0 SWAP1 SLOAD SWAP1 PUSH2 0x100 EXP SWAP1 DIV PUSH4 0xFFFFFFFF AND PUSH4 0xFFFFFFFF AND PUSH4 0xFFFFFFFF AND DUP2 MSTORE PUSH1 0x20 ADD PUSH1 0x3 DUP3 ADD PUSH1 0x4 SWAP1 SLOAD SWAP1 PUSH2 0x100 EXP SWAP1 DIV PUSH4 0xFFFFFFFF AND PUSH4 0xFFFFFFFF AND PUSH4 0xFFFFFFFF AND DUP2 MSTORE PUSH1 0x20 ADD PUSH1 0x3 DUP3 ADD PUSH1 0x8 SWAP1 SLOAD SWAP1 PUSH2 0x100 EXP SWAP1 DIV PUSH1 0xFF AND ISZERO ISZERO ISZERO ISZERO DUP2 MSTORE POP POP SWAP1 POP DUP1 PUSH1 0x80 ADD MLOAD PUSH4 0xFFFFFFFF AND TIMESTAMP GT PUSH2 0x3BA JUMPI PUSH1 0x40 MLOAD PUSH32 0x8C379A000000000000000000000000000000000000000000000000000000000 DUP2 MSTORE PUSH1 0x4 ADD PUSH2 0x3B1 SWAP1 PUSH2 0x18BF JUMP JUMPDEST PUSH1 0x40 MLOAD DUP1 SWAP2 SUB SWAP1 REVERT JUMPDEST DUP1 PUSH1 0x20 ADD MLOAD DUP2 PUSH1 0x40 ADD MLOAD LT PUSH2 0x404 JUMPI PUSH1 0x40 MLOAD PUSH32 0x8C379A000000000000000000000000000000000000000000000000000000000 DUP2 MSTORE PUSH1 0x4 ADD PUSH2 0x3FB SWAP1 PUSH2 0x181F JUMP JUMPDEST PUSH1 0x40 MLOAD DUP1 SWAP2 SUB SWAP1 REVERT JUMPDEST PUSH1 0x0 PUSH1 0x2 PUSH1 0x0 DUP5 DUP2 MSTORE PUSH1 0x20 ADD SWAP1 DUP2 MSTORE PUSH1 0x20 ADD PUSH1 0x0 KECCAK256 PUSH1 0x0 CALLER PUSH20 0xFFFFFFFFFFFFFFFFFFFFFFFFFFFFFFFFFFFFFFFF AND PUSH20 0xFFFFFFFFFFFFFFFFFFFFFFFFFFFFFFFFFFFFFFFF AND DUP2 MSTORE PUSH1 0x20 ADD SWAP1 DUP2 MSTORE PUSH1 0x20 ADD PUSH1 0x0 KECCAK256 SLOAD SWAP1 POP PUSH1 0x0 PUSH1 0x2 PUSH1 0x0 DUP6 DUP2 MSTORE PUSH1 0x20 ADD SWAP1 DUP2 MSTORE PUSH1 0x20 ADD PUSH1 0x0 KECCAK256 PUSH1 0x0 CALLER PUSH20 0xFFFFFFFFFFFFFFFFFFFFFFFFFFFFFFFFFFFFFFFF AND PUSH20 0xFFFFFFFFFFFFFFFFFFFFFFFFFFFFFFFFFFFFFFFF AND DUP2 MSTORE PUSH1 0x20 ADD SWAP1 DUP2 MSTORE PUSH1 0x20 ADD PUSH1 0x0 KECCAK256 DUP2 SWAP1 SSTORE POP PUSH32 0x0 PUSH20 0xFFFFFFFFFFFFFFFFFFFFFFFFFFFFFFFFFFFFFFFF AND PUSH4 0xA9059CBB CALLER DUP4 PUSH1 0x40 MLOAD DUP4 PUSH4 0xFFFFFFFF AND PUSH1 0xE0 SHL DUP2 MSTORE PUSH1 0x4 ADD PUSH2 0x50A SWAP3 SWAP2 SWAP1 PUSH2 0x16DA JUMP JUMPDEST PUSH1 0x20 PUSH1 0x40 MLOAD DUP1 DUP4 SUB DUP2 PUSH1 0x0 DUP8 DUP1 EXTCODESIZE ISZERO DUP1 ISZERO PUSH2 0x524 JUMPI PUSH1 0x0 DUP1 REVERT JUMPDEST POP GAS CALL ISZERO DUP1 ISZERO PUSH2 0x538 JUMPI RETURNDATASIZE PUSH1 0x0 DUP1 RETURNDATACOPY RETURNDATASIZE PUSH1 0x0 REVERT JUMPDEST POP POP POP POP PUSH1 0x40 MLOAD RETURNDATASIZE PUSH1 0x1F NOT PUSH1 0x1F DUP3 ADD AND DUP3 ADD DUP1 PUSH1 0x40 MSTORE POP DUP2 ADD SWAP1 PUSH2 0x55C SWAP2 SWAP1 PUSH2 0x127F JUMP JUMPDEST POP CALLER PUSH20 0xFFFFFFFFFFFFFFFFFFFFFFFFFFFFFFFFFFFFFFFF AND PUSH32 0x21E12A7CAD0DA5928167E1084EA4D5FDF8D9AF66657A2543A9AC76A0CA081477 DUP5 DUP4 PUSH1 0x40 MLOAD PUSH2 0x5A5 SWAP3 SWAP2 SWAP1 PUSH2 0x18FA JUMP JUMPDEST PUSH1 0x40 MLOAD DUP1 SWAP2 SUB SWAP1 LOG2 POP POP POP JUMP JUMPDEST TIMESTAMP DUP3 PUSH4 0xFFFFFFFF AND LT ISZERO PUSH2 0x5FB JUMPI PUSH1 0x40 MLOAD PUSH32 0x8C379A000000000000000000000000000000000000000000000000000000000 DUP2 MSTORE PUSH1 0x4 ADD PUSH2 0x5F2 SWAP1 PUSH2 0x17FF JUMP JUMPDEST PUSH1 0x40 MLOAD DUP1 SWAP2 SUB SWAP1 REVERT JUMPDEST DUP2 PUSH4 0xFFFFFFFF AND DUP2 PUSH4 0xFFFFFFFF AND LT ISZERO PUSH2 0x64A JUMPI PUSH1 0x40 MLOAD PUSH32 0x8C379A000000000000000000000000000000000000000000000000000000000 DUP2 MSTORE PUSH1 0x4 ADD PUSH2 0x641 SWAP1 PUSH2 0x17BF JUMP JUMPDEST PUSH1 0x40 MLOAD DUP1 SWAP2 SUB SWAP1 REVERT JUMPDEST PUSH3 0x76A700 TIMESTAMP PUSH2 0x659 SWAP2 SWAP1 PUSH2 0x1979 JUMP JUMPDEST DUP2 PUSH4 0xFFFFFFFF AND GT ISZERO PUSH2 0x6A1 JUMPI PUSH1 0x40 MLOAD PUSH32 0x8C379A000000000000000000000000000000000000000000000000000000000 DUP2 MSTORE PUSH1 0x4 ADD PUSH2 0x698 SWAP1 PUSH2 0x177F JUMP JUMPDEST PUSH1 0x40 MLOAD DUP1 SWAP2 SUB SWAP1 REVERT JUMPDEST PUSH1 0x1 PUSH1 0x0 DUP1 DUP3 DUP3 SLOAD PUSH2 0x6B3 SWAP2 SWAP1 PUSH2 0x1979 JUMP JUMPDEST SWAP3 POP POP DUP2 SWAP1 SSTORE POP PUSH1 0x40 MLOAD DUP1 PUSH1 0xC0 ADD PUSH1 0x40 MSTORE DUP1 CALLER PUSH20 0xFFFFFFFFFFFFFFFFFFFFFFFFFFFFFFFFFFFFFFFF AND DUP2 MSTORE PUSH1 0x20 ADD DUP5 DUP2 MSTORE PUSH1 0x20 ADD PUSH1 0x0 DUP2 MSTORE PUSH1 0x20 ADD DUP4 PUSH4 0xFFFFFFFF AND DUP2 MSTORE PUSH1 0x20 ADD DUP3 PUSH4 0xFFFFFFFF AND DUP2 MSTORE PUSH1 0x20 ADD PUSH1 0x0 ISZERO ISZERO DUP2 MSTORE POP PUSH1 0x1 PUSH1 0x0 DUP1 SLOAD DUP2 MSTORE PUSH1 0x20 ADD SWAP1 DUP2 MSTORE PUSH1 0x20 ADD PUSH1 0x0 KECCAK256 PUSH1 0x0 DUP3 ADD MLOAD DUP2 PUSH1 0x0 ADD PUSH1 0x0 PUSH2 0x100 EXP DUP2 SLOAD DUP2 PUSH20 0xFFFFFFFFFFFFFFFFFFFFFFFFFFFFFFFFFFFFFFFF MUL NOT AND SWAP1 DUP4 PUSH20 0xFFFFFFFFFFFFFFFFFFFFFFFFFFFFFFFFFFFFFFFF AND MUL OR SWAP1 SSTORE POP PUSH1 0x20 DUP3 ADD MLOAD DUP2 PUSH1 0x1 ADD SSTORE PUSH1 0x40 DUP3 ADD MLOAD DUP2 PUSH1 0x2 ADD SSTORE PUSH1 0x60 DUP3 ADD MLOAD DUP2 PUSH1 0x3 ADD PUSH1 0x0 PUSH2 0x100 EXP DUP2 SLOAD DUP2 PUSH4 0xFFFFFFFF MUL NOT AND SWAP1 DUP4 PUSH4 0xFFFFFFFF AND MUL OR SWAP1 SSTORE POP PUSH1 0x80 DUP3 ADD MLOAD DUP2 PUSH1 0x3 ADD PUSH1 0x4 PUSH2 0x100 EXP DUP2 SLOAD DUP2 PUSH4 0xFFFFFFFF MUL NOT AND SWAP1 DUP4 PUSH4 0xFFFFFFFF AND MUL OR SWAP1 SSTORE POP PUSH1 0xA0 DUP3 ADD MLOAD DUP2 PUSH1 0x3 ADD PUSH1 0x8 PUSH2 0x100 EXP DUP2 SLOAD DUP2 PUSH1 0xFF MUL NOT AND SWAP1 DUP4 ISZERO ISZERO MUL OR SWAP1 SSTORE POP SWAP1 POP POP CALLER PUSH20 0xFFFFFFFFFFFFFFFFFFFFFFFFFFFFFFFFFFFFFFFF AND PUSH32 0x601CD0D650B473037E838A2696D41E654433D065B3F56B28D1D3302E44A304F PUSH1 0x0 SLOAD DUP6 DUP6 DUP6 PUSH1 0x40 MLOAD PUSH2 0x83B SWAP5 SWAP4 SWAP3 SWAP2 SWAP1 PUSH2 0x1923 JUMP JUMPDEST PUSH1 0x40 MLOAD DUP1 SWAP2 SUB SWAP1 LOG2 POP POP POP JUMP JUMPDEST PUSH1 0x0 PUSH1 0x1 PUSH1 0x0 DUP4 DUP2 MSTORE PUSH1 0x20 ADD SWAP1 DUP2 MSTORE PUSH1 0x20 ADD PUSH1 0x0 KECCAK256 SWAP1 POP CALLER PUSH20 0xFFFFFFFFFFFFFFFFFFFFFFFFFFFFFFFFFFFFFFFF AND DUP2 PUSH1 0x0 ADD PUSH1 0x0 SWAP1 SLOAD SWAP1 PUSH2 0x100 EXP SWAP1 DIV PUSH20 0xFFFFFFFFFFFFFFFFFFFFFFFFFFFFFFFFFFFFFFFF AND PUSH20 0xFFFFFFFFFFFFFFFFFFFFFFFFFFFFFFFFFFFFFFFF AND EQ PUSH2 0x8F1 JUMPI PUSH1 0x40 MLOAD PUSH32 0x8C379A000000000000000000000000000000000000000000000000000000000 DUP2 MSTORE PUSH1 0x4 ADD PUSH2 0x8E8 SWAP1 PUSH2 0x17DF JUMP JUMPDEST PUSH1 0x40 MLOAD DUP1 SWAP2 SUB SWAP1 REVERT JUMPDEST DUP1 PUSH1 0x3 ADD PUSH1 0x4 SWAP1 SLOAD SWAP1 PUSH2 0x100 EXP SWAP1 DIV PUSH4 0xFFFFFFFF AND PUSH4 0xFFFFFFFF AND TIMESTAMP GT PUSH2 0x94D JUMPI PUSH1 0x40 MLOAD PUSH32 0x8C379A000000000000000000000000000000000000000000000000000000000 DUP2 MSTORE PUSH1 0x4 ADD PUSH2 0x944 SWAP1 PUSH2 0x18BF JUMP JUMPDEST PUSH1 0x40 MLOAD DUP1 SWAP2 SUB SWAP1 REVERT JUMPDEST DUP1 PUSH1 0x1 ADD SLOAD DUP2 PUSH1 0x2 ADD SLOAD LT ISZERO PUSH2 0x998 JUMPI PUSH1 0x40 MLOAD PUSH32 0x8C379A000000000000000000000000000000000000000000000000000000000 DUP2 MSTORE PUSH1 0x4 ADD PUSH2 0x98F SWAP1 PUSH2 0x185F JUMP JUMPDEST PUSH1 0x40 MLOAD DUP1 SWAP2 SUB SWAP1 REVERT JUMPDEST DUP1 PUSH1 0x3 ADD PUSH1 0x8 SWAP1 SLOAD SWAP1 PUSH2 0x100 EXP SWAP1 DIV PUSH1 0xFF AND ISZERO PUSH2 0x9EA JUMPI PUSH1 0x40 MLOAD PUSH32 0x8C379A000000000000000000000000000000000000000000000000000000000 DUP2 MSTORE PUSH1 0x4 ADD PUSH2 0x9E1 SWAP1 PUSH2 0x179F JUMP JUMPDEST PUSH1 0x40 MLOAD DUP1 SWAP2 SUB SWAP1 REVERT JUMPDEST PUSH1 0x1 DUP2 PUSH1 0x3 ADD PUSH1 0x8 PUSH2 0x100 EXP DUP2 SLOAD DUP2 PUSH1 0xFF MUL NOT AND SWAP1 DUP4 ISZERO ISZERO MUL OR SWAP1 SSTORE POP PUSH32 0x0 PUSH20 0xFFFFFFFFFFFFFFFFFFFFFFFFFFFFFFFFFFFFFFFF AND PUSH4 0xA9059CBB DUP3 PUSH1 0x0 ADD PUSH1 0x0 SWAP1 SLOAD SWAP1 PUSH2 0x100 EXP SWAP1 DIV PUSH20 0xFFFFFFFFFFFFFFFFFFFFFFFFFFFFFFFFFFFFFFFF AND DUP4 PUSH1 0x2 ADD SLOAD PUSH1 0x40 MLOAD DUP4 PUSH4 0xFFFFFFFF AND PUSH1 0xE0 SHL DUP2 MSTORE PUSH1 0x4 ADD PUSH2 0xA8A SWAP3 SWAP2 SWAP1 PUSH2 0x16DA JUMP JUMPDEST PUSH1 0x20 PUSH1 0x40 MLOAD DUP1 DUP4 SUB DUP2 PUSH1 0x0 DUP8 DUP1 EXTCODESIZE ISZERO DUP1 ISZERO PUSH2 0xAA4 JUMPI PUSH1 0x0 DUP1 REVERT JUMPDEST POP GAS CALL ISZERO DUP1 ISZERO PUSH2 0xAB8 JUMPI RETURNDATASIZE PUSH1 0x0 DUP1 RETURNDATACOPY RETURNDATASIZE PUSH1 0x0 REVERT JUMPDEST POP POP POP POP PUSH1 0x40 MLOAD RETURNDATASIZE PUSH1 0x1F NOT PUSH1 0x1F DUP3 ADD AND DUP3 ADD DUP1 PUSH1 0x40 MSTORE POP DUP2 ADD SWAP1 PUSH2 0xADC SWAP2 SWAP1 PUSH2 0x127F JUMP JUMPDEST POP PUSH32 0x7BB2B3C10797BACCB6F8C4791F1EDD6CA2F0D028EE0EDA64B01A9A57E3A653F7 DUP3 PUSH1 0x40 MLOAD PUSH2 0xB0C SWAP2 SWAP1 PUSH2 0x18DF JUMP JUMPDEST PUSH1 0x40 MLOAD DUP1 SWAP2 SUB SWAP1 LOG1 POP POP JUMP JUMPDEST PUSH1 0x0 PUSH1 0x1 PUSH1 0x0 DUP4 DUP2 MSTORE PUSH1 0x20 ADD SWAP1 DUP2 MSTORE PUSH1 0x20 ADD PUSH1 0x0 KECCAK256 PUSH1 0x40 MLOAD DUP1 PUSH1 0xC0 ADD PUSH1 0x40 MSTORE SWAP1 DUP2 PUSH1 0x0 DUP3 ADD PUSH1 0x0 SWAP1 SLOAD SWAP1 PUSH2 0x100 EXP SWAP1 DIV PUSH20 0xFFFFFFFFFFFFFFFFFFFFFFFFFFFFFFFFFFFFFFFF AND PUSH20 0xFFFFFFFFFFFFFFFFFFFFFFFFFFFFFFFFFFFFFFFF AND PUSH20 0xFFFFFFFFFFFFFFFFFFFFFFFFFFFFFFFFFFFFFFFF AND DUP2 MSTORE PUSH1 0x20 ADD PUSH1 0x1 DUP3 ADD SLOAD DUP2 MSTORE PUSH1 0x20 ADD PUSH1 0x2 DUP3 ADD SLOAD DUP2 MSTORE PUSH1 0x20 ADD PUSH1 0x3 DUP3 ADD PUSH1 0x0 SWAP1 SLOAD SWAP1 PUSH2 0x100 EXP SWAP1 DIV PUSH4 0xFFFFFFFF AND PUSH4 0xFFFFFFFF AND PUSH4 0xFFFFFFFF AND DUP2 MSTORE PUSH1 0x20 ADD PUSH1 0x3 DUP3 ADD PUSH1 0x4 SWAP1 SLOAD SWAP1 PUSH2 0x100 EXP SWAP1 DIV PUSH4 0xFFFFFFFF AND PUSH4 0xFFFFFFFF AND PUSH4 0xFFFFFFFF AND DUP2 MSTORE PUSH1 0x20 ADD PUSH1 0x3 DUP3 ADD PUSH1 0x8 SWAP1 SLOAD SWAP1 PUSH2 0x100 EXP SWAP1 DIV PUSH1 0xFF AND ISZERO ISZERO ISZERO ISZERO DUP2 MSTORE POP POP SWAP1 POP CALLER PUSH20 0xFFFFFFFFFFFFFFFFFFFFFFFFFFFFFFFFFFFFFFFF AND DUP2 PUSH1 0x0 ADD MLOAD PUSH20 0xFFFFFFFFFFFFFFFFFFFFFFFFFFFFFFFFFFFFFFFF AND EQ PUSH2 0xC7D JUMPI PUSH1 0x40 MLOAD PUSH32 0x8C379A000000000000000000000000000000000000000000000000000000000 DUP2 MSTORE PUSH1 0x4 ADD PUSH2 0xC74 SWAP1 PUSH2 0x17DF JUMP JUMPDEST PUSH1 0x40 MLOAD DUP1 SWAP2 SUB SWAP1 REVERT JUMPDEST DUP1 PUSH1 0x60 ADD MLOAD PUSH4 0xFFFFFFFF AND TIMESTAMP LT PUSH2 0xCC9 JUMPI PUSH1 0x40 MLOAD PUSH32 0x8C379A000000000000000000000000000000000000000000000000000000000 DUP2 MSTORE PUSH1 0x4 ADD PUSH2 0xCC0 SWAP1 PUSH2 0x183F JUMP JUMPDEST PUSH1 0x40 MLOAD DUP1 SWAP2 SUB SWAP1 REVERT JUMPDEST PUSH1 0x1 PUSH1 0x0 DUP4 DUP2 MSTORE PUSH1 0x20 ADD SWAP1 DUP2 MSTORE PUSH1 0x20 ADD PUSH1 0x0 KECCAK256 PUSH1 0x0 DUP1 DUP3 ADD PUSH1 0x0 PUSH2 0x100 EXP DUP2 SLOAD SWAP1 PUSH20 0xFFFFFFFFFFFFFFFFFFFFFFFFFFFFFFFFFFFFFFFF MUL NOT AND SWAP1 SSTORE PUSH1 0x1 DUP3 ADD PUSH1 0x0 SWAP1 SSTORE PUSH1 0x2 DUP3 ADD PUSH1 0x0 SWAP1 SSTORE PUSH1 0x3 DUP3 ADD PUSH1 0x0 PUSH2 0x100 EXP DUP2 SLOAD SWAP1 PUSH4 0xFFFFFFFF MUL NOT AND SWAP1 SSTORE PUSH1 0x3 DUP3 ADD PUSH1 0x4 PUSH2 0x100 EXP DUP2 SLOAD SWAP1 PUSH4 0xFFFFFFFF MUL NOT AND SWAP1 SSTORE PUSH1 0x3 DUP3 ADD PUSH1 0x8 PUSH2 0x100 EXP DUP2 SLOAD SWAP1 PUSH1 0xFF MUL NOT AND SWAP1 SSTORE POP POP PUSH32 0x8BF30E7FF26833413BE5F69E1D373744864D600B664204B4A2F9844A8EEDB9ED DUP3 PUSH1 0x40 MLOAD PUSH2 0xD87 SWAP2 SWAP1 PUSH2 0x18DF JUMP JUMPDEST PUSH1 0x40 MLOAD DUP1 SWAP2 SUB SWAP1 LOG1 POP POP JUMP JUMPDEST PUSH1 0x0 PUSH1 0x1 PUSH1 0x0 DUP5 DUP2 MSTORE PUSH1 0x20 ADD SWAP1 DUP2 MSTORE PUSH1 0x20 ADD PUSH1 0x0 KECCAK256 SWAP1 POP DUP1 PUSH1 0x3 ADD PUSH1 0x4 SWAP1 SLOAD SWAP1 PUSH2 0x100 EXP SWAP1 DIV PUSH4 0xFFFFFFFF AND PUSH4 0xFFFFFFFF AND TIMESTAMP GT ISZERO PUSH2 0xE07 JUMPI PUSH1 0x40 MLOAD PUSH32 0x8C379A000000000000000000000000000000000000000000000000000000000 DUP2 MSTORE PUSH1 0x4 ADD PUSH2 0xDFE SWAP1 PUSH2 0x189F JUMP JUMPDEST PUSH1 0x40 MLOAD DUP1 SWAP2 SUB SWAP1 REVERT JUMPDEST DUP2 DUP2 PUSH1 0x2 ADD PUSH1 0x0 DUP3 DUP3 SLOAD PUSH2 0xE1B SWAP2 SWAP1 PUSH2 0x19CF JUMP JUMPDEST SWAP3 POP POP DUP2 SWAP1 SSTORE POP DUP2 PUSH1 0x2 PUSH1 0x0 DUP6 DUP2 MSTORE PUSH1 0x20 ADD SWAP1 DUP2 MSTORE PUSH1 0x20 ADD PUSH1 0x0 KECCAK256 PUSH1 0x0 CALLER PUSH20 0xFFFFFFFFFFFFFFFFFFFFFFFFFFFFFFFFFFFFFFFF AND PUSH20 0xFFFFFFFFFFFFFFFFFFFFFFFFFFFFFFFFFFFFFFFF AND DUP2 MSTORE PUSH1 0x20 ADD SWAP1 DUP2 MSTORE PUSH1 0x20 ADD PUSH1 0x0 KECCAK256 PUSH1 0x0 DUP3 DUP3 SLOAD PUSH2 0xE82 SWAP2 SWAP1 PUSH2 0x19CF JUMP JUMPDEST SWAP3 POP POP DUP2 SWAP1 SSTORE POP PUSH32 0x0 PUSH20 0xFFFFFFFFFFFFFFFFFFFFFFFFFFFFFFFFFFFFFFFF AND PUSH4 0xA9059CBB CALLER DUP5 PUSH1 0x40 MLOAD DUP4 PUSH4 0xFFFFFFFF AND PUSH1 0xE0 SHL DUP2 MSTORE PUSH1 0x4 ADD PUSH2 0xEE4 SWAP3 SWAP2 SWAP1 PUSH2 0x16DA JUMP JUMPDEST PUSH1 0x20 PUSH1 0x40 MLOAD DUP1 DUP4 SUB DUP2 PUSH1 0x0 DUP8 DUP1 EXTCODESIZE ISZERO DUP1 ISZERO PUSH2 0xEFE JUMPI PUSH1 0x0 DUP1 REVERT JUMPDEST POP GAS CALL ISZERO DUP1 ISZERO PUSH2 0xF12 JUMPI RETURNDATASIZE PUSH1 0x0 DUP1 RETURNDATACOPY RETURNDATASIZE PUSH1 0x0 REVERT JUMPDEST POP POP POP POP PUSH1 0x40 MLOAD RETURNDATASIZE PUSH1 0x1F NOT PUSH1 0x1F DUP3 ADD AND DUP3 ADD DUP1 PUSH1 0x40 MSTORE POP DUP2 ADD SWAP1 PUSH2 0xF36 SWAP2 SWAP1 PUSH2 0x127F JUMP JUMPDEST POP CALLER PUSH20 0xFFFFFFFFFFFFFFFFFFFFFFFFFFFFFFFFFFFFFFFF AND DUP4 PUSH32 0x2EEEAB891B26A214D1B25749F88A406BDEA852BD8C9BFDA977E0EF8114C180BA DUP5 PUSH1 0x40 MLOAD PUSH2 0xF7E SWAP2 SWAP1 PUSH2 0x18DF JUMP JUMPDEST PUSH1 0x40 MLOAD DUP1 SWAP2 SUB SWAP1 LOG3 POP POP POP JUMP JUMPDEST PUSH1 0x2 PUSH1 0x20 MSTORE DUP2 PUSH1 0x0 MSTORE PUSH1 0x40 PUSH1 0x0 KECCAK256 PUSH1 0x20 MSTORE DUP1 PUSH1 0x0 MSTORE PUSH1 0x40 PUSH1 0x0 KECCAK256 PUSH1 0x0 SWAP2 POP SWAP2 POP POP SLOAD DUP2 JUMP JUMPDEST PUSH32 0x0 DUP2 JUMP JUMPDEST PUSH1 0x0 PUSH1 0x1 PUSH1 0x0 DUP5 DUP2 MSTORE PUSH1 0x20 ADD SWAP1 DUP2 MSTORE PUSH1 0x20 ADD PUSH1 0x0 KECCAK256 SWAP1 POP DUP1 PUSH1 0x3 ADD PUSH1 0x0 SWAP1 SLOAD SWAP1 PUSH2 0x100 EXP SWAP1 DIV PUSH4 0xFFFFFFFF AND PUSH4 0xFFFFFFFF AND TIMESTAMP LT ISZERO PUSH2 0x1048 JUMPI PUSH1 0x40 MLOAD PUSH32 0x8C379A000000000000000000000000000000000000000000000000000000000 DUP2 MSTORE PUSH1 0x4 ADD PUSH2 0x103F SWAP1 PUSH2 0x187F JUMP JUMPDEST PUSH1 0x40 MLOAD DUP1 SWAP2 SUB SWAP1 REVERT JUMPDEST DUP1 PUSH1 0x3 ADD PUSH1 0x4 SWAP1 SLOAD SWAP1 PUSH2 0x100 EXP SWAP1 DIV PUSH4 0xFFFFFFFF AND PUSH4 0xFFFFFFFF AND TIMESTAMP GT ISZERO PUSH2 0x10A5 JUMPI PUSH1 0x40 MLOAD PUSH32 0x8C379A000000000000000000000000000000000000000000000000000000000 DUP2 MSTORE PUSH1 0x4 ADD PUSH2 0x109C SWAP1 PUSH2 0x189F JUMP JUMPDEST PUSH1 0x40 MLOAD DUP1 SWAP2 SUB SWAP1 REVERT JUMPDEST DUP2 DUP2 PUSH1 0x2 ADD PUSH1 0x0 DUP3 DUP3 SLOAD PUSH2 0x10B9 SWAP2 SWAP1 PUSH2 0x1979 JUMP JUMPDEST SWAP3 POP POP DUP2 SWAP1 SSTORE POP DUP2 PUSH1 0x2 PUSH1 0x0 DUP6 DUP2 MSTORE PUSH1 0x20 ADD SWAP1 DUP2 MSTORE PUSH1 0x20 ADD PUSH1 0x0 KECCAK256 PUSH1 0x0 CALLER PUSH20 0xFFFFFFFFFFFFFFFFFFFFFFFFFFFFFFFFFFFFFFFF AND PUSH20 0xFFFFFFFFFFFFFFFFFFFFFFFFFFFFFFFFFFFFFFFF AND DUP2 MSTORE PUSH1 0x20 ADD SWAP1 DUP2 MSTORE PUSH1 0x20 ADD PUSH1 0x0 KECCAK256 PUSH1 0x0 DUP3 DUP3 SLOAD PUSH2 0x1120 SWAP2 SWAP1 PUSH2 0x1979 JUMP JUMPDEST SWAP3 POP POP DUP2 SWAP1 SSTORE POP PUSH32 0x0 PUSH20 0xFFFFFFFFFFFFFFFFFFFFFFFFFFFFFFFFFFFFFFFF AND PUSH4 0x23B872DD CALLER ADDRESS DUP6 PUSH1 0x40 MLOAD DUP5 PUSH4 0xFFFFFFFF AND PUSH1 0xE0 SHL DUP2 MSTORE PUSH1 0x4 ADD PUSH2 0x1184 SWAP4 SWAP3 SWAP2 SWAP1 PUSH2 0x16A3 JUMP JUMPDEST PUSH1 0x20 PUSH1 0x40 MLOAD DUP1 DUP4 SUB DUP2 PUSH1 0x0 DUP8 DUP1 EXTCODESIZE ISZERO DUP1 ISZERO PUSH2 0x119E JUMPI PUSH1 0x0 DUP1 REVERT JUMPDEST POP GAS CALL ISZERO DUP1 ISZERO PUSH2 0x11B2 JUMPI RETURNDATASIZE PUSH1 0x0 DUP1 RETURNDATACOPY RETURNDATASIZE PUSH1 0x0 REVERT JUMPDEST POP POP POP POP PUSH1 0x40 MLOAD RETURNDATASIZE PUSH1 0x1F NOT PUSH1 0x1F DUP3 ADD AND DUP3 ADD DUP1 PUSH1 0x40 MSTORE POP DUP2 ADD SWAP1 PUSH2 0x11D6 SWAP2 SWAP1 PUSH2 0x127F JUMP JUMPDEST POP CALLER PUSH20 0xFFFFFFFFFFFFFFFFFFFFFFFFFFFFFFFFFFFFFFFF AND DUP4 PUSH32 0x6BDB975DF800A73232998E71ED585D536222F1DFEAA622D7F62A23ADA686C82 DUP5 PUSH1 0x40 MLOAD PUSH2 0x121E SWAP2 SWAP1 PUSH2 0x18DF JUMP JUMPDEST PUSH1 0x40 MLOAD DUP1 SWAP2 SUB SWAP1 LOG3 POP POP POP JUMP JUMPDEST PUSH1 0x0 DUP2 CALLDATALOAD SWAP1 POP PUSH2 0x123A DUP2 PUSH2 0x1AAE JUMP JUMPDEST SWAP3 SWAP2 POP POP JUMP JUMPDEST PUSH1 0x0 DUP2 MLOAD SWAP1 POP PUSH2 0x124F DUP2 PUSH2 0x1AC5 JUMP JUMPDEST SWAP3 SWAP2 POP POP JUMP JUMPDEST PUSH1 0x0 DUP2 CALLDATALOAD SWAP1 POP PUSH2 0x1264 DUP2 PUSH2 0x1ADC JUMP JUMPDEST SWAP3 SWAP2 POP POP JUMP JUMPDEST PUSH1 0x0 DUP2 CALLDATALOAD SWAP1 POP PUSH2 0x1279 DUP2 PUSH2 0x1AF3 JUMP JUMPDEST SWAP3 SWAP2 POP POP JUMP JUMPDEST PUSH1 0x0 PUSH1 0x20 DUP3 DUP5 SUB SLT ISZERO PUSH2 0x1291 JUMPI PUSH1 0x0 DUP1 REVERT JUMPDEST PUSH1 0x0 PUSH2 0x129F DUP5 DUP3 DUP6 ADD PUSH2 0x1240 JUMP JUMPDEST SWAP2 POP POP SWAP3 SWAP2 POP POP JUMP JUMPDEST PUSH1 0x0 PUSH1 0x20 DUP3 DUP5 SUB SLT ISZERO PUSH2 0x12BA JUMPI PUSH1 0x0 DUP1 REVERT JUMPDEST PUSH1 0x0 PUSH2 0x12C8 DUP5 DUP3 DUP6 ADD PUSH2 0x1255 JUMP JUMPDEST SWAP2 POP POP SWAP3 SWAP2 POP POP JUMP JUMPDEST PUSH1 0x0 DUP1 PUSH1 0x40 DUP4 DUP6 SUB SLT ISZERO PUSH2 0x12E4 JUMPI PUSH1 0x0 DUP1 REVERT JUMPDEST PUSH1 0x0 PUSH2 0x12F2 DUP6 DUP3 DUP7 ADD PUSH2 0x1255 JUMP JUMPDEST SWAP3 POP POP PUSH1 0x20 PUSH2 0x1303 DUP6 DUP3 DUP7 ADD PUSH2 0x122B JUMP JUMPDEST SWAP2 POP POP SWAP3 POP SWAP3 SWAP1 POP JUMP JUMPDEST PUSH1 0x0 DUP1 PUSH1 0x40 DUP4 DUP6 SUB SLT ISZERO PUSH2 0x1320 JUMPI PUSH1 0x0 DUP1 REVERT JUMPDEST PUSH1 0x0 PUSH2 0x132E DUP6 DUP3 DUP7 ADD PUSH2 0x1255 JUMP JUMPDEST SWAP3 POP POP PUSH1 0x20 PUSH2 0x133F DUP6 DUP3 DUP7 ADD PUSH2 0x1255 JUMP JUMPDEST SWAP2 POP POP SWAP3 POP SWAP3 SWAP1 POP JUMP JUMPDEST PUSH1 0x0 DUP1 PUSH1 0x0 PUSH1 0x60 DUP5 DUP7 SUB SLT ISZERO PUSH2 0x135E JUMPI PUSH1 0x0 DUP1 REVERT JUMPDEST PUSH1 0x0 PUSH2 0x136C DUP7 DUP3 DUP8 ADD PUSH2 0x1255 JUMP JUMPDEST SWAP4 POP POP PUSH1 0x20 PUSH2 0x137D DUP7 DUP3 DUP8 ADD PUSH2 0x126A JUMP JUMPDEST SWAP3 POP POP PUSH1 0x40 PUSH2 0x138E DUP7 DUP3 DUP8 ADD PUSH2 0x126A JUMP JUMPDEST SWAP2 POP POP SWAP3 POP SWAP3 POP SWAP3 JUMP JUMPDEST PUSH2 0x13A1 DUP2 PUSH2 0x1A03 JUMP JUMPDEST DUP3 MSTORE POP POP JUMP JUMPDEST PUSH2 0x13B0 DUP2 PUSH2 0x1A15 JUMP JUMPDEST DUP3 MSTORE POP POP JUMP JUMPDEST PUSH2 0x13BF DUP2 PUSH2 0x1A5B JUMP JUMPDEST DUP3 MSTORE POP POP JUMP JUMPDEST PUSH1 0x0 PUSH2 0x13D2 PUSH1 0x15 DUP4 PUSH2 0x1968 JUMP JUMPDEST SWAP2 POP PUSH32 0x656E64206174203E206D6178206475726174696F6E0000000000000000000000 PUSH1 0x0 DUP4 ADD MSTORE PUSH1 0x20 DUP3 ADD SWAP1 POP SWAP2 SWAP1 POP JUMP JUMPDEST PUSH1 0x0 PUSH2 0x1412 PUSH1 0x7 DUP4 PUSH2 0x1968 JUMP JUMPDEST SWAP2 POP PUSH32 0x636C61696D656400000000000000000000000000000000000000000000000000 PUSH1 0x0 DUP4 ADD MSTORE PUSH1 0x20 DUP3 ADD SWAP1 POP SWAP2 SWAP1 POP JUMP JUMPDEST PUSH1 0x0 PUSH2 0x1452 PUSH1 0x11 DUP4 PUSH2 0x1968 JUMP JUMPDEST SWAP2 POP PUSH32 0x656E64206174203C207374617274206174000000000000000000000000000000 PUSH1 0x0 DUP4 ADD MSTORE PUSH1 0x20 DUP3 ADD SWAP1 POP SWAP2 SWAP1 POP JUMP JUMPDEST PUSH1 0x0 PUSH2 0x1492 PUSH1 0xB DUP4 PUSH2 0x1968 JUMP JUMPDEST SWAP2 POP PUSH32 0x6E6F742063726561746F72000000000000000000000000000000000000000000 PUSH1 0x0 DUP4 ADD MSTORE PUSH1 0x20 DUP3 ADD SWAP1 POP SWAP2 SWAP1 POP JUMP JUMPDEST PUSH1 0x0 PUSH2 0x14D2 PUSH1 0xE DUP4 PUSH2 0x1968 JUMP JUMPDEST SWAP2 POP PUSH32 0x7374617274206174203C206E6F77000000000000000000000000000000000000 PUSH1 0x0 DUP4 ADD MSTORE PUSH1 0x20 DUP3 ADD SWAP1 POP SWAP2 SWAP1 POP JUMP JUMPDEST PUSH1 0x0 PUSH2 0x1512 PUSH1 0xF DUP4 PUSH2 0x1968 JUMP JUMPDEST SWAP2 POP PUSH32 0x706C6564676564203E3D20676F616C0000000000000000000000000000000000 PUSH1 0x0 DUP4 ADD MSTORE PUSH1 0x20 DUP3 ADD SWAP1 POP SWAP2 SWAP1 POP JUMP JUMPDEST PUSH1 0x0 PUSH2 0x1552 PUSH1 0x7 DUP4 PUSH2 0x1968 JUMP JUMPDEST SWAP2 POP PUSH32 0x7374617274656400000000000000000000000000000000000000000000000000 PUSH1 0x0 DUP4 ADD MSTORE PUSH1 0x20 DUP3 ADD SWAP1 POP SWAP2 SWAP1 POP JUMP JUMPDEST PUSH1 0x0 PUSH2 0x1592 PUSH1 0xE DUP4 PUSH2 0x1968 JUMP JUMPDEST SWAP2 POP PUSH32 0x706C6564676564203C20676F616C000000000000000000000000000000000000 PUSH1 0x0 DUP4 ADD MSTORE PUSH1 0x20 DUP3 ADD SWAP1 POP SWAP2 SWAP1 POP JUMP JUMPDEST PUSH1 0x0 PUSH2 0x15D2 PUSH1 0xB DUP4 PUSH2 0x1968 JUMP JUMPDEST SWAP2 POP PUSH32 0x6E6F742073746172746564000000000000000000000000000000000000000000 PUSH1 0x0 DUP4 ADD MSTORE PUSH1 0x20 DUP3 ADD SWAP1 POP SWAP2 SWAP1 POP JUMP JUMPDEST PUSH1 0x0 PUSH2 0x1612 PUSH1 0x5 DUP4 PUSH2 0x1968 JUMP JUMPDEST SWAP2 POP PUSH32 0x656E646564000000000000000000000000000000000000000000000000000000 PUSH1 0x0 DUP4 ADD MSTORE PUSH1 0x20 DUP3 ADD SWAP1 POP SWAP2 SWAP1 POP JUMP JUMPDEST PUSH1 0x0 PUSH2 0x1652 PUSH1 0x9 DUP4 PUSH2 0x1968 JUMP JUMPDEST SWAP2 POP PUSH32 0x6E6F7420656E6465640000000000000000000000000000000000000000000000 PUSH1 0x0 DUP4 ADD MSTORE PUSH1 0x20 DUP3 ADD SWAP1 POP SWAP2 SWAP1 POP JUMP JUMPDEST PUSH2 0x168E DUP2 PUSH2 0x1A41 JUMP JUMPDEST DUP3 MSTORE POP POP JUMP JUMPDEST PUSH2 0x169D DUP2 PUSH2 0x1A4B JUMP JUMPDEST DUP3 MSTORE POP POP JUMP JUMPDEST PUSH1 0x0 PUSH1 0x60 DUP3 ADD SWAP1 POP PUSH2 0x16B8 PUSH1 0x0 DUP4 ADD DUP7 PUSH2 0x1398 JUMP JUMPDEST PUSH2 0x16C5 PUSH1 0x20 DUP4 ADD DUP6 PUSH2 0x1398 JUMP JUMPDEST PUSH2 0x16D2 PUSH1 0x40 DUP4 ADD DUP5 PUSH2 0x1685 JUMP JUMPDEST SWAP5 SWAP4 POP POP POP POP JUMP JUMPDEST PUSH1 0x0 PUSH1 0x40 DUP3 ADD SWAP1 POP PUSH2 0x16EF PUSH1 0x0 DUP4 ADD DUP6 PUSH2 0x1398 JUMP JUMPDEST PUSH2 0x16FC PUSH1 0x20 DUP4 ADD DUP5 PUSH2 0x1685 JUMP JUMPDEST SWAP4 SWAP3 POP POP POP JUMP JUMPDEST PUSH1 0x0 PUSH1 0xC0 DUP3 ADD SWAP1 POP PUSH2 0x1718 PUSH1 0x0 DUP4 ADD DUP10 PUSH2 0x1398 JUMP JUMPDEST PUSH2 0x1725 PUSH1 0x20 DUP4 ADD DUP9 PUSH2 0x1685 JUMP JUMPDEST PUSH2 0x1732 PUSH1 0x40 DUP4 ADD DUP8 PUSH2 0x1685 JUMP JUMPDEST PUSH2 0x173F PUSH1 0x60 DUP4 ADD DUP7 PUSH2 0x1694 JUMP JUMPDEST PUSH2 0x174C PUSH1 0x80 DUP4 ADD DUP6 PUSH2 0x1694 JUMP JUMPDEST PUSH2 0x1759 PUSH1 0xA0 DUP4 ADD DUP5 PUSH2 0x13A7 JUMP JUMPDEST SWAP8 SWAP7 POP POP POP POP POP POP POP JUMP JUMPDEST PUSH1 0x0 PUSH1 0x20 DUP3 ADD SWAP1 POP PUSH2 0x1779 PUSH1 0x0 DUP4 ADD DUP5 PUSH2 0x13B6 JUMP JUMPDEST SWAP3 SWAP2 POP POP JUMP JUMPDEST PUSH1 0x0 PUSH1 0x20 DUP3 ADD SWAP1 POP DUP2 DUP2 SUB PUSH1 0x0 DUP4 ADD MSTORE PUSH2 0x1798 DUP2 PUSH2 0x13C5 JUMP JUMPDEST SWAP1 POP SWAP2 SWAP1 POP JUMP JUMPDEST PUSH1 0x0 PUSH1 0x20 DUP3 ADD SWAP1 POP DUP2 DUP2 SUB PUSH1 0x0 DUP4 ADD MSTORE PUSH2 0x17B8 DUP2 PUSH2 0x1405 JUMP JUMPDEST SWAP1 POP SWAP2 SWAP1 POP JUMP JUMPDEST PUSH1 0x0 PUSH1 0x20 DUP3 ADD SWAP1 POP DUP2 DUP2 SUB PUSH1 0x0 DUP4 ADD MSTORE PUSH2 0x17D8 DUP2 PUSH2 0x1445 JUMP JUMPDEST SWAP1 POP SWAP2 SWAP1 POP JUMP JUMPDEST PUSH1 0x0 PUSH1 0x20 DUP3 ADD SWAP1 POP DUP2 DUP2 SUB PUSH1 0x0 DUP4 ADD MSTORE PUSH2 0x17F8 DUP2 PUSH2 0x1485 JUMP JUMPDEST SWAP1 POP SWAP2 SWAP1 POP JUMP JUMPDEST PUSH1 0x0 PUSH1 0x20 DUP3 ADD SWAP1 POP DUP2 DUP2 SUB PUSH1 0x0 DUP4 ADD MSTORE PUSH2 0x1818 DUP2 PUSH2 0x14C5 JUMP JUMPDEST SWAP1 POP SWAP2 SWAP1 POP JUMP JUMPDEST PUSH1 0x0 PUSH1 0x20 DUP3 ADD SWAP1 POP DUP2 DUP2 SUB PUSH1 0x0 DUP4 ADD MSTORE PUSH2 0x1838 DUP2 PUSH2 0x1505 JUMP JUMPDEST SWAP1 POP SWAP2 SWAP1 POP JUMP JUMPDEST PUSH1 0x0 PUSH1 0x20 DUP3 ADD SWAP1 POP DUP2 DUP2 SUB PUSH1 0x0 DUP4 ADD MSTORE PUSH2 0x1858 DUP2 PUSH2 0x1545 JUMP JUMPDEST SWAP1 POP SWAP2 SWAP1 POP JUMP JUMPDEST PUSH1 0x0 PUSH1 0x20 DUP3 ADD SWAP1 POP DUP2 DUP2 SUB PUSH1 0x0 DUP4 ADD MSTORE PUSH2 0x1878 DUP2 PUSH2 0x1585 JUMP JUMPDEST SWAP1 POP SWAP2 SWAP1 POP JUMP JUMPDEST PUSH1 0x0 PUSH1 0x20 DUP3 ADD SWAP1 POP DUP2 DUP2 SUB PUSH1 0x0 DUP4 ADD MSTORE PUSH2 0x1898 DUP2 PUSH2 0x15C5 JUMP JUMPDEST SWAP1 POP SWAP2 SWAP1 POP JUMP JUMPDEST PUSH1 0x0 PUSH1 0x20 DUP3 ADD SWAP1 POP DUP2 DUP2 SUB PUSH1 0x0 DUP4 ADD MSTORE PUSH2 0x18B8 DUP2 PUSH2 0x1605 JUMP JUMPDEST SWAP1 POP SWAP2 SWAP1 POP JUMP JUMPDEST PUSH1 0x0 PUSH1 0x20 DUP3 ADD SWAP1 POP DUP2 DUP2 SUB PUSH1 0x0 DUP4 ADD MSTORE PUSH2 0x18D8 DUP2 PUSH2 0x1645 JUMP JUMPDEST SWAP1 POP SWAP2 SWAP1 POP JUMP JUMPDEST PUSH1 0x0 PUSH1 0x20 DUP3 ADD SWAP1 POP PUSH2 0x18F4 PUSH1 0x0 DUP4 ADD DUP5 PUSH2 0x1685 JUMP JUMPDEST SWAP3 SWAP2 POP POP JUMP JUMPDEST PUSH1 0x0 PUSH1 0x40 DUP3 ADD SWAP1 POP PUSH2 0x190F PUSH1 0x0 DUP4 ADD DUP6 PUSH2 0x1685 JUMP JUMPDEST PUSH2 0x191C PUSH1 0x20 DUP4 ADD DUP5 PUSH2 0x1685 JUMP JUMPDEST SWAP4 SWAP3 POP POP POP JUMP JUMPDEST PUSH1 0x0 PUSH1 0x80 DUP3 ADD SWAP1 POP PUSH2 0x1938 PUSH1 0x0 DUP4 ADD DUP8 PUSH2 0x1685 JUMP JUMPDEST PUSH2 0x1945 PUSH1 0x20 DUP4 ADD DUP7 PUSH2 0x1685 JUMP JUMPDEST PUSH2 0x1952 PUSH1 0x40 DUP4 ADD DUP6 PUSH2 0x1694 JUMP JUMPDEST PUSH2 0x195F PUSH1 0x60 DUP4 ADD DUP5 PUSH2 0x1694 JUMP JUMPDEST SWAP6 SWAP5 POP POP POP POP POP JUMP JUMPDEST PUSH1 0x0 DUP3 DUP3 MSTORE PUSH1 0x20 DUP3 ADD SWAP1 POP SWAP3 SWAP2 POP POP JUMP JUMPDEST PUSH1 0x0 PUSH2 0x1984 DUP3 PUSH2 0x1A41 JUMP JUMPDEST SWAP2 POP PUSH2 0x198F DUP4 PUSH2 0x1A41 JUMP JUMPDEST SWAP3 POP DUP3 PUSH32 0xFFFFFFFFFFFFFFFFFFFFFFFFFFFFFFFFFFFFFFFFFFFFFFFFFFFFFFFFFFFFFFFF SUB DUP3 GT ISZERO PUSH2 0x19C4 JUMPI PUSH2 0x19C3 PUSH2 0x1A7F JUMP JUMPDEST JUMPDEST DUP3 DUP3 ADD SWAP1 POP SWAP3 SWAP2 POP POP JUMP JUMPDEST PUSH1 0x0 PUSH2 0x19DA DUP3 PUSH2 0x1A41 JUMP JUMPDEST SWAP2 POP PUSH2 0x19E5 DUP4 PUSH2 0x1A41 JUMP JUMPDEST SWAP3 POP DUP3 DUP3 LT ISZERO PUSH2 0x19F8 JUMPI PUSH2 0x19F7 PUSH2 0x1A7F JUMP JUMPDEST JUMPDEST DUP3 DUP3 SUB SWAP1 POP SWAP3 SWAP2 POP POP JUMP JUMPDEST PUSH1 0x0 PUSH2 0x1A0E DUP3 PUSH2 0x1A21 JUMP JUMPDEST SWAP1 POP SWAP2 SWAP1 POP JUMP JUMPDEST PUSH1 0x0 DUP2 ISZERO ISZERO SWAP1 POP SWAP2 SWAP1 POP JUMP JUMPDEST PUSH1 0x0 PUSH20 0xFFFFFFFFFFFFFFFFFFFFFFFFFFFFFFFFFFFFFFFF DUP3 AND SWAP1 POP SWAP2 SWAP1 POP JUMP JUMPDEST PUSH1 0x0 DUP2 SWAP1 POP SWAP2 SWAP1 POP JUMP JUMPDEST PUSH1 0x0 PUSH4 0xFFFFFFFF DUP3 AND SWAP1 POP SWAP2 SWAP1 POP JUMP JUMPDEST PUSH1 0x0 PUSH2 0x1A66 DUP3 PUSH2 0x1A6D JUMP JUMPDEST SWAP1 POP SWAP2 SWAP1 POP JUMP JUMPDEST PUSH1 0x0 PUSH2 0x1A78 DUP3 PUSH2 0x1A21 JUMP JUMPDEST SWAP1 POP SWAP2 SWAP1 POP JUMP JUMPDEST PUSH32 0x4E487B7100000000000000000000000000000000000000000000000000000000 PUSH1 0x0 MSTORE PUSH1 0x11 PUSH1 0x4 MSTORE PUSH1 0x24 PUSH1 0x0 REVERT JUMPDEST PUSH2 0x1AB7 DUP2 PUSH2 0x1A03 JUMP JUMPDEST DUP2 EQ PUSH2 0x1AC2 JUMPI PUSH1 0x0 DUP1 REVERT JUMPDEST POP JUMP JUMPDEST PUSH2 0x1ACE DUP2 PUSH2 0x1A15 JUMP JUMPDEST DUP2 EQ PUSH2 0x1AD9 JUMPI PUSH1 0x0 DUP1 REVERT JUMPDEST POP JUMP JUMPDEST PUSH2 0x1AE5 DUP2 PUSH2 0x1A41 JUMP JUMPDEST DUP2 EQ PUSH2 0x1AF0 JUMPI PUSH1 0x0 DUP1 REVERT JUMPDEST POP JUMP JUMPDEST PUSH2 0x1AFC DUP2 PUSH2 0x1A4B JUMP JUMPDEST DUP2 EQ PUSH2 0x1B07 JUMPI PUSH1 0x0 DUP1 REVERT JUMPDEST POP JUMP INVALID LOG2 PUSH5 0x6970667358 0x22 SLT KECCAK256 0xD8 0xD5 EXTCODECOPY RETURN 0xA8 CALLDATASIZE 0xB8 PUSH28 0x9C2255684E7D59EDDFEB51EB6CEA4D4F2BAEE307A361DE7E64736F6C PUSH4 0x43000800 STOP CALLER "
				},
				"gasEstimates": {
					"creation": {
						"codeDepositCost": "1395200",
						"executionCost": "infinite",
						"totalCost": "infinite"
					},
					"external": {
						"campaigns(uint256)": "infinite",
						"cancel(uint256)": "infinite",
						"claim(uint256)": "infinite",
						"count()": "1130",
						"launch(uint256,uint32,uint32)": "infinite",
						"pledge(uint256,uint256)": "infinite",
						"pledgedAmount(uint256,address)": "infinite",
						"refund(uint256)": "infinite",
						"token()": "infinite",
						"unpledge(uint256,uint256)": "infinite"
					}
				},
				"methodIdentifiers": {
					"campaigns(uint256)": "141961bc",
					"cancel(uint256)": "40e58ee5",
					"claim(uint256)": "379607f5",
					"count()": "06661abd",
					"launch(uint256,uint32,uint32)": "2c63f146",
					"pledge(uint256,uint256)": "fde327be",
					"pledgedAmount(uint256,address)": "aa4fb63a",
					"refund(uint256)": "278ecde1",
					"token()": "fc0c546a",
					"unpledge(uint256,uint256)": "711853ab"
				}
			},
			"storageLayout": {
				"storage": [
					{
						"astId": 84,
						"contract": "contracts/thecrowd.sol:MegaCrowd",
						"label": "count",
						"offset": 0,
						"slot": "0",
						"type": "t_uint256"
					},
					{
						"astId": 89,
						"contract": "contracts/thecrowd.sol:MegaCrowd",
						"label": "campaigns",
						"offset": 0,
						"slot": "1",
						"type": "t_mapping(t_uint256,t_struct(Campaign)79_storage)"
					},
					{
						"astId": 95,
						"contract": "contracts/thecrowd.sol:MegaCrowd",
						"label": "pledgedAmount",
						"offset": 0,
						"slot": "2",
						"type": "t_mapping(t_uint256,t_mapping(t_address,t_uint256))"
					}
				],
				"types": {
					"t_address": {
						"encoding": "inplace",
						"label": "address",
						"numberOfBytes": "20"
					},
					"t_bool": {
						"encoding": "inplace",
						"label": "bool",
						"numberOfBytes": "1"
					},
					"t_mapping(t_address,t_uint256)": {
						"encoding": "mapping",
						"key": "t_address",
						"label": "mapping(address => uint256)",
						"numberOfBytes": "32",
						"value": "t_uint256"
					},
					"t_mapping(t_uint256,t_mapping(t_address,t_uint256))": {
						"encoding": "mapping",
						"key": "t_uint256",
						"label": "mapping(uint256 => mapping(address => uint256))",
						"numberOfBytes": "32",
						"value": "t_mapping(t_address,t_uint256)"
					},
					"t_mapping(t_uint256,t_struct(Campaign)79_storage)": {
						"encoding": "mapping",
						"key": "t_uint256",
						"label": "mapping(uint256 => struct MegaCrowd.Campaign)",
						"numberOfBytes": "32",
						"value": "t_struct(Campaign)79_storage"
					},
					"t_struct(Campaign)79_storage": {
						"encoding": "inplace",
						"label": "struct MegaCrowd.Campaign",
						"members": [
							{
								"astId": 68,
								"contract": "contracts/thecrowd.sol:MegaCrowd",
								"label": "creator",
								"offset": 0,
								"slot": "0",
								"type": "t_address"
							},
							{
								"astId": 70,
								"contract": "contracts/thecrowd.sol:MegaCrowd",
								"label": "goal",
								"offset": 0,
								"slot": "1",
								"type": "t_uint256"
							},
							{
								"astId": 72,
								"contract": "contracts/thecrowd.sol:MegaCrowd",
								"label": "pledged",
								"offset": 0,
								"slot": "2",
								"type": "t_uint256"
							},
							{
								"astId": 74,
								"contract": "contracts/thecrowd.sol:MegaCrowd",
								"label": "startAt",
								"offset": 0,
								"slot": "3",
								"type": "t_uint32"
							},
							{
								"astId": 76,
								"contract": "contracts/thecrowd.sol:MegaCrowd",
								"label": "endAt",
								"offset": 4,
								"slot": "3",
								"type": "t_uint32"
							},
							{
								"astId": 78,
								"contract": "contracts/thecrowd.sol:MegaCrowd",
								"label": "claimed",
								"offset": 8,
								"slot": "3",
								"type": "t_bool"
							}
						],
						"numberOfBytes": "128"
					},
					"t_uint256": {
						"encoding": "inplace",
						"label": "uint256",
						"numberOfBytes": "32"
					},
					"t_uint32": {
						"encoding": "inplace",
						"label": "uint32",
						"numberOfBytes": "4"
					}
				}
			},
			"userdoc": {
				"kind": "user",
				"methods": {},
				"version": 1
			}
		}
	}
}